{"abi":[{"inputs":[{"internalType":"string","name":"title","type":"string"},{"internalType":"string","name":"description","type":"string"},{"internalType":"address","name":"manager","type":"address"},{"internalType":"uint256","name":"minimumContribution","type":"uint256"}],"name":"createCampaign","outputs":[],"stateMutability":"nonpayable","type":"function"},{"inputs":[{"internalType":"uint256","name":"","type":"uint256"}],"name":"deployedCampaigns","outputs":[{"internalType":"address","name":"contractAddress","type":"address"},{"internalType":"string","name":"title","type":"string"},{"internalType":"string","name":"description","type":"string"},{"internalType":"address","name":"manager","type":"address"},{"internalType":"uint256","name":"minimumContribution","type":"uint256"}],"stateMutability":"view","type":"function"},{"inputs":[],"name":"getDeployedCampaigns","outputs":[{"components":[{"internalType":"address","name":"contractAddress","type":"address"},{"internalType":"string","name":"title","type":"string"},{"internalType":"string","name":"description","type":"string"},{"internalType":"address","name":"manager","type":"address"},{"internalType":"uint256","name":"minimumContribution","type":"uint256"}],"internalType":"struct CampaignSummary[]","name":"","type":"tuple[]"}],"stateMutability":"view","type":"function"}],"devdoc":{"kind":"dev","methods":{},"version":1},"evm":{"assembly":"    /* \"test.sol\":402:1246  contract CampaignFactory {... */\n  mstore(0x40, 0x80)\n  callvalue\n  dup1\n  iszero\n  tag_1\n  jumpi\n  0x00\n  dup1\n  revert\ntag_1:\n  pop\n  dataSize(sub_0)\n  dup1\n  dataOffset(sub_0)\n  0x00\n  codecopy\n  0x00\n  return\nstop\n\nsub_0: assembly {\n        /* \"test.sol\":402:1246  contract CampaignFactory {... */\n      mstore(0x40, 0x80)\n      callvalue\n      dup1\n      iszero\n      tag_1\n      jumpi\n      0x00\n      dup1\n      revert\n    tag_1:\n      pop\n      jumpi(tag_2, lt(calldatasize, 0x04))\n      shr(0xe0, calldataload(0x00))\n      dup1\n      0x1d921f62\n      eq\n      tag_3\n      jumpi\n      dup1\n      0x339d50a5\n      eq\n      tag_4\n      jumpi\n      dup1\n      0x4acb9d4f\n      eq\n      tag_5\n      jumpi\n    tag_2:\n      0x00\n      dup1\n      revert\n        /* \"test.sol\":482:1090  function createCampaign(... */\n    tag_3:\n      tag_6\n      0x04\n      dup1\n      calldatasize\n      sub\n      dup2\n      add\n      swap1\n      tag_7\n      swap2\n      swap1\n      tag_8\n      jump\t// in\n    tag_7:\n      tag_9\n      jump\t// in\n    tag_6:\n      stop\n        /* \"test.sol\":433:475  CampaignSummary[] public deployedCampaigns */\n    tag_4:\n      tag_10\n      0x04\n      dup1\n      calldatasize\n      sub\n      dup2\n      add\n      swap1\n      tag_11\n      swap2\n      swap1\n      tag_12\n      jump\t// in\n    tag_11:\n      tag_13\n      jump\t// in\n    tag_10:\n      mload(0x40)\n      tag_14\n      swap6\n      swap5\n      swap4\n      swap3\n      swap2\n      swap1\n      tag_15\n      jump\t// in\n    tag_14:\n      mload(0x40)\n      dup1\n      swap2\n      sub\n      swap1\n      return\n        /* \"test.sol\":1096:1244  function getDeployedCampaigns()... */\n    tag_5:\n      tag_16\n      tag_17\n      jump\t// in\n    tag_16:\n      mload(0x40)\n      tag_18\n      swap2\n      swap1\n      tag_19\n      jump\t// in\n    tag_18:\n      mload(0x40)\n      dup1\n      swap2\n      sub\n      swap1\n      return\n        /* \"test.sol\":482:1090  function createCampaign(... */\n    tag_9:\n        /* \"test.sol\":661:680  address newCampaign */\n      0x00\n        /* \"test.sol\":717:736  minimumContribution */\n      dup2\n        /* \"test.sol\":738:748  msg.sender */\n      caller\n        /* \"test.sol\":704:749  new Campaign(minimumContribution, msg.sender) */\n      mload(0x40)\n      tag_21\n      swap1\n      tag_22\n      jump\t// in\n    tag_21:\n      tag_23\n      swap3\n      swap2\n      swap1\n      tag_24\n      jump\t// in\n    tag_23:\n      mload(0x40)\n      dup1\n      swap2\n      sub\n      swap1\n      0x00\n      create\n      dup1\n      iszero\n      dup1\n      iszero\n      tag_25\n      jumpi\n      returndatasize\n      0x00\n      dup1\n      returndatacopy\n      revert(0x00, returndatasize)\n    tag_25:\n      pop\n        /* \"test.sol\":661:759  address newCampaign = address(... */\n      swap1\n      pop\n        /* \"test.sol\":769:810  CampaignSummary memory newCampaignSummary */\n      0x00\n        /* \"test.sol\":813:1030  CampaignSummary({... */\n      mload(0x40)\n      dup1\n      0xa0\n      add\n      0x40\n      mstore\n      dup1\n        /* \"test.sol\":860:871  newCampaign */\n      dup4\n        /* \"test.sol\":813:1030  CampaignSummary({... */\n      0xffffffffffffffffffffffffffffffffffffffff\n      and\n      dup2\n      mstore\n      0x20\n      add\n        /* \"test.sol\":892:897  title */\n      dup10\n      dup10\n        /* \"test.sol\":813:1030  CampaignSummary({... */\n      dup1\n      dup1\n      0x1f\n      add\n      0x20\n      dup1\n      swap2\n      div\n      mul\n      0x20\n      add\n      mload(0x40)\n      swap1\n      dup2\n      add\n      0x40\n      mstore\n      dup1\n      swap4\n      swap3\n      swap2\n      swap1\n      dup2\n      dup2\n      mstore\n      0x20\n      add\n      dup4\n      dup4\n      dup1\n      dup3\n      dup5\n      calldatacopy\n      0x00\n      dup2\n      dup5\n      add\n      mstore\n      not(0x1f)\n      0x1f\n      dup3\n      add\n      and\n      swap1\n      pop\n      dup1\n      dup4\n      add\n      swap3\n      pop\n      pop\n      pop\n      pop\n      pop\n      pop\n      pop\n      dup2\n      mstore\n      0x20\n      add\n        /* \"test.sol\":924:935  description */\n      dup8\n      dup8\n        /* \"test.sol\":813:1030  CampaignSummary({... */\n      dup1\n      dup1\n      0x1f\n      add\n      0x20\n      dup1\n      swap2\n      div\n      mul\n      0x20\n      add\n      mload(0x40)\n      swap1\n      dup2\n      add\n      0x40\n      mstore\n      dup1\n      swap4\n      swap3\n      swap2\n      swap1\n      dup2\n      dup2\n      mstore\n      0x20\n      add\n      dup4\n      dup4\n      dup1\n      dup3\n      dup5\n      calldatacopy\n      0x00\n      dup2\n      dup5\n      add\n      mstore\n      not(0x1f)\n      0x1f\n      dup3\n      add\n      and\n      swap1\n      pop\n      dup1\n      dup4\n      add\n      swap3\n      pop\n      pop\n      pop\n      pop\n      pop\n      pop\n      pop\n      dup2\n      mstore\n      0x20\n      add\n        /* \"test.sol\":958:965  manager */\n      dup6\n        /* \"test.sol\":813:1030  CampaignSummary({... */\n      0xffffffffffffffffffffffffffffffffffffffff\n      and\n      dup2\n      mstore\n      0x20\n      add\n        /* \"test.sol\":1000:1019  minimumContribution */\n      dup5\n        /* \"test.sol\":813:1030  CampaignSummary({... */\n      dup2\n      mstore\n      pop\n        /* \"test.sol\":769:1030  CampaignSummary memory newCampaignSummary = CampaignSummary({... */\n      swap1\n      pop\n        /* \"test.sol\":1041:1058  deployedCampaigns */\n      0x00\n        /* \"test.sol\":1064:1082  newCampaignSummary */\n      dup2\n        /* \"test.sol\":1041:1083  deployedCampaigns.push(newCampaignSummary) */\n      swap1\n      dup1\n      0x01\n      dup2\n      sload\n      add\n      dup1\n      dup3\n      sstore\n      dup1\n      swap2\n      pop\n      pop\n      0x01\n      swap1\n      sub\n      swap1\n      0x00\n      mstore\n      keccak256(0x00, 0x20)\n      swap1\n      0x05\n      mul\n      add\n      0x00\n      swap1\n      swap2\n      swap1\n      swap2\n      swap1\n      swap2\n      pop\n      0x00\n      dup3\n      add\n      mload\n      dup2\n      0x00\n      add\n      exp(0x0100, 0x00)\n      dup2\n      sload\n      dup2\n      0xffffffffffffffffffffffffffffffffffffffff\n      mul\n      not\n      and\n      swap1\n      dup4\n      0xffffffffffffffffffffffffffffffffffffffff\n      and\n      mul\n      or\n      swap1\n      sstore\n      pop\n      0x20\n      dup3\n      add\n      mload\n      dup2\n      0x01\n      add\n      swap1\n      dup1\n      mload\n      swap1\n      0x20\n      add\n      swap1\n      tag_27\n      swap3\n      swap2\n      swap1\n      tag_28\n      jump\t// in\n    tag_27:\n      pop\n      0x40\n      dup3\n      add\n      mload\n      dup2\n      0x02\n      add\n      swap1\n      dup1\n      mload\n      swap1\n      0x20\n      add\n      swap1\n      tag_29\n      swap3\n      swap2\n      swap1\n      tag_28\n      jump\t// in\n    tag_29:\n      pop\n      0x60\n      dup3\n      add\n      mload\n      dup2\n      0x03\n      add\n      exp(0x0100, 0x00)\n      dup2\n      sload\n      dup2\n      0xffffffffffffffffffffffffffffffffffffffff\n      mul\n      not\n      and\n      swap1\n      dup4\n      0xffffffffffffffffffffffffffffffffffffffff\n      and\n      mul\n      or\n      swap1\n      sstore\n      pop\n      0x80\n      dup3\n      add\n      mload\n      dup2\n      0x04\n      add\n      sstore\n      pop\n      pop\n        /* \"test.sol\":651:1090  {... */\n      pop\n      pop\n        /* \"test.sol\":482:1090  function createCampaign(... */\n      pop\n      pop\n      pop\n      pop\n      pop\n      pop\n      jump\t// out\n        /* \"test.sol\":433:475  CampaignSummary[] public deployedCampaigns */\n    tag_13:\n      0x00\n      dup2\n      dup2\n      sload\n      dup2\n      lt\n      tag_30\n      jumpi\n      0x00\n      dup1\n      revert\n    tag_30:\n      swap1\n      0x00\n      mstore\n      keccak256(0x00, 0x20)\n      swap1\n      0x05\n      mul\n      add\n      0x00\n      swap2\n      pop\n      swap1\n      pop\n      dup1\n      0x00\n      add\n      0x00\n      swap1\n      sload\n      swap1\n      0x0100\n      exp\n      swap1\n      div\n      0xffffffffffffffffffffffffffffffffffffffff\n      and\n      swap1\n      dup1\n      0x01\n      add\n      dup1\n      sload\n      tag_32\n      swap1\n      tag_33\n      jump\t// in\n    tag_32:\n      dup1\n      0x1f\n      add\n      0x20\n      dup1\n      swap2\n      div\n      mul\n      0x20\n      add\n      mload(0x40)\n      swap1\n      dup2\n      add\n      0x40\n      mstore\n      dup1\n      swap3\n      swap2\n      swap1\n      dup2\n      dup2\n      mstore\n      0x20\n      add\n      dup3\n      dup1\n      sload\n      tag_34\n      swap1\n      tag_33\n      jump\t// in\n    tag_34:\n      dup1\n      iszero\n      tag_35\n      jumpi\n      dup1\n      0x1f\n      lt\n      tag_36\n      jumpi\n      0x0100\n      dup1\n      dup4\n      sload\n      div\n      mul\n      dup4\n      mstore\n      swap2\n      0x20\n      add\n      swap2\n      jump(tag_35)\n    tag_36:\n      dup3\n      add\n      swap2\n      swap1\n      0x00\n      mstore\n      keccak256(0x00, 0x20)\n      swap1\n    tag_37:\n      dup2\n      sload\n      dup2\n      mstore\n      swap1\n      0x01\n      add\n      swap1\n      0x20\n      add\n      dup1\n      dup4\n      gt\n      tag_37\n      jumpi\n      dup3\n      swap1\n      sub\n      0x1f\n      and\n      dup3\n      add\n      swap2\n    tag_35:\n      pop\n      pop\n      pop\n      pop\n      pop\n      swap1\n      dup1\n      0x02\n      add\n      dup1\n      sload\n      tag_38\n      swap1\n      tag_33\n      jump\t// in\n    tag_38:\n      dup1\n      0x1f\n      add\n      0x20\n      dup1\n      swap2\n      div\n      mul\n      0x20\n      add\n      mload(0x40)\n      swap1\n      dup2\n      add\n      0x40\n      mstore\n      dup1\n      swap3\n      swap2\n      swap1\n      dup2\n      dup2\n      mstore\n      0x20\n      add\n      dup3\n      dup1\n      sload\n      tag_39\n      swap1\n      tag_33\n      jump\t// in\n    tag_39:\n      dup1\n      iszero\n      tag_40\n      jumpi\n      dup1\n      0x1f\n      lt\n      tag_41\n      jumpi\n      0x0100\n      dup1\n      dup4\n      sload\n      div\n      mul\n      dup4\n      mstore\n      swap2\n      0x20\n      add\n      swap2\n      jump(tag_40)\n    tag_41:\n      dup3\n      add\n      swap2\n      swap1\n      0x00\n      mstore\n      keccak256(0x00, 0x20)\n      swap1\n    tag_42:\n      dup2\n      sload\n      dup2\n      mstore\n      swap1\n      0x01\n      add\n      swap1\n      0x20\n      add\n      dup1\n      dup4\n      gt\n      tag_42\n      jumpi\n      dup3\n      swap1\n      sub\n      0x1f\n      and\n      dup3\n      add\n      swap2\n    tag_40:\n      pop\n      pop\n      pop\n      pop\n      pop\n      swap1\n      dup1\n      0x03\n      add\n      0x00\n      swap1\n      sload\n      swap1\n      0x0100\n      exp\n      swap1\n      div\n      0xffffffffffffffffffffffffffffffffffffffff\n      and\n      swap1\n      dup1\n      0x04\n      add\n      sload\n      swap1\n      pop\n      dup6\n      jump\t// out\n        /* \"test.sol\":1096:1244  function getDeployedCampaigns()... */\n    tag_17:\n        /* \"test.sol\":1173:1197  CampaignSummary[] memory */\n      0x60\n        /* \"test.sol\":1220:1237  deployedCampaigns */\n      0x00\n        /* \"test.sol\":1213:1237  return deployedCampaigns */\n      dup1\n      sload\n      dup1\n      0x20\n      mul\n      0x20\n      add\n      mload(0x40)\n      swap1\n      dup2\n      add\n      0x40\n      mstore\n      dup1\n      swap3\n      swap2\n      swap1\n      dup2\n      dup2\n      mstore\n      0x20\n      add\n      0x00\n      swap1\n    tag_44:\n      dup3\n      dup3\n      lt\n      iszero\n      tag_45\n      jumpi\n      dup4\n      dup3\n      swap1\n      0x00\n      mstore\n      keccak256(0x00, 0x20)\n      swap1\n      0x05\n      mul\n      add\n      mload(0x40)\n      dup1\n      0xa0\n      add\n      0x40\n      mstore\n      swap1\n      dup2\n      0x00\n      dup3\n      add\n      0x00\n      swap1\n      sload\n      swap1\n      0x0100\n      exp\n      swap1\n      div\n      0xffffffffffffffffffffffffffffffffffffffff\n      and\n      0xffffffffffffffffffffffffffffffffffffffff\n      and\n      0xffffffffffffffffffffffffffffffffffffffff\n      and\n      dup2\n      mstore\n      0x20\n      add\n      0x01\n      dup3\n      add\n      dup1\n      sload\n      tag_47\n      swap1\n      tag_33\n      jump\t// in\n    tag_47:\n      dup1\n      0x1f\n      add\n      0x20\n      dup1\n      swap2\n      div\n      mul\n      0x20\n      add\n      mload(0x40)\n      swap1\n      dup2\n      add\n      0x40\n      mstore\n      dup1\n      swap3\n      swap2\n      swap1\n      dup2\n      dup2\n      mstore\n      0x20\n      add\n      dup3\n      dup1\n      sload\n      tag_48\n      swap1\n      tag_33\n      jump\t// in\n    tag_48:\n      dup1\n      iszero\n      tag_49\n      jumpi\n      dup1\n      0x1f\n      lt\n      tag_50\n      jumpi\n      0x0100\n      dup1\n      dup4\n      sload\n      div\n      mul\n      dup4\n      mstore\n      swap2\n      0x20\n      add\n      swap2\n      jump(tag_49)\n    tag_50:\n      dup3\n      add\n      swap2\n      swap1\n      0x00\n      mstore\n      keccak256(0x00, 0x20)\n      swap1\n    tag_51:\n      dup2\n      sload\n      dup2\n      mstore\n      swap1\n      0x01\n      add\n      swap1\n      0x20\n      add\n      dup1\n      dup4\n      gt\n      tag_51\n      jumpi\n      dup3\n      swap1\n      sub\n      0x1f\n      and\n      dup3\n      add\n      swap2\n    tag_49:\n      pop\n      pop\n      pop\n      pop\n      pop\n      dup2\n      mstore\n      0x20\n      add\n      0x02\n      dup3\n      add\n      dup1\n      sload\n      tag_52\n      swap1\n      tag_33\n      jump\t// in\n    tag_52:\n      dup1\n      0x1f\n      add\n      0x20\n      dup1\n      swap2\n      div\n      mul\n      0x20\n      add\n      mload(0x40)\n      swap1\n      dup2\n      add\n      0x40\n      mstore\n      dup1\n      swap3\n      swap2\n      swap1\n      dup2\n      dup2\n      mstore\n      0x20\n      add\n      dup3\n      dup1\n      sload\n      tag_53\n      swap1\n      tag_33\n      jump\t// in\n    tag_53:\n      dup1\n      iszero\n      tag_54\n      jumpi\n      dup1\n      0x1f\n      lt\n      tag_55\n      jumpi\n      0x0100\n      dup1\n      dup4\n      sload\n      div\n      mul\n      dup4\n      mstore\n      swap2\n      0x20\n      add\n      swap2\n      jump(tag_54)\n    tag_55:\n      dup3\n      add\n      swap2\n      swap1\n      0x00\n      mstore\n      keccak256(0x00, 0x20)\n      swap1\n    tag_56:\n      dup2\n      sload\n      dup2\n      mstore\n      swap1\n      0x01\n      add\n      swap1\n      0x20\n      add\n      dup1\n      dup4\n      gt\n      tag_56\n      jumpi\n      dup3\n      swap1\n      sub\n      0x1f\n      and\n      dup3\n      add\n      swap2\n    tag_54:\n      pop\n      pop\n      pop\n      pop\n      pop\n      dup2\n      mstore\n      0x20\n      add\n      0x03\n      dup3\n      add\n      0x00\n      swap1\n      sload\n      swap1\n      0x0100\n      exp\n      swap1\n      div\n      0xffffffffffffffffffffffffffffffffffffffff\n      and\n      0xffffffffffffffffffffffffffffffffffffffff\n      and\n      0xffffffffffffffffffffffffffffffffffffffff\n      and\n      dup2\n      mstore\n      0x20\n      add\n      0x04\n      dup3\n      add\n      sload\n      dup2\n      mstore\n      pop\n      pop\n      dup2\n      mstore\n      0x20\n      add\n      swap1\n      0x01\n      add\n      swap1\n      jump(tag_44)\n    tag_45:\n      pop\n      pop\n      pop\n      pop\n      swap1\n      pop\n        /* \"test.sol\":1096:1244  function getDeployedCampaigns()... */\n      swap1\n      jump\t// out\n    tag_22:\n      dataSize(sub_0)\n      dup1\n      dataOffset(sub_0)\n      dup4\n      codecopy\n      add\n      swap1\n      jump\t// out\n    tag_28:\n      dup3\n      dup1\n      sload\n      tag_57\n      swap1\n      tag_33\n      jump\t// in\n    tag_57:\n      swap1\n      0x00\n      mstore\n      keccak256(0x00, 0x20)\n      swap1\n      0x1f\n      add\n      0x20\n      swap1\n      div\n      dup2\n      add\n      swap3\n      dup3\n      tag_59\n      jumpi\n      0x00\n      dup6\n      sstore\n      jump(tag_58)\n    tag_59:\n      dup3\n      0x1f\n      lt\n      tag_60\n      jumpi\n      dup1\n      mload\n      not(0xff)\n      and\n      dup4\n      dup1\n      add\n      or\n      dup6\n      sstore\n      jump(tag_58)\n    tag_60:\n      dup3\n      dup1\n      add\n      0x01\n      add\n      dup6\n      sstore\n      dup3\n      iszero\n      tag_58\n      jumpi\n      swap2\n      dup3\n      add\n    tag_61:\n      dup3\n      dup2\n      gt\n      iszero\n      tag_62\n      jumpi\n      dup3\n      mload\n      dup3\n      sstore\n      swap2\n      0x20\n      add\n      swap2\n      swap1\n      0x01\n      add\n      swap1\n      jump(tag_61)\n    tag_62:\n    tag_58:\n      pop\n      swap1\n      pop\n      tag_63\n      swap2\n      swap1\n      tag_64\n      jump\t// in\n    tag_63:\n      pop\n      swap1\n      jump\t// out\n    tag_64:\n    tag_65:\n      dup1\n      dup3\n      gt\n      iszero\n      tag_66\n      jumpi\n      0x00\n      dup2\n      0x00\n      swap1\n      sstore\n      pop\n      0x01\n      add\n      jump(tag_65)\n    tag_66:\n      pop\n      swap1\n      jump\t// out\n        /* \"#utility.yul\":7:146   */\n    tag_68:\n        /* \"#utility.yul\":53:58   */\n      0x00\n        /* \"#utility.yul\":91:97   */\n      dup2\n        /* \"#utility.yul\":78:98   */\n      calldataload\n        /* \"#utility.yul\":69:98   */\n      swap1\n      pop\n        /* \"#utility.yul\":107:140   */\n      tag_70\n        /* \"#utility.yul\":134:139   */\n      dup2\n        /* \"#utility.yul\":107:140   */\n      tag_71\n      jump\t// in\n    tag_70:\n        /* \"#utility.yul\":7:146   */\n      swap3\n      swap2\n      pop\n      pop\n      jump\t// out\n        /* \"#utility.yul\":166:719   */\n    tag_72:\n        /* \"#utility.yul\":224:232   */\n      0x00\n        /* \"#utility.yul\":234:240   */\n      dup1\n        /* \"#utility.yul\":284:287   */\n      dup4\n        /* \"#utility.yul\":277:281   */\n      0x1f\n        /* \"#utility.yul\":269:275   */\n      dup5\n        /* \"#utility.yul\":265:282   */\n      add\n        /* \"#utility.yul\":261:288   */\n      slt\n        /* \"#utility.yul\":251:373   */\n      tag_74\n      jumpi\n        /* \"#utility.yul\":292:371   */\n      tag_75\n      tag_76\n      jump\t// in\n    tag_75:\n        /* \"#utility.yul\":251:373   */\n    tag_74:\n        /* \"#utility.yul\":405:411   */\n      dup3\n        /* \"#utility.yul\":392:412   */\n      calldataload\n        /* \"#utility.yul\":382:412   */\n      swap1\n      pop\n        /* \"#utility.yul\":435:453   */\n      0xffffffffffffffff\n        /* \"#utility.yul\":427:433   */\n      dup2\n        /* \"#utility.yul\":424:454   */\n      gt\n        /* \"#utility.yul\":421:538   */\n      iszero\n      tag_77\n      jumpi\n        /* \"#utility.yul\":457:536   */\n      tag_78\n      tag_79\n      jump\t// in\n    tag_78:\n        /* \"#utility.yul\":421:538   */\n    tag_77:\n        /* \"#utility.yul\":571:575   */\n      0x20\n        /* \"#utility.yul\":563:569   */\n      dup4\n        /* \"#utility.yul\":559:576   */\n      add\n        /* \"#utility.yul\":547:576   */\n      swap2\n      pop\n        /* \"#utility.yul\":625:628   */\n      dup4\n        /* \"#utility.yul\":617:621   */\n      0x01\n        /* \"#utility.yul\":609:615   */\n      dup3\n        /* \"#utility.yul\":605:622   */\n      mul\n        /* \"#utility.yul\":595:603   */\n      dup4\n        /* \"#utility.yul\":591:623   */\n      add\n        /* \"#utility.yul\":588:629   */\n      gt\n        /* \"#utility.yul\":585:713   */\n      iszero\n      tag_80\n      jumpi\n        /* \"#utility.yul\":632:711   */\n      tag_81\n      tag_82\n      jump\t// in\n    tag_81:\n        /* \"#utility.yul\":585:713   */\n    tag_80:\n        /* \"#utility.yul\":166:719   */\n      swap3\n      pop\n      swap3\n      swap1\n      pop\n      jump\t// out\n        /* \"#utility.yul\":725:864   */\n    tag_83:\n        /* \"#utility.yul\":771:776   */\n      0x00\n        /* \"#utility.yul\":809:815   */\n      dup2\n        /* \"#utility.yul\":796:816   */\n      calldataload\n        /* \"#utility.yul\":787:816   */\n      swap1\n      pop\n        /* \"#utility.yul\":825:858   */\n      tag_85\n        /* \"#utility.yul\":852:857   */\n      dup2\n        /* \"#utility.yul\":825:858   */\n      tag_86\n      jump\t// in\n    tag_85:\n        /* \"#utility.yul\":725:864   */\n      swap3\n      swap2\n      pop\n      pop\n      jump\t// out\n        /* \"#utility.yul\":870:2035   */\n    tag_8:\n        /* \"#utility.yul\":980:986   */\n      0x00\n        /* \"#utility.yul\":988:994   */\n      dup1\n        /* \"#utility.yul\":996:1002   */\n      0x00\n        /* \"#utility.yul\":1004:1010   */\n      dup1\n        /* \"#utility.yul\":1012:1018   */\n      0x00\n        /* \"#utility.yul\":1020:1026   */\n      dup1\n        /* \"#utility.yul\":1069:1072   */\n      0x80\n        /* \"#utility.yul\":1057:1066   */\n      dup8\n        /* \"#utility.yul\":1048:1055   */\n      dup10\n        /* \"#utility.yul\":1044:1067   */\n      sub\n        /* \"#utility.yul\":1040:1073   */\n      slt\n        /* \"#utility.yul\":1037:1157   */\n      iszero\n      tag_88\n      jumpi\n        /* \"#utility.yul\":1076:1155   */\n      tag_89\n      tag_90\n      jump\t// in\n    tag_89:\n        /* \"#utility.yul\":1037:1157   */\n    tag_88:\n        /* \"#utility.yul\":1224:1225   */\n      0x00\n        /* \"#utility.yul\":1213:1222   */\n      dup8\n        /* \"#utility.yul\":1209:1226   */\n      add\n        /* \"#utility.yul\":1196:1227   */\n      calldataload\n        /* \"#utility.yul\":1254:1272   */\n      0xffffffffffffffff\n        /* \"#utility.yul\":1246:1252   */\n      dup2\n        /* \"#utility.yul\":1243:1273   */\n      gt\n        /* \"#utility.yul\":1240:1357   */\n      iszero\n      tag_91\n      jumpi\n        /* \"#utility.yul\":1276:1355   */\n      tag_92\n      tag_93\n      jump\t// in\n    tag_92:\n        /* \"#utility.yul\":1240:1357   */\n    tag_91:\n        /* \"#utility.yul\":1389:1454   */\n      tag_94\n        /* \"#utility.yul\":1446:1453   */\n      dup10\n        /* \"#utility.yul\":1437:1443   */\n      dup3\n        /* \"#utility.yul\":1426:1435   */\n      dup11\n        /* \"#utility.yul\":1422:1444   */\n      add\n        /* \"#utility.yul\":1389:1454   */\n      tag_72\n      jump\t// in\n    tag_94:\n        /* \"#utility.yul\":1371:1454   */\n      swap7\n      pop\n      swap7\n      pop\n        /* \"#utility.yul\":1167:1464   */\n      pop\n        /* \"#utility.yul\":1531:1533   */\n      0x20\n        /* \"#utility.yul\":1520:1529   */\n      dup8\n        /* \"#utility.yul\":1516:1534   */\n      add\n        /* \"#utility.yul\":1503:1535   */\n      calldataload\n        /* \"#utility.yul\":1562:1580   */\n      0xffffffffffffffff\n        /* \"#utility.yul\":1554:1560   */\n      dup2\n        /* \"#utility.yul\":1551:1581   */\n      gt\n        /* \"#utility.yul\":1548:1665   */\n      iszero\n      tag_95\n      jumpi\n        /* \"#utility.yul\":1584:1663   */\n      tag_96\n      tag_93\n      jump\t// in\n    tag_96:\n        /* \"#utility.yul\":1548:1665   */\n    tag_95:\n        /* \"#utility.yul\":1697:1762   */\n      tag_97\n        /* \"#utility.yul\":1754:1761   */\n      dup10\n        /* \"#utility.yul\":1745:1751   */\n      dup3\n        /* \"#utility.yul\":1734:1743   */\n      dup11\n        /* \"#utility.yul\":1730:1752   */\n      add\n        /* \"#utility.yul\":1697:1762   */\n      tag_72\n      jump\t// in\n    tag_97:\n        /* \"#utility.yul\":1679:1762   */\n      swap5\n      pop\n      swap5\n      pop\n        /* \"#utility.yul\":1474:1772   */\n      pop\n        /* \"#utility.yul\":1811:1813   */\n      0x40\n        /* \"#utility.yul\":1837:1890   */\n      tag_98\n        /* \"#utility.yul\":1882:1889   */\n      dup10\n        /* \"#utility.yul\":1873:1879   */\n      dup3\n        /* \"#utility.yul\":1862:1871   */\n      dup11\n        /* \"#utility.yul\":1858:1880   */\n      add\n        /* \"#utility.yul\":1837:1890   */\n      tag_68\n      jump\t// in\n    tag_98:\n        /* \"#utility.yul\":1827:1890   */\n      swap3\n      pop\n        /* \"#utility.yul\":1782:1900   */\n      pop\n        /* \"#utility.yul\":1939:1941   */\n      0x60\n        /* \"#utility.yul\":1965:2018   */\n      tag_99\n        /* \"#utility.yul\":2010:2017   */\n      dup10\n        /* \"#utility.yul\":2001:2007   */\n      dup3\n        /* \"#utility.yul\":1990:1999   */\n      dup11\n        /* \"#utility.yul\":1986:2008   */\n      add\n        /* \"#utility.yul\":1965:2018   */\n      tag_83\n      jump\t// in\n    tag_99:\n        /* \"#utility.yul\":1955:2018   */\n      swap2\n      pop\n        /* \"#utility.yul\":1910:2028   */\n      pop\n        /* \"#utility.yul\":870:2035   */\n      swap3\n      swap6\n      pop\n      swap3\n      swap6\n      pop\n      swap3\n      swap6\n      jump\t// out\n        /* \"#utility.yul\":2041:2370   */\n    tag_12:\n        /* \"#utility.yul\":2100:2106   */\n      0x00\n        /* \"#utility.yul\":2149:2151   */\n      0x20\n        /* \"#utility.yul\":2137:2146   */\n      dup3\n        /* \"#utility.yul\":2128:2135   */\n      dup5\n        /* \"#utility.yul\":2124:2147   */\n      sub\n        /* \"#utility.yul\":2120:2152   */\n      slt\n        /* \"#utility.yul\":2117:2236   */\n      iszero\n      tag_101\n      jumpi\n        /* \"#utility.yul\":2155:2234   */\n      tag_102\n      tag_90\n      jump\t// in\n    tag_102:\n        /* \"#utility.yul\":2117:2236   */\n    tag_101:\n        /* \"#utility.yul\":2275:2276   */\n      0x00\n        /* \"#utility.yul\":2300:2353   */\n      tag_103\n        /* \"#utility.yul\":2345:2352   */\n      dup5\n        /* \"#utility.yul\":2336:2342   */\n      dup3\n        /* \"#utility.yul\":2325:2334   */\n      dup6\n        /* \"#utility.yul\":2321:2343   */\n      add\n        /* \"#utility.yul\":2300:2353   */\n      tag_83\n      jump\t// in\n    tag_103:\n        /* \"#utility.yul\":2290:2353   */\n      swap2\n      pop\n        /* \"#utility.yul\":2246:2363   */\n      pop\n        /* \"#utility.yul\":2041:2370   */\n      swap3\n      swap2\n      pop\n      pop\n      jump\t// out\n        /* \"#utility.yul\":2376:2656   */\n    tag_104:\n        /* \"#utility.yul\":2507:2517   */\n      0x00\n        /* \"#utility.yul\":2542:2650   */\n      tag_106\n        /* \"#utility.yul\":2646:2649   */\n      dup4\n        /* \"#utility.yul\":2638:2644   */\n      dup4\n        /* \"#utility.yul\":2542:2650   */\n      tag_107\n      jump\t// in\n    tag_106:\n        /* \"#utility.yul\":2528:2650   */\n      swap1\n      pop\n        /* \"#utility.yul\":2376:2656   */\n      swap3\n      swap2\n      pop\n      pop\n      jump\t// out\n        /* \"#utility.yul\":2662:2770   */\n    tag_108:\n        /* \"#utility.yul\":2739:2763   */\n      tag_110\n        /* \"#utility.yul\":2757:2762   */\n      dup2\n        /* \"#utility.yul\":2739:2763   */\n      tag_111\n      jump\t// in\n    tag_110:\n        /* \"#utility.yul\":2734:2737   */\n      dup3\n        /* \"#utility.yul\":2727:2764   */\n      mstore\n        /* \"#utility.yul\":2662:2770   */\n      pop\n      pop\n      jump\t// out\n        /* \"#utility.yul\":2776:2894   */\n    tag_112:\n        /* \"#utility.yul\":2863:2887   */\n      tag_114\n        /* \"#utility.yul\":2881:2886   */\n      dup2\n        /* \"#utility.yul\":2863:2887   */\n      tag_111\n      jump\t// in\n    tag_114:\n        /* \"#utility.yul\":2858:2861   */\n      dup3\n        /* \"#utility.yul\":2851:2888   */\n      mstore\n        /* \"#utility.yul\":2776:2894   */\n      pop\n      pop\n      jump\t// out\n        /* \"#utility.yul\":2960:4119   */\n    tag_115:\n        /* \"#utility.yul\":3141:3144   */\n      0x00\n        /* \"#utility.yul\":3170:3255   */\n      tag_117\n        /* \"#utility.yul\":3249:3254   */\n      dup3\n        /* \"#utility.yul\":3170:3255   */\n      tag_118\n      jump\t// in\n    tag_117:\n        /* \"#utility.yul\":3271:3388   */\n      tag_119\n        /* \"#utility.yul\":3381:3387   */\n      dup2\n        /* \"#utility.yul\":3376:3379   */\n      dup6\n        /* \"#utility.yul\":3271:3388   */\n      tag_120\n      jump\t// in\n    tag_119:\n        /* \"#utility.yul\":3264:3388   */\n      swap4\n      pop\n        /* \"#utility.yul\":3414:3417   */\n      dup4\n        /* \"#utility.yul\":3459:3463   */\n      0x20\n        /* \"#utility.yul\":3451:3457   */\n      dup3\n        /* \"#utility.yul\":3447:3464   */\n      mul\n        /* \"#utility.yul\":3442:3445   */\n      dup6\n        /* \"#utility.yul\":3438:3465   */\n      add\n        /* \"#utility.yul\":3489:3576   */\n      tag_121\n        /* \"#utility.yul\":3570:3575   */\n      dup6\n        /* \"#utility.yul\":3489:3576   */\n      tag_122\n      jump\t// in\n    tag_121:\n        /* \"#utility.yul\":3599:3606   */\n      dup1\n        /* \"#utility.yul\":3630:3631   */\n      0x00\n        /* \"#utility.yul\":3615:4074   */\n    tag_123:\n        /* \"#utility.yul\":3640:3646   */\n      dup6\n        /* \"#utility.yul\":3637:3638   */\n      dup2\n        /* \"#utility.yul\":3634:3647   */\n      lt\n        /* \"#utility.yul\":3615:4074   */\n      iszero\n      tag_125\n      jumpi\n        /* \"#utility.yul\":3711:3720   */\n      dup5\n        /* \"#utility.yul\":3705:3709   */\n      dup5\n        /* \"#utility.yul\":3701:3721   */\n      sub\n        /* \"#utility.yul\":3696:3699   */\n      dup10\n        /* \"#utility.yul\":3689:3722   */\n      mstore\n        /* \"#utility.yul\":3762:3768   */\n      dup2\n        /* \"#utility.yul\":3756:3769   */\n      mload\n        /* \"#utility.yul\":3790:3916   */\n      tag_126\n        /* \"#utility.yul\":3911:3915   */\n      dup6\n        /* \"#utility.yul\":3896:3909   */\n      dup3\n        /* \"#utility.yul\":3790:3916   */\n      tag_104\n      jump\t// in\n    tag_126:\n        /* \"#utility.yul\":3782:3916   */\n      swap5\n      pop\n        /* \"#utility.yul\":3939:4030   */\n      tag_127\n        /* \"#utility.yul\":4023:4029   */\n      dup4\n        /* \"#utility.yul\":3939:4030   */\n      tag_128\n      jump\t// in\n    tag_127:\n        /* \"#utility.yul\":3929:4030   */\n      swap3\n      pop\n        /* \"#utility.yul\":4059:4063   */\n      0x20\n        /* \"#utility.yul\":4054:4057   */\n      dup11\n        /* \"#utility.yul\":4050:4064   */\n      add\n        /* \"#utility.yul\":4043:4064   */\n      swap10\n      pop\n        /* \"#utility.yul\":3675:4074   */\n      pop\n        /* \"#utility.yul\":3662:3663   */\n      0x01\n        /* \"#utility.yul\":3659:3660   */\n      dup2\n        /* \"#utility.yul\":3655:3664   */\n      add\n        /* \"#utility.yul\":3650:3664   */\n      swap1\n      pop\n        /* \"#utility.yul\":3615:4074   */\n      jump(tag_123)\n    tag_125:\n        /* \"#utility.yul\":3619:3633   */\n      pop\n        /* \"#utility.yul\":4090:4094   */\n      dup3\n        /* \"#utility.yul\":4083:4094   */\n      swap8\n      pop\n        /* \"#utility.yul\":4110:4113   */\n      dup8\n        /* \"#utility.yul\":4103:4113   */\n      swap6\n      pop\n        /* \"#utility.yul\":3146:4119   */\n      pop\n      pop\n      pop\n      pop\n      pop\n        /* \"#utility.yul\":2960:4119   */\n      swap3\n      swap2\n      pop\n      pop\n      jump\t// out\n        /* \"#utility.yul\":4125:4469   */\n    tag_129:\n        /* \"#utility.yul\":4203:4206   */\n      0x00\n        /* \"#utility.yul\":4231:4270   */\n      tag_131\n        /* \"#utility.yul\":4264:4269   */\n      dup3\n        /* \"#utility.yul\":4231:4270   */\n      tag_132\n      jump\t// in\n    tag_131:\n        /* \"#utility.yul\":4286:4347   */\n      tag_133\n        /* \"#utility.yul\":4340:4346   */\n      dup2\n        /* \"#utility.yul\":4335:4338   */\n      dup6\n        /* \"#utility.yul\":4286:4347   */\n      tag_134\n      jump\t// in\n    tag_133:\n        /* \"#utility.yul\":4279:4347   */\n      swap4\n      pop\n        /* \"#utility.yul\":4356:4408   */\n      tag_135\n        /* \"#utility.yul\":4401:4407   */\n      dup2\n        /* \"#utility.yul\":4396:4399   */\n      dup6\n        /* \"#utility.yul\":4389:4393   */\n      0x20\n        /* \"#utility.yul\":4382:4387   */\n      dup7\n        /* \"#utility.yul\":4378:4394   */\n      add\n        /* \"#utility.yul\":4356:4408   */\n      tag_136\n      jump\t// in\n    tag_135:\n        /* \"#utility.yul\":4433:4462   */\n      tag_137\n        /* \"#utility.yul\":4455:4461   */\n      dup2\n        /* \"#utility.yul\":4433:4462   */\n      tag_138\n      jump\t// in\n    tag_137:\n        /* \"#utility.yul\":4428:4431   */\n      dup5\n        /* \"#utility.yul\":4424:4463   */\n      add\n        /* \"#utility.yul\":4417:4463   */\n      swap2\n      pop\n        /* \"#utility.yul\":4207:4469   */\n      pop\n        /* \"#utility.yul\":4125:4469   */\n      swap3\n      swap2\n      pop\n      pop\n      jump\t// out\n        /* \"#utility.yul\":4475:4839   */\n    tag_139:\n        /* \"#utility.yul\":4563:4566   */\n      0x00\n        /* \"#utility.yul\":4591:4630   */\n      tag_141\n        /* \"#utility.yul\":4624:4629   */\n      dup3\n        /* \"#utility.yul\":4591:4630   */\n      tag_132\n      jump\t// in\n    tag_141:\n        /* \"#utility.yul\":4646:4717   */\n      tag_142\n        /* \"#utility.yul\":4710:4716   */\n      dup2\n        /* \"#utility.yul\":4705:4708   */\n      dup6\n        /* \"#utility.yul\":4646:4717   */\n      tag_143\n      jump\t// in\n    tag_142:\n        /* \"#utility.yul\":4639:4717   */\n      swap4\n      pop\n        /* \"#utility.yul\":4726:4778   */\n      tag_144\n        /* \"#utility.yul\":4771:4777   */\n      dup2\n        /* \"#utility.yul\":4766:4769   */\n      dup6\n        /* \"#utility.yul\":4759:4763   */\n      0x20\n        /* \"#utility.yul\":4752:4757   */\n      dup7\n        /* \"#utility.yul\":4748:4764   */\n      add\n        /* \"#utility.yul\":4726:4778   */\n      tag_136\n      jump\t// in\n    tag_144:\n        /* \"#utility.yul\":4803:4832   */\n      tag_145\n        /* \"#utility.yul\":4825:4831   */\n      dup2\n        /* \"#utility.yul\":4803:4832   */\n      tag_138\n      jump\t// in\n    tag_145:\n        /* \"#utility.yul\":4798:4801   */\n      dup5\n        /* \"#utility.yul\":4794:4833   */\n      add\n        /* \"#utility.yul\":4787:4833   */\n      swap2\n      pop\n        /* \"#utility.yul\":4567:4839   */\n      pop\n        /* \"#utility.yul\":4475:4839   */\n      swap3\n      swap2\n      pop\n      pop\n      jump\t// out\n        /* \"#utility.yul\":4901:6139   */\n    tag_107:\n        /* \"#utility.yul\":5022:5025   */\n      0x00\n        /* \"#utility.yul\":5058:5062   */\n      0xa0\n        /* \"#utility.yul\":5053:5056   */\n      dup4\n        /* \"#utility.yul\":5049:5063   */\n      add\n        /* \"#utility.yul\":5156:5160   */\n      0x00\n        /* \"#utility.yul\":5149:5154   */\n      dup4\n        /* \"#utility.yul\":5145:5161   */\n      add\n        /* \"#utility.yul\":5139:5162   */\n      mload\n        /* \"#utility.yul\":5175:5238   */\n      tag_147\n        /* \"#utility.yul\":5232:5236   */\n      0x00\n        /* \"#utility.yul\":5227:5230   */\n      dup7\n        /* \"#utility.yul\":5223:5237   */\n      add\n        /* \"#utility.yul\":5209:5221   */\n      dup3\n        /* \"#utility.yul\":5175:5238   */\n      tag_108\n      jump\t// in\n    tag_147:\n        /* \"#utility.yul\":5073:5248   */\n      pop\n        /* \"#utility.yul\":5331:5335   */\n      0x20\n        /* \"#utility.yul\":5324:5329   */\n      dup4\n        /* \"#utility.yul\":5320:5336   */\n      add\n        /* \"#utility.yul\":5314:5337   */\n      mload\n        /* \"#utility.yul\":5384:5387   */\n      dup5\n        /* \"#utility.yul\":5378:5382   */\n      dup3\n        /* \"#utility.yul\":5374:5388   */\n      sub\n        /* \"#utility.yul\":5367:5371   */\n      0x20\n        /* \"#utility.yul\":5362:5365   */\n      dup7\n        /* \"#utility.yul\":5358:5372   */\n      add\n        /* \"#utility.yul\":5351:5389   */\n      mstore\n        /* \"#utility.yul\":5410:5483   */\n      tag_148\n        /* \"#utility.yul\":5478:5482   */\n      dup3\n        /* \"#utility.yul\":5464:5476   */\n      dup3\n        /* \"#utility.yul\":5410:5483   */\n      tag_129\n      jump\t// in\n    tag_148:\n        /* \"#utility.yul\":5402:5483   */\n      swap2\n      pop\n        /* \"#utility.yul\":5258:5494   */\n      pop\n        /* \"#utility.yul\":5583:5587   */\n      0x40\n        /* \"#utility.yul\":5576:5581   */\n      dup4\n        /* \"#utility.yul\":5572:5588   */\n      add\n        /* \"#utility.yul\":5566:5589   */\n      mload\n        /* \"#utility.yul\":5636:5639   */\n      dup5\n        /* \"#utility.yul\":5630:5634   */\n      dup3\n        /* \"#utility.yul\":5626:5640   */\n      sub\n        /* \"#utility.yul\":5619:5623   */\n      0x40\n        /* \"#utility.yul\":5614:5617   */\n      dup7\n        /* \"#utility.yul\":5610:5624   */\n      add\n        /* \"#utility.yul\":5603:5641   */\n      mstore\n        /* \"#utility.yul\":5662:5735   */\n      tag_149\n        /* \"#utility.yul\":5730:5734   */\n      dup3\n        /* \"#utility.yul\":5716:5728   */\n      dup3\n        /* \"#utility.yul\":5662:5735   */\n      tag_129\n      jump\t// in\n    tag_149:\n        /* \"#utility.yul\":5654:5735   */\n      swap2\n      pop\n        /* \"#utility.yul\":5504:5746   */\n      pop\n        /* \"#utility.yul\":5831:5835   */\n      0x60\n        /* \"#utility.yul\":5824:5829   */\n      dup4\n        /* \"#utility.yul\":5820:5836   */\n      add\n        /* \"#utility.yul\":5814:5837   */\n      mload\n        /* \"#utility.yul\":5850:5913   */\n      tag_150\n        /* \"#utility.yul\":5907:5911   */\n      0x60\n        /* \"#utility.yul\":5902:5905   */\n      dup7\n        /* \"#utility.yul\":5898:5912   */\n      add\n        /* \"#utility.yul\":5884:5896   */\n      dup3\n        /* \"#utility.yul\":5850:5913   */\n      tag_108\n      jump\t// in\n    tag_150:\n        /* \"#utility.yul\":5756:5923   */\n      pop\n        /* \"#utility.yul\":6020:6024   */\n      0x80\n        /* \"#utility.yul\":6013:6018   */\n      dup4\n        /* \"#utility.yul\":6009:6025   */\n      add\n        /* \"#utility.yul\":6003:6026   */\n      mload\n        /* \"#utility.yul\":6039:6102   */\n      tag_151\n        /* \"#utility.yul\":6096:6100   */\n      0x80\n        /* \"#utility.yul\":6091:6094   */\n      dup7\n        /* \"#utility.yul\":6087:6101   */\n      add\n        /* \"#utility.yul\":6073:6085   */\n      dup3\n        /* \"#utility.yul\":6039:6102   */\n      tag_152\n      jump\t// in\n    tag_151:\n        /* \"#utility.yul\":5933:6112   */\n      pop\n        /* \"#utility.yul\":6129:6133   */\n      dup1\n        /* \"#utility.yul\":6122:6133   */\n      swap2\n      pop\n        /* \"#utility.yul\":5027:6139   */\n      pop\n        /* \"#utility.yul\":4901:6139   */\n      swap3\n      swap2\n      pop\n      pop\n      jump\t// out\n        /* \"#utility.yul\":6145:6253   */\n    tag_152:\n        /* \"#utility.yul\":6222:6246   */\n      tag_154\n        /* \"#utility.yul\":6240:6245   */\n      dup2\n        /* \"#utility.yul\":6222:6246   */\n      tag_155\n      jump\t// in\n    tag_154:\n        /* \"#utility.yul\":6217:6220   */\n      dup3\n        /* \"#utility.yul\":6210:6247   */\n      mstore\n        /* \"#utility.yul\":6145:6253   */\n      pop\n      pop\n      jump\t// out\n        /* \"#utility.yul\":6259:6377   */\n    tag_156:\n        /* \"#utility.yul\":6346:6370   */\n      tag_158\n        /* \"#utility.yul\":6364:6369   */\n      dup2\n        /* \"#utility.yul\":6346:6370   */\n      tag_155\n      jump\t// in\n    tag_158:\n        /* \"#utility.yul\":6341:6344   */\n      dup3\n        /* \"#utility.yul\":6334:6371   */\n      mstore\n        /* \"#utility.yul\":6259:6377   */\n      pop\n      pop\n      jump\t// out\n        /* \"#utility.yul\":6383:7229   */\n    tag_15:\n        /* \"#utility.yul\":6628:6632   */\n      0x00\n        /* \"#utility.yul\":6666:6669   */\n      0xa0\n        /* \"#utility.yul\":6655:6664   */\n      dup3\n        /* \"#utility.yul\":6651:6670   */\n      add\n        /* \"#utility.yul\":6643:6670   */\n      swap1\n      pop\n        /* \"#utility.yul\":6680:6751   */\n      tag_160\n        /* \"#utility.yul\":6748:6749   */\n      0x00\n        /* \"#utility.yul\":6737:6746   */\n      dup4\n        /* \"#utility.yul\":6733:6750   */\n      add\n        /* \"#utility.yul\":6724:6730   */\n      dup9\n        /* \"#utility.yul\":6680:6751   */\n      tag_112\n      jump\t// in\n    tag_160:\n        /* \"#utility.yul\":6798:6807   */\n      dup2\n        /* \"#utility.yul\":6792:6796   */\n      dup2\n        /* \"#utility.yul\":6788:6808   */\n      sub\n        /* \"#utility.yul\":6783:6785   */\n      0x20\n        /* \"#utility.yul\":6772:6781   */\n      dup4\n        /* \"#utility.yul\":6768:6786   */\n      add\n        /* \"#utility.yul\":6761:6809   */\n      mstore\n        /* \"#utility.yul\":6826:6904   */\n      tag_161\n        /* \"#utility.yul\":6899:6903   */\n      dup2\n        /* \"#utility.yul\":6890:6896   */\n      dup8\n        /* \"#utility.yul\":6826:6904   */\n      tag_139\n      jump\t// in\n    tag_161:\n        /* \"#utility.yul\":6818:6904   */\n      swap1\n      pop\n        /* \"#utility.yul\":6951:6960   */\n      dup2\n        /* \"#utility.yul\":6945:6949   */\n      dup2\n        /* \"#utility.yul\":6941:6961   */\n      sub\n        /* \"#utility.yul\":6936:6938   */\n      0x40\n        /* \"#utility.yul\":6925:6934   */\n      dup4\n        /* \"#utility.yul\":6921:6939   */\n      add\n        /* \"#utility.yul\":6914:6962   */\n      mstore\n        /* \"#utility.yul\":6979:7057   */\n      tag_162\n        /* \"#utility.yul\":7052:7056   */\n      dup2\n        /* \"#utility.yul\":7043:7049   */\n      dup7\n        /* \"#utility.yul\":6979:7057   */\n      tag_139\n      jump\t// in\n    tag_162:\n        /* \"#utility.yul\":6971:7057   */\n      swap1\n      pop\n        /* \"#utility.yul\":7067:7139   */\n      tag_163\n        /* \"#utility.yul\":7135:7137   */\n      0x60\n        /* \"#utility.yul\":7124:7133   */\n      dup4\n        /* \"#utility.yul\":7120:7138   */\n      add\n        /* \"#utility.yul\":7111:7117   */\n      dup6\n        /* \"#utility.yul\":7067:7139   */\n      tag_112\n      jump\t// in\n    tag_163:\n        /* \"#utility.yul\":7149:7222   */\n      tag_164\n        /* \"#utility.yul\":7217:7220   */\n      0x80\n        /* \"#utility.yul\":7206:7215   */\n      dup4\n        /* \"#utility.yul\":7202:7221   */\n      add\n        /* \"#utility.yul\":7193:7199   */\n      dup5\n        /* \"#utility.yul\":7149:7222   */\n      tag_156\n      jump\t// in\n    tag_164:\n        /* \"#utility.yul\":6383:7229   */\n      swap7\n      swap6\n      pop\n      pop\n      pop\n      pop\n      pop\n      pop\n      jump\t// out\n        /* \"#utility.yul\":7235:7732   */\n    tag_19:\n        /* \"#utility.yul\":7440:7444   */\n      0x00\n        /* \"#utility.yul\":7478:7480   */\n      0x20\n        /* \"#utility.yul\":7467:7476   */\n      dup3\n        /* \"#utility.yul\":7463:7481   */\n      add\n        /* \"#utility.yul\":7455:7481   */\n      swap1\n      pop\n        /* \"#utility.yul\":7527:7536   */\n      dup2\n        /* \"#utility.yul\":7521:7525   */\n      dup2\n        /* \"#utility.yul\":7517:7537   */\n      sub\n        /* \"#utility.yul\":7513:7514   */\n      0x00\n        /* \"#utility.yul\":7502:7511   */\n      dup4\n        /* \"#utility.yul\":7498:7515   */\n      add\n        /* \"#utility.yul\":7491:7538   */\n      mstore\n        /* \"#utility.yul\":7555:7725   */\n      tag_166\n        /* \"#utility.yul\":7720:7724   */\n      dup2\n        /* \"#utility.yul\":7711:7717   */\n      dup5\n        /* \"#utility.yul\":7555:7725   */\n      tag_115\n      jump\t// in\n    tag_166:\n        /* \"#utility.yul\":7547:7725   */\n      swap1\n      pop\n        /* \"#utility.yul\":7235:7732   */\n      swap3\n      swap2\n      pop\n      pop\n      jump\t// out\n        /* \"#utility.yul\":7738:8070   */\n    tag_24:\n        /* \"#utility.yul\":7859:7863   */\n      0x00\n        /* \"#utility.yul\":7897:7899   */\n      0x40\n        /* \"#utility.yul\":7886:7895   */\n      dup3\n        /* \"#utility.yul\":7882:7900   */\n      add\n        /* \"#utility.yul\":7874:7900   */\n      swap1\n      pop\n        /* \"#utility.yul\":7910:7981   */\n      tag_168\n        /* \"#utility.yul\":7978:7979   */\n      0x00\n        /* \"#utility.yul\":7967:7976   */\n      dup4\n        /* \"#utility.yul\":7963:7980   */\n      add\n        /* \"#utility.yul\":7954:7960   */\n      dup6\n        /* \"#utility.yul\":7910:7981   */\n      tag_156\n      jump\t// in\n    tag_168:\n        /* \"#utility.yul\":7991:8063   */\n      tag_169\n        /* \"#utility.yul\":8059:8061   */\n      0x20\n        /* \"#utility.yul\":8048:8057   */\n      dup4\n        /* \"#utility.yul\":8044:8062   */\n      add\n        /* \"#utility.yul\":8035:8041   */\n      dup5\n        /* \"#utility.yul\":7991:8063   */\n      tag_112\n      jump\t// in\n    tag_169:\n        /* \"#utility.yul\":7738:8070   */\n      swap4\n      swap3\n      pop\n      pop\n      pop\n      jump\t// out\n        /* \"#utility.yul\":8157:8320   */\n    tag_122:\n        /* \"#utility.yul\":8255:8259   */\n      0x00\n        /* \"#utility.yul\":8278:8281   */\n      dup2\n        /* \"#utility.yul\":8270:8281   */\n      swap1\n      pop\n        /* \"#utility.yul\":8308:8312   */\n      0x20\n        /* \"#utility.yul\":8303:8306   */\n      dup3\n        /* \"#utility.yul\":8299:8313   */\n      add\n        /* \"#utility.yul\":8291:8313   */\n      swap1\n      pop\n        /* \"#utility.yul\":8157:8320   */\n      swap2\n      swap1\n      pop\n      jump\t// out\n        /* \"#utility.yul\":8326:8471   */\n    tag_118:\n        /* \"#utility.yul\":8424:8430   */\n      0x00\n        /* \"#utility.yul\":8458:8463   */\n      dup2\n        /* \"#utility.yul\":8452:8464   */\n      mload\n        /* \"#utility.yul\":8442:8464   */\n      swap1\n      pop\n        /* \"#utility.yul\":8326:8471   */\n      swap2\n      swap1\n      pop\n      jump\t// out\n        /* \"#utility.yul\":8477:8576   */\n    tag_132:\n        /* \"#utility.yul\":8529:8535   */\n      0x00\n        /* \"#utility.yul\":8563:8568   */\n      dup2\n        /* \"#utility.yul\":8557:8569   */\n      mload\n        /* \"#utility.yul\":8547:8569   */\n      swap1\n      pop\n        /* \"#utility.yul\":8477:8576   */\n      swap2\n      swap1\n      pop\n      jump\t// out\n        /* \"#utility.yul\":8582:8726   */\n    tag_128:\n        /* \"#utility.yul\":8683:8687   */\n      0x00\n        /* \"#utility.yul\":8715:8719   */\n      0x20\n        /* \"#utility.yul\":8710:8713   */\n      dup3\n        /* \"#utility.yul\":8706:8720   */\n      add\n        /* \"#utility.yul\":8698:8720   */\n      swap1\n      pop\n        /* \"#utility.yul\":8582:8726   */\n      swap2\n      swap1\n      pop\n      jump\t// out\n        /* \"#utility.yul\":8732:8947   */\n    tag_120:\n        /* \"#utility.yul\":8862:8873   */\n      0x00\n        /* \"#utility.yul\":8896:8902   */\n      dup3\n        /* \"#utility.yul\":8891:8894   */\n      dup3\n        /* \"#utility.yul\":8884:8903   */\n      mstore\n        /* \"#utility.yul\":8936:8940   */\n      0x20\n        /* \"#utility.yul\":8931:8934   */\n      dup3\n        /* \"#utility.yul\":8927:8941   */\n      add\n        /* \"#utility.yul\":8912:8941   */\n      swap1\n      pop\n        /* \"#utility.yul\":8732:8947   */\n      swap3\n      swap2\n      pop\n      pop\n      jump\t// out\n        /* \"#utility.yul\":8953:9112   */\n    tag_134:\n        /* \"#utility.yul\":9027:9038   */\n      0x00\n        /* \"#utility.yul\":9061:9067   */\n      dup3\n        /* \"#utility.yul\":9056:9059   */\n      dup3\n        /* \"#utility.yul\":9049:9068   */\n      mstore\n        /* \"#utility.yul\":9101:9105   */\n      0x20\n        /* \"#utility.yul\":9096:9099   */\n      dup3\n        /* \"#utility.yul\":9092:9106   */\n      add\n        /* \"#utility.yul\":9077:9106   */\n      swap1\n      pop\n        /* \"#utility.yul\":8953:9112   */\n      swap3\n      swap2\n      pop\n      pop\n      jump\t// out\n        /* \"#utility.yul\":9118:9287   */\n    tag_143:\n        /* \"#utility.yul\":9202:9213   */\n      0x00\n        /* \"#utility.yul\":9236:9242   */\n      dup3\n        /* \"#utility.yul\":9231:9234   */\n      dup3\n        /* \"#utility.yul\":9224:9243   */\n      mstore\n        /* \"#utility.yul\":9276:9280   */\n      0x20\n        /* \"#utility.yul\":9271:9274   */\n      dup3\n        /* \"#utility.yul\":9267:9281   */\n      add\n        /* \"#utility.yul\":9252:9281   */\n      swap1\n      pop\n        /* \"#utility.yul\":9118:9287   */\n      swap3\n      swap2\n      pop\n      pop\n      jump\t// out\n        /* \"#utility.yul\":9293:9389   */\n    tag_111:\n        /* \"#utility.yul\":9330:9337   */\n      0x00\n        /* \"#utility.yul\":9359:9383   */\n      tag_180\n        /* \"#utility.yul\":9377:9382   */\n      dup3\n        /* \"#utility.yul\":9359:9383   */\n      tag_181\n      jump\t// in\n    tag_180:\n        /* \"#utility.yul\":9348:9383   */\n      swap1\n      pop\n        /* \"#utility.yul\":9293:9389   */\n      swap2\n      swap1\n      pop\n      jump\t// out\n        /* \"#utility.yul\":9395:9521   */\n    tag_181:\n        /* \"#utility.yul\":9432:9439   */\n      0x00\n        /* \"#utility.yul\":9472:9514   */\n      0xffffffffffffffffffffffffffffffffffffffff\n        /* \"#utility.yul\":9465:9470   */\n      dup3\n        /* \"#utility.yul\":9461:9515   */\n      and\n        /* \"#utility.yul\":9450:9515   */\n      swap1\n      pop\n        /* \"#utility.yul\":9395:9521   */\n      swap2\n      swap1\n      pop\n      jump\t// out\n        /* \"#utility.yul\":9527:9604   */\n    tag_155:\n        /* \"#utility.yul\":9564:9571   */\n      0x00\n        /* \"#utility.yul\":9593:9598   */\n      dup2\n        /* \"#utility.yul\":9582:9598   */\n      swap1\n      pop\n        /* \"#utility.yul\":9527:9604   */\n      swap2\n      swap1\n      pop\n      jump\t// out\n        /* \"#utility.yul\":9610:9917   */\n    tag_136:\n        /* \"#utility.yul\":9678:9679   */\n      0x00\n        /* \"#utility.yul\":9688:9801   */\n    tag_185:\n        /* \"#utility.yul\":9702:9708   */\n      dup4\n        /* \"#utility.yul\":9699:9700   */\n      dup2\n        /* \"#utility.yul\":9696:9709   */\n      lt\n        /* \"#utility.yul\":9688:9801   */\n      iszero\n      tag_187\n      jumpi\n        /* \"#utility.yul\":9787:9788   */\n      dup1\n        /* \"#utility.yul\":9782:9785   */\n      dup3\n        /* \"#utility.yul\":9778:9789   */\n      add\n        /* \"#utility.yul\":9772:9790   */\n      mload\n        /* \"#utility.yul\":9768:9769   */\n      dup2\n        /* \"#utility.yul\":9763:9766   */\n      dup5\n        /* \"#utility.yul\":9759:9770   */\n      add\n        /* \"#utility.yul\":9752:9791   */\n      mstore\n        /* \"#utility.yul\":9724:9726   */\n      0x20\n        /* \"#utility.yul\":9721:9722   */\n      dup2\n        /* \"#utility.yul\":9717:9727   */\n      add\n        /* \"#utility.yul\":9712:9727   */\n      swap1\n      pop\n        /* \"#utility.yul\":9688:9801   */\n      jump(tag_185)\n    tag_187:\n        /* \"#utility.yul\":9819:9825   */\n      dup4\n        /* \"#utility.yul\":9816:9817   */\n      dup2\n        /* \"#utility.yul\":9813:9826   */\n      gt\n        /* \"#utility.yul\":9810:9911   */\n      iszero\n      tag_188\n      jumpi\n        /* \"#utility.yul\":9899:9900   */\n      0x00\n        /* \"#utility.yul\":9890:9896   */\n      dup5\n        /* \"#utility.yul\":9885:9888   */\n      dup5\n        /* \"#utility.yul\":9881:9897   */\n      add\n        /* \"#utility.yul\":9874:9901   */\n      mstore\n        /* \"#utility.yul\":9810:9911   */\n    tag_188:\n        /* \"#utility.yul\":9659:9917   */\n      pop\n        /* \"#utility.yul\":9610:9917   */\n      pop\n      pop\n      pop\n      jump\t// out\n        /* \"#utility.yul\":9923:10243   */\n    tag_33:\n        /* \"#utility.yul\":9967:9973   */\n      0x00\n        /* \"#utility.yul\":10004:10005   */\n      0x02\n        /* \"#utility.yul\":9998:10002   */\n      dup3\n        /* \"#utility.yul\":9994:10006   */\n      div\n        /* \"#utility.yul\":9984:10006   */\n      swap1\n      pop\n        /* \"#utility.yul\":10051:10052   */\n      0x01\n        /* \"#utility.yul\":10045:10049   */\n      dup3\n        /* \"#utility.yul\":10041:10053   */\n      and\n        /* \"#utility.yul\":10072:10090   */\n      dup1\n        /* \"#utility.yul\":10062:10143   */\n      tag_190\n      jumpi\n        /* \"#utility.yul\":10128:10132   */\n      0x7f\n        /* \"#utility.yul\":10120:10126   */\n      dup3\n        /* \"#utility.yul\":10116:10133   */\n      and\n        /* \"#utility.yul\":10106:10133   */\n      swap2\n      pop\n        /* \"#utility.yul\":10062:10143   */\n    tag_190:\n        /* \"#utility.yul\":10190:10192   */\n      0x20\n        /* \"#utility.yul\":10182:10188   */\n      dup3\n        /* \"#utility.yul\":10179:10193   */\n      lt\n        /* \"#utility.yul\":10159:10177   */\n      dup2\n        /* \"#utility.yul\":10156:10194   */\n      eq\n        /* \"#utility.yul\":10153:10237   */\n      iszero\n      tag_191\n      jumpi\n        /* \"#utility.yul\":10209:10227   */\n      tag_192\n      tag_193\n      jump\t// in\n    tag_192:\n        /* \"#utility.yul\":10153:10237   */\n    tag_191:\n        /* \"#utility.yul\":9974:10243   */\n      pop\n        /* \"#utility.yul\":9923:10243   */\n      swap2\n      swap1\n      pop\n      jump\t// out\n        /* \"#utility.yul\":10249:10429   */\n    tag_193:\n        /* \"#utility.yul\":10297:10374   */\n      0x4e487b7100000000000000000000000000000000000000000000000000000000\n        /* \"#utility.yul\":10294:10295   */\n      0x00\n        /* \"#utility.yul\":10287:10375   */\n      mstore\n        /* \"#utility.yul\":10394:10398   */\n      0x22\n        /* \"#utility.yul\":10391:10392   */\n      0x04\n        /* \"#utility.yul\":10384:10399   */\n      mstore\n        /* \"#utility.yul\":10418:10422   */\n      0x24\n        /* \"#utility.yul\":10415:10416   */\n      0x00\n        /* \"#utility.yul\":10408:10423   */\n      revert\n        /* \"#utility.yul\":10435:10552   */\n    tag_79:\n        /* \"#utility.yul\":10544:10545   */\n      0x00\n        /* \"#utility.yul\":10541:10542   */\n      dup1\n        /* \"#utility.yul\":10534:10546   */\n      revert\n        /* \"#utility.yul\":10558:10675   */\n    tag_76:\n        /* \"#utility.yul\":10667:10668   */\n      0x00\n        /* \"#utility.yul\":10664:10665   */\n      dup1\n        /* \"#utility.yul\":10657:10669   */\n      revert\n        /* \"#utility.yul\":10681:10798   */\n    tag_82:\n        /* \"#utility.yul\":10790:10791   */\n      0x00\n        /* \"#utility.yul\":10787:10788   */\n      dup1\n        /* \"#utility.yul\":10780:10792   */\n      revert\n        /* \"#utility.yul\":10804:10921   */\n    tag_93:\n        /* \"#utility.yul\":10913:10914   */\n      0x00\n        /* \"#utility.yul\":10910:10911   */\n      dup1\n        /* \"#utility.yul\":10903:10915   */\n      revert\n        /* \"#utility.yul\":10927:11044   */\n    tag_90:\n        /* \"#utility.yul\":11036:11037   */\n      0x00\n        /* \"#utility.yul\":11033:11034   */\n      dup1\n        /* \"#utility.yul\":11026:11038   */\n      revert\n        /* \"#utility.yul\":11050:11152   */\n    tag_138:\n        /* \"#utility.yul\":11091:11097   */\n      0x00\n        /* \"#utility.yul\":11142:11144   */\n      0x1f\n        /* \"#utility.yul\":11138:11145   */\n      not\n        /* \"#utility.yul\":11133:11135   */\n      0x1f\n        /* \"#utility.yul\":11126:11131   */\n      dup4\n        /* \"#utility.yul\":11122:11136   */\n      add\n        /* \"#utility.yul\":11118:11146   */\n      and\n        /* \"#utility.yul\":11108:11146   */\n      swap1\n      pop\n        /* \"#utility.yul\":11050:11152   */\n      swap2\n      swap1\n      pop\n      jump\t// out\n        /* \"#utility.yul\":11158:11280   */\n    tag_71:\n        /* \"#utility.yul\":11231:11255   */\n      tag_202\n        /* \"#utility.yul\":11249:11254   */\n      dup2\n        /* \"#utility.yul\":11231:11255   */\n      tag_111\n      jump\t// in\n    tag_202:\n        /* \"#utility.yul\":11224:11229   */\n      dup2\n        /* \"#utility.yul\":11221:11256   */\n      eq\n        /* \"#utility.yul\":11211:11274   */\n      tag_203\n      jumpi\n        /* \"#utility.yul\":11270:11271   */\n      0x00\n        /* \"#utility.yul\":11267:11268   */\n      dup1\n        /* \"#utility.yul\":11260:11272   */\n      revert\n        /* \"#utility.yul\":11211:11274   */\n    tag_203:\n        /* \"#utility.yul\":11158:11280   */\n      pop\n      jump\t// out\n        /* \"#utility.yul\":11286:11408   */\n    tag_86:\n        /* \"#utility.yul\":11359:11383   */\n      tag_205\n        /* \"#utility.yul\":11377:11382   */\n      dup2\n        /* \"#utility.yul\":11359:11383   */\n      tag_155\n      jump\t// in\n    tag_205:\n        /* \"#utility.yul\":11352:11357   */\n      dup2\n        /* \"#utility.yul\":11349:11384   */\n      eq\n        /* \"#utility.yul\":11339:11402   */\n      tag_206\n      jumpi\n        /* \"#utility.yul\":11398:11399   */\n      0x00\n        /* \"#utility.yul\":11395:11396   */\n      dup1\n        /* \"#utility.yul\":11388:11400   */\n      revert\n        /* \"#utility.yul\":11339:11402   */\n    tag_206:\n        /* \"#utility.yul\":11286:11408   */\n      pop\n      jump\t// out\n    stop\n\n    sub_0: assembly {\n            /* \"test.sol\":1248:3525  contract Campaign {... */\n          mstore(0x40, 0x80)\n            /* \"test.sol\":1623:1742  constructor(uint256 minimum, address creator) {... */\n          callvalue\n          dup1\n          iszero\n          tag_1\n          jumpi\n          0x00\n          dup1\n          revert\n        tag_1:\n          pop\n          mload(0x40)\n          sub(codesize, bytecodeSize)\n          dup1\n          bytecodeSize\n          dup4\n          codecopy\n          dup2\n          dup2\n          add\n          0x40\n          mstore\n          dup2\n          add\n          swap1\n          tag_2\n          swap2\n          swap1\n          tag_3\n          jump\t// in\n        tag_2:\n            /* \"test.sol\":1689:1696  creator */\n          dup1\n            /* \"test.sol\":1679:1686  manager */\n          0x02\n          0x00\n            /* \"test.sol\":1679:1696  manager = creator */\n          0x0100\n          exp\n          dup2\n          sload\n          dup2\n          0xffffffffffffffffffffffffffffffffffffffff\n          mul\n          not\n          and\n          swap1\n          dup4\n          0xffffffffffffffffffffffffffffffffffffffff\n          and\n          mul\n          or\n          swap1\n          sstore\n          pop\n            /* \"test.sol\":1728:1735  minimum */\n          dup2\n            /* \"test.sol\":1706:1725  minimumContribution */\n          0x03\n            /* \"test.sol\":1706:1735  minimumContribution = minimum */\n          dup2\n          swap1\n          sstore\n          pop\n            /* \"test.sol\":1623:1742  constructor(uint256 minimum, address creator) {... */\n          pop\n          pop\n            /* \"test.sol\":1248:3525  contract Campaign {... */\n          jump(tag_6)\n            /* \"#utility.yul\":7:150   */\n        tag_8:\n            /* \"#utility.yul\":64:69   */\n          0x00\n            /* \"#utility.yul\":95:101   */\n          dup2\n            /* \"#utility.yul\":89:102   */\n          mload\n            /* \"#utility.yul\":80:102   */\n          swap1\n          pop\n            /* \"#utility.yul\":111:144   */\n          tag_10\n            /* \"#utility.yul\":138:143   */\n          dup2\n            /* \"#utility.yul\":111:144   */\n          tag_11\n          jump\t// in\n        tag_10:\n            /* \"#utility.yul\":7:150   */\n          swap3\n          swap2\n          pop\n          pop\n          jump\t// out\n            /* \"#utility.yul\":156:299   */\n        tag_12:\n            /* \"#utility.yul\":213:218   */\n          0x00\n            /* \"#utility.yul\":244:250   */\n          dup2\n            /* \"#utility.yul\":238:251   */\n          mload\n            /* \"#utility.yul\":229:251   */\n          swap1\n          pop\n            /* \"#utility.yul\":260:293   */\n          tag_14\n            /* \"#utility.yul\":287:292   */\n          dup2\n            /* \"#utility.yul\":260:293   */\n          tag_15\n          jump\t// in\n        tag_14:\n            /* \"#utility.yul\":156:299   */\n          swap3\n          swap2\n          pop\n          pop\n          jump\t// out\n            /* \"#utility.yul\":305:812   */\n        tag_3:\n            /* \"#utility.yul\":384:390   */\n          0x00\n            /* \"#utility.yul\":392:398   */\n          dup1\n            /* \"#utility.yul\":441:443   */\n          0x40\n            /* \"#utility.yul\":429:438   */\n          dup4\n            /* \"#utility.yul\":420:427   */\n          dup6\n            /* \"#utility.yul\":416:439   */\n          sub\n            /* \"#utility.yul\":412:444   */\n          slt\n            /* \"#utility.yul\":409:528   */\n          iszero\n          tag_17\n          jumpi\n            /* \"#utility.yul\":447:526   */\n          tag_18\n          tag_19\n          jump\t// in\n        tag_18:\n            /* \"#utility.yul\":409:528   */\n        tag_17:\n            /* \"#utility.yul\":567:568   */\n          0x00\n            /* \"#utility.yul\":592:656   */\n          tag_20\n            /* \"#utility.yul\":648:655   */\n          dup6\n            /* \"#utility.yul\":639:645   */\n          dup3\n            /* \"#utility.yul\":628:637   */\n          dup7\n            /* \"#utility.yul\":624:646   */\n          add\n            /* \"#utility.yul\":592:656   */\n          tag_12\n          jump\t// in\n        tag_20:\n            /* \"#utility.yul\":582:656   */\n          swap3\n          pop\n            /* \"#utility.yul\":538:666   */\n          pop\n            /* \"#utility.yul\":705:707   */\n          0x20\n            /* \"#utility.yul\":731:795   */\n          tag_21\n            /* \"#utility.yul\":787:794   */\n          dup6\n            /* \"#utility.yul\":778:784   */\n          dup3\n            /* \"#utility.yul\":767:776   */\n          dup7\n            /* \"#utility.yul\":763:785   */\n          add\n            /* \"#utility.yul\":731:795   */\n          tag_8\n          jump\t// in\n        tag_21:\n            /* \"#utility.yul\":721:795   */\n          swap2\n          pop\n            /* \"#utility.yul\":676:805   */\n          pop\n            /* \"#utility.yul\":305:812   */\n          swap3\n          pop\n          swap3\n          swap1\n          pop\n          jump\t// out\n            /* \"#utility.yul\":899:995   */\n        tag_24:\n            /* \"#utility.yul\":936:943   */\n          0x00\n            /* \"#utility.yul\":965:989   */\n          tag_26\n            /* \"#utility.yul\":983:988   */\n          dup3\n            /* \"#utility.yul\":965:989   */\n          tag_27\n          jump\t// in\n        tag_26:\n            /* \"#utility.yul\":954:989   */\n          swap1\n          pop\n            /* \"#utility.yul\":899:995   */\n          swap2\n          swap1\n          pop\n          jump\t// out\n            /* \"#utility.yul\":1001:1127   */\n        tag_27:\n            /* \"#utility.yul\":1038:1045   */\n          0x00\n            /* \"#utility.yul\":1078:1120   */\n          0xffffffffffffffffffffffffffffffffffffffff\n            /* \"#utility.yul\":1071:1076   */\n          dup3\n            /* \"#utility.yul\":1067:1121   */\n          and\n            /* \"#utility.yul\":1056:1121   */\n          swap1\n          pop\n            /* \"#utility.yul\":1001:1127   */\n          swap2\n          swap1\n          pop\n          jump\t// out\n            /* \"#utility.yul\":1133:1210   */\n        tag_29:\n            /* \"#utility.yul\":1170:1177   */\n          0x00\n            /* \"#utility.yul\":1199:1204   */\n          dup2\n            /* \"#utility.yul\":1188:1204   */\n          swap1\n          pop\n            /* \"#utility.yul\":1133:1210   */\n          swap2\n          swap1\n          pop\n          jump\t// out\n            /* \"#utility.yul\":1339:1456   */\n        tag_19:\n            /* \"#utility.yul\":1448:1449   */\n          0x00\n            /* \"#utility.yul\":1445:1446   */\n          dup1\n            /* \"#utility.yul\":1438:1450   */\n          revert\n            /* \"#utility.yul\":1462:1584   */\n        tag_11:\n            /* \"#utility.yul\":1535:1559   */\n          tag_35\n            /* \"#utility.yul\":1553:1558   */\n          dup2\n            /* \"#utility.yul\":1535:1559   */\n          tag_24\n          jump\t// in\n        tag_35:\n            /* \"#utility.yul\":1528:1533   */\n          dup2\n            /* \"#utility.yul\":1525:1560   */\n          eq\n            /* \"#utility.yul\":1515:1578   */\n          tag_36\n          jumpi\n            /* \"#utility.yul\":1574:1575   */\n          0x00\n            /* \"#utility.yul\":1571:1572   */\n          dup1\n            /* \"#utility.yul\":1564:1576   */\n          revert\n            /* \"#utility.yul\":1515:1578   */\n        tag_36:\n            /* \"#utility.yul\":1462:1584   */\n          pop\n          jump\t// out\n            /* \"#utility.yul\":1590:1712   */\n        tag_15:\n            /* \"#utility.yul\":1663:1687   */\n          tag_38\n            /* \"#utility.yul\":1681:1686   */\n          dup2\n            /* \"#utility.yul\":1663:1687   */\n          tag_29\n          jump\t// in\n        tag_38:\n            /* \"#utility.yul\":1656:1661   */\n          dup2\n            /* \"#utility.yul\":1653:1688   */\n          eq\n            /* \"#utility.yul\":1643:1706   */\n          tag_39\n          jumpi\n            /* \"#utility.yul\":1702:1703   */\n          0x00\n            /* \"#utility.yul\":1699:1700   */\n          dup1\n            /* \"#utility.yul\":1692:1704   */\n          revert\n            /* \"#utility.yul\":1643:1706   */\n        tag_39:\n            /* \"#utility.yul\":1590:1712   */\n          pop\n          jump\t// out\n            /* \"test.sol\":1248:3525  contract Campaign {... */\n        tag_6:\n          dataSize(sub_0)\n          dup1\n          dataOffset(sub_0)\n          0x00\n          codecopy\n          0x00\n          return\n        stop\n\n        sub_0: assembly {\n                /* \"test.sol\":1248:3525  contract Campaign {... */\n              mstore(0x40, 0x80)\n              jumpi(tag_1, lt(calldatasize, 0x04))\n              shr(0xe0, calldataload(0x00))\n              dup1\n              0x81d12c58\n              gt\n              tag_13\n              jumpi\n              dup1\n              0x81d12c58\n              eq\n              tag_7\n              jumpi\n              dup1\n              0x82fde093\n              eq\n              tag_8\n              jumpi\n              dup1\n              0x8a9cfd55\n              eq\n              tag_9\n              jumpi\n              dup1\n              0x937e09b1\n              eq\n              tag_10\n              jumpi\n              dup1\n              0xd7bb99ba\n              eq\n              tag_11\n              jumpi\n              dup1\n              0xd7d1bbdb\n              eq\n              tag_12\n              jumpi\n              jump(tag_1)\n            tag_13:\n              dup1\n              0x03441006\n              eq\n              tag_2\n              jumpi\n              dup1\n              0x0a144391\n              eq\n              tag_3\n              jumpi\n              dup1\n              0x3410452a\n              eq\n              tag_4\n              jumpi\n              dup1\n              0x4051ddac\n              eq\n              tag_5\n              jumpi\n              dup1\n              0x481c6a75\n              eq\n              tag_6\n              jumpi\n            tag_1:\n              0x00\n              dup1\n              revert\n                /* \"test.sol\":2749:3052  function finalizeRequest(uint256 index) external restricted {... */\n            tag_2:\n              callvalue\n              dup1\n              iszero\n              tag_14\n              jumpi\n              0x00\n              dup1\n              revert\n            tag_14:\n              pop\n              tag_15\n              0x04\n              dup1\n              calldatasize\n              sub\n              dup2\n              add\n              swap1\n              tag_16\n              swap2\n              swap1\n              tag_17\n              jump\t// in\n            tag_16:\n              tag_18\n              jump\t// in\n            tag_15:\n              stop\n                /* \"test.sol\":1424:1465  mapping(address => bool) public approvers */\n            tag_3:\n              callvalue\n              dup1\n              iszero\n              tag_19\n              jumpi\n              0x00\n              dup1\n              revert\n            tag_19:\n              pop\n              tag_20\n              0x04\n              dup1\n              calldatasize\n              sub\n              dup2\n              add\n              swap1\n              tag_21\n              swap2\n              swap1\n              tag_22\n              jump\t// in\n            tag_21:\n              tag_23\n              jump\t// in\n            tag_20:\n              mload(0x40)\n              tag_24\n              swap2\n              swap1\n              tag_25\n              jump\t// in\n            tag_24:\n              mload(0x40)\n              dup1\n              swap2\n              sub\n              swap1\n              return\n                /* \"test.sol\":3429:3523  function getRequestsCount() public view returns (uint256) {... */\n            tag_4:\n              callvalue\n              dup1\n              iszero\n              tag_26\n              jumpi\n              0x00\n              dup1\n              revert\n            tag_26:\n              pop\n              tag_27\n              tag_28\n              jump\t// in\n            tag_27:\n              mload(0x40)\n              tag_29\n              swap2\n              swap1\n              tag_30\n              jump\t// in\n            tag_29:\n              mload(0x40)\n              dup1\n              swap2\n              sub\n              swap1\n              return\n                /* \"test.sol\":3058:3423  function getSummary()... */\n            tag_5:\n              callvalue\n              dup1\n              iszero\n              tag_31\n              jumpi\n              0x00\n              dup1\n              revert\n            tag_31:\n              pop\n              tag_32\n              tag_33\n              jump\t// in\n            tag_32:\n              mload(0x40)\n              tag_34\n              swap6\n              swap5\n              swap4\n              swap3\n              swap2\n              swap1\n              tag_35\n              jump\t// in\n            tag_34:\n              mload(0x40)\n              dup1\n              swap2\n              sub\n              swap1\n              return\n                /* \"test.sol\":1356:1378  address public manager */\n            tag_6:\n              callvalue\n              dup1\n              iszero\n              tag_36\n              jumpi\n              0x00\n              dup1\n              revert\n            tag_36:\n              pop\n              tag_37\n              tag_38\n              jump\t// in\n            tag_37:\n              mload(0x40)\n              tag_39\n              swap2\n              swap1\n              tag_40\n              jump\t// in\n            tag_39:\n              mload(0x40)\n              dup1\n              swap2\n              sub\n              swap1\n              return\n                /* \"test.sol\":1272:1315  mapping(uint256 => Request) public requests */\n            tag_7:\n              callvalue\n              dup1\n              iszero\n              tag_41\n              jumpi\n              0x00\n              dup1\n              revert\n            tag_41:\n              pop\n              tag_42\n              0x04\n              dup1\n              calldatasize\n              sub\n              dup2\n              add\n              swap1\n              tag_43\n              swap2\n              swap1\n              tag_17\n              jump\t// in\n            tag_43:\n              tag_44\n              jump\t// in\n            tag_42:\n              mload(0x40)\n              tag_45\n              swap6\n              swap5\n              swap4\n              swap3\n              swap2\n              swap1\n              tag_46\n              jump\t// in\n            tag_45:\n              mload(0x40)\n              dup1\n              swap2\n              sub\n              swap1\n              return\n                /* \"test.sol\":1471:1500  uint256 public approversCount */\n            tag_8:\n              callvalue\n              dup1\n              iszero\n              tag_47\n              jumpi\n              0x00\n              dup1\n              revert\n            tag_47:\n              pop\n              tag_48\n              tag_49\n              jump\t// in\n            tag_48:\n              mload(0x40)\n              tag_50\n              swap2\n              swap1\n              tag_30\n              jump\t// in\n            tag_50:\n              mload(0x40)\n              dup1\n              swap2\n              sub\n              swap1\n              return\n                /* \"test.sol\":1915:2352  function createRequest(... */\n            tag_9:\n              callvalue\n              dup1\n              iszero\n              tag_51\n              jumpi\n              0x00\n              dup1\n              revert\n            tag_51:\n              pop\n              tag_52\n              0x04\n              dup1\n              calldatasize\n              sub\n              dup2\n              add\n              swap1\n              tag_53\n              swap2\n              swap1\n              tag_54\n              jump\t// in\n            tag_53:\n              tag_55\n              jump\t// in\n            tag_52:\n              stop\n                /* \"test.sol\":1384:1418  uint256 public minimumContribution */\n            tag_10:\n              callvalue\n              dup1\n              iszero\n              tag_56\n              jumpi\n              0x00\n              dup1\n              revert\n            tag_56:\n              pop\n              tag_57\n              tag_58\n              jump\t// in\n            tag_57:\n              mload(0x40)\n              tag_59\n              swap2\n              swap1\n              tag_30\n              jump\t// in\n            tag_59:\n              mload(0x40)\n              dup1\n              swap2\n              sub\n              swap1\n              return\n                /* \"test.sol\":1748:1909  function contribute() external payable {... */\n            tag_11:\n              tag_60\n              tag_61\n              jump\t// in\n            tag_60:\n              stop\n                /* \"test.sol\":2358:2743  function approveRequest(uint256 index) external {... */\n            tag_12:\n              callvalue\n              dup1\n              iszero\n              tag_62\n              jumpi\n              0x00\n              dup1\n              revert\n            tag_62:\n              pop\n              tag_63\n              0x04\n              dup1\n              calldatasize\n              sub\n              dup2\n              add\n              swap1\n              tag_64\n              swap2\n              swap1\n              tag_17\n              jump\t// in\n            tag_64:\n              tag_65\n              jump\t// in\n            tag_63:\n              stop\n                /* \"test.sol\":2749:3052  function finalizeRequest(uint256 index) external restricted {... */\n            tag_18:\n                /* \"test.sol\":1561:1568  manager */\n              0x02\n              0x00\n              swap1\n              sload\n              swap1\n              0x0100\n              exp\n              swap1\n              div\n              0xffffffffffffffffffffffffffffffffffffffff\n              and\n                /* \"test.sol\":1547:1568  msg.sender == manager */\n              0xffffffffffffffffffffffffffffffffffffffff\n              and\n                /* \"test.sol\":1547:1557  msg.sender */\n              caller\n                /* \"test.sol\":1547:1568  msg.sender == manager */\n              0xffffffffffffffffffffffffffffffffffffffff\n              and\n              eq\n                /* \"test.sol\":1539:1599  require(msg.sender == manager, \"Only manager can call this\") */\n              tag_67\n              jumpi\n              mload(0x40)\n              0x08c379a000000000000000000000000000000000000000000000000000000000\n              dup2\n              mstore\n              0x04\n              add\n              tag_68\n              swap1\n              tag_69\n              jump\t// in\n            tag_68:\n              mload(0x40)\n              dup1\n              swap2\n              sub\n              swap1\n              revert\n            tag_67:\n                /* \"test.sol\":2819:2842  Request storage request */\n              0x00\n                /* \"test.sol\":2845:2853  requests */\n              dup1\n                /* \"test.sol\":2845:2860  requests[index] */\n              0x00\n                /* \"test.sol\":2854:2859  index */\n              dup4\n                /* \"test.sol\":2845:2860  requests[index] */\n              dup2\n              mstore\n              0x20\n              add\n              swap1\n              dup2\n              mstore\n              0x20\n              add\n              0x00\n              keccak256\n                /* \"test.sol\":2819:2860  Request storage request = requests[index] */\n              swap1\n              pop\n                /* \"test.sol\":2921:2922  2 */\n              0x02\n                /* \"test.sol\":2904:2918  approversCount */\n              sload(0x05)\n                /* \"test.sol\":2904:2922  approversCount / 2 */\n              tag_71\n              swap2\n              swap1\n              tag_72\n              jump\t// in\n            tag_71:\n                /* \"test.sol\":2879:2886  request */\n              dup2\n                /* \"test.sol\":2879:2900  request.approvalCount */\n              0x03\n              add\n              sload\n                /* \"test.sol\":2879:2923  request.approvalCount > (approversCount / 2) */\n              gt\n                /* \"test.sol\":2871:2924  require(request.approvalCount > (approversCount / 2)) */\n              tag_73\n              jumpi\n              0x00\n              dup1\n              revert\n            tag_73:\n                /* \"test.sol\":2943:2950  request */\n              dup1\n                /* \"test.sol\":2943:2959  request.complete */\n              0x02\n              add\n              0x14\n              swap1\n              sload\n              swap1\n              0x0100\n              exp\n              swap1\n              div\n              0xff\n              and\n                /* \"test.sol\":2942:2959  !request.complete */\n              iszero\n                /* \"test.sol\":2934:2960  require(!request.complete) */\n              tag_74\n              jumpi\n              0x00\n              dup1\n              revert\n            tag_74:\n                /* \"test.sol\":2971:2978  request */\n              dup1\n                /* \"test.sol\":2971:2988  request.recipient */\n              0x02\n              add\n              0x00\n              swap1\n              sload\n              swap1\n              0x0100\n              exp\n              swap1\n              div\n              0xffffffffffffffffffffffffffffffffffffffff\n              and\n                /* \"test.sol\":2971:2997  request.recipient.transfer */\n              0xffffffffffffffffffffffffffffffffffffffff\n              and\n                /* \"test.sol\":2971:3012  request.recipient.transfer(request.value) */\n              0x08fc\n                /* \"test.sol\":2998:3005  request */\n              dup3\n                /* \"test.sol\":2998:3011  request.value */\n              0x01\n              add\n              sload\n                /* \"test.sol\":2971:3012  request.recipient.transfer(request.value) */\n              swap1\n              dup2\n              iszero\n              mul\n              swap1\n              mload(0x40)\n              0x00\n              mload(0x40)\n              dup1\n              dup4\n              sub\n              dup2\n              dup6\n              dup9\n              dup9\n              call\n              swap4\n              pop\n              pop\n              pop\n              pop\n              iszero\n              dup1\n              iszero\n              tag_76\n              jumpi\n              returndatasize\n              0x00\n              dup1\n              returndatacopy\n              revert(0x00, returndatasize)\n            tag_76:\n              pop\n                /* \"test.sol\":3041:3045  true */\n              0x01\n                /* \"test.sol\":3022:3029  request */\n              dup2\n                /* \"test.sol\":3022:3038  request.complete */\n              0x02\n              add\n              0x14\n                /* \"test.sol\":3022:3045  request.complete = true */\n              0x0100\n              exp\n              dup2\n              sload\n              dup2\n              0xff\n              mul\n              not\n              and\n              swap1\n              dup4\n              iszero\n              iszero\n              mul\n              or\n              swap1\n              sstore\n              pop\n                /* \"test.sol\":2809:3052  {... */\n              pop\n                /* \"test.sol\":2749:3052  function finalizeRequest(uint256 index) external restricted {... */\n              pop\n              jump\t// out\n                /* \"test.sol\":1424:1465  mapping(address => bool) public approvers */\n            tag_23:\n              mstore(0x20, 0x04)\n              dup1\n              0x00\n              mstore\n              keccak256(0x00, 0x40)\n              0x00\n              swap2\n              pop\n              sload\n              swap1\n              0x0100\n              exp\n              swap1\n              div\n              0xff\n              and\n              dup2\n              jump\t// out\n                /* \"test.sol\":3429:3523  function getRequestsCount() public view returns (uint256) {... */\n            tag_28:\n                /* \"test.sol\":3478:3485  uint256 */\n              0x00\n                /* \"test.sol\":3504:3516  currentIndex */\n              sload(0x01)\n                /* \"test.sol\":3497:3516  return currentIndex */\n              swap1\n              pop\n                /* \"test.sol\":3429:3523  function getRequestsCount() public view returns (uint256) {... */\n              swap1\n              jump\t// out\n                /* \"test.sol\":3058:3423  function getSummary()... */\n            tag_33:\n                /* \"test.sol\":3140:3147  uint256 */\n              0x00\n                /* \"test.sol\":3161:3168  uint256 */\n              dup1\n                /* \"test.sol\":3182:3189  uint256 */\n              0x00\n                /* \"test.sol\":3203:3210  uint256 */\n              dup1\n                /* \"test.sol\":3224:3231  address */\n              0x00\n                /* \"test.sol\":3277:3296  minimumContribution */\n              sload(0x03)\n                /* \"test.sol\":3310:3331  address(this).balance */\n              selfbalance\n                /* \"test.sol\":3345:3357  currentIndex */\n              sload(0x01)\n                /* \"test.sol\":3371:3385  approversCount */\n              sload(0x05)\n                /* \"test.sol\":3399:3406  manager */\n              0x02\n              0x00\n              swap1\n              sload\n              swap1\n              0x0100\n              exp\n              swap1\n              div\n              0xffffffffffffffffffffffffffffffffffffffff\n              and\n                /* \"test.sol\":3256:3416  return (... */\n              swap5\n              pop\n              swap5\n              pop\n              swap5\n              pop\n              swap5\n              pop\n              swap5\n              pop\n                /* \"test.sol\":3058:3423  function getSummary()... */\n              swap1\n              swap2\n              swap3\n              swap4\n              swap5\n              jump\t// out\n                /* \"test.sol\":1356:1378  address public manager */\n            tag_38:\n              0x02\n              0x00\n              swap1\n              sload\n              swap1\n              0x0100\n              exp\n              swap1\n              div\n              0xffffffffffffffffffffffffffffffffffffffff\n              and\n              dup2\n              jump\t// out\n                /* \"test.sol\":1272:1315  mapping(uint256 => Request) public requests */\n            tag_44:\n              mstore(0x20, 0x00)\n              dup1\n              0x00\n              mstore\n              keccak256(0x00, 0x40)\n              0x00\n              swap2\n              pop\n              swap1\n              pop\n              dup1\n              0x00\n              add\n              dup1\n              sload\n              tag_79\n              swap1\n              tag_80\n              jump\t// in\n            tag_79:\n              dup1\n              0x1f\n              add\n              0x20\n              dup1\n              swap2\n              div\n              mul\n              0x20\n              add\n              mload(0x40)\n              swap1\n              dup2\n              add\n              0x40\n              mstore\n              dup1\n              swap3\n              swap2\n              swap1\n              dup2\n              dup2\n              mstore\n              0x20\n              add\n              dup3\n              dup1\n              sload\n              tag_81\n              swap1\n              tag_80\n              jump\t// in\n            tag_81:\n              dup1\n              iszero\n              tag_82\n              jumpi\n              dup1\n              0x1f\n              lt\n              tag_83\n              jumpi\n              0x0100\n              dup1\n              dup4\n              sload\n              div\n              mul\n              dup4\n              mstore\n              swap2\n              0x20\n              add\n              swap2\n              jump(tag_82)\n            tag_83:\n              dup3\n              add\n              swap2\n              swap1\n              0x00\n              mstore\n              keccak256(0x00, 0x20)\n              swap1\n            tag_84:\n              dup2\n              sload\n              dup2\n              mstore\n              swap1\n              0x01\n              add\n              swap1\n              0x20\n              add\n              dup1\n              dup4\n              gt\n              tag_84\n              jumpi\n              dup3\n              swap1\n              sub\n              0x1f\n              and\n              dup3\n              add\n              swap2\n            tag_82:\n              pop\n              pop\n              pop\n              pop\n              pop\n              swap1\n              dup1\n              0x01\n              add\n              sload\n              swap1\n              dup1\n              0x02\n              add\n              0x00\n              swap1\n              sload\n              swap1\n              0x0100\n              exp\n              swap1\n              div\n              0xffffffffffffffffffffffffffffffffffffffff\n              and\n              swap1\n              dup1\n              0x02\n              add\n              0x14\n              swap1\n              sload\n              swap1\n              0x0100\n              exp\n              swap1\n              div\n              0xff\n              and\n              swap1\n              dup1\n              0x03\n              add\n              sload\n              swap1\n              pop\n              dup6\n              jump\t// out\n                /* \"test.sol\":1471:1500  uint256 public approversCount */\n            tag_49:\n              sload(0x05)\n              dup2\n              jump\t// out\n                /* \"test.sol\":1915:2352  function createRequest(... */\n            tag_55:\n                /* \"test.sol\":1561:1568  manager */\n              0x02\n              0x00\n              swap1\n              sload\n              swap1\n              0x0100\n              exp\n              swap1\n              div\n              0xffffffffffffffffffffffffffffffffffffffff\n              and\n                /* \"test.sol\":1547:1568  msg.sender == manager */\n              0xffffffffffffffffffffffffffffffffffffffff\n              and\n                /* \"test.sol\":1547:1557  msg.sender */\n              caller\n                /* \"test.sol\":1547:1568  msg.sender == manager */\n              0xffffffffffffffffffffffffffffffffffffffff\n              and\n              eq\n                /* \"test.sol\":1539:1599  require(msg.sender == manager, \"Only manager can call this\") */\n              tag_86\n              jumpi\n              mload(0x40)\n              0x08c379a000000000000000000000000000000000000000000000000000000000\n              dup2\n              mstore\n              0x04\n              add\n              tag_87\n              swap1\n              tag_69\n              jump\t// in\n            tag_87:\n              mload(0x40)\n              dup1\n              swap2\n              sub\n              swap1\n              revert\n            tag_86:\n                /* \"test.sol\":2071:2097  Request storage newRequest */\n              0x00\n                /* \"test.sol\":2100:2108  requests */\n              dup1\n                /* \"test.sol\":2100:2122  requests[currentIndex] */\n              0x00\n                /* \"test.sol\":2109:2121  currentIndex */\n              sload(0x01)\n                /* \"test.sol\":2100:2122  requests[currentIndex] */\n              dup2\n              mstore\n              0x20\n              add\n              swap1\n              dup2\n              mstore\n              0x20\n              add\n              0x00\n              keccak256\n                /* \"test.sol\":2071:2122  Request storage newRequest = requests[currentIndex] */\n              swap1\n              pop\n                /* \"test.sol\":2157:2168  _descripton */\n              dup5\n              dup5\n                /* \"test.sol\":2132:2142  newRequest */\n              dup3\n                /* \"test.sol\":2132:2154  newRequest.description */\n              0x00\n              add\n                /* \"test.sol\":2132:2168  newRequest.description = _descripton */\n              swap2\n              swap1\n              tag_89\n              swap3\n              swap2\n              swap1\n              tag_90\n              jump\t// in\n            tag_89:\n              pop\n                /* \"test.sol\":2197:2203  _value */\n              dup3\n                /* \"test.sol\":2178:2188  newRequest */\n              dup2\n                /* \"test.sol\":2178:2194  newRequest.value */\n              0x01\n              add\n                /* \"test.sol\":2178:2203  newRequest.value = _value */\n              dup2\n              swap1\n              sstore\n              pop\n                /* \"test.sol\":2236:2246  _recipient */\n              dup2\n                /* \"test.sol\":2213:2223  newRequest */\n              dup2\n                /* \"test.sol\":2213:2233  newRequest.recipient */\n              0x02\n              add\n              0x00\n                /* \"test.sol\":2213:2246  newRequest.recipient = _recipient */\n              0x0100\n              exp\n              dup2\n              sload\n              dup2\n              0xffffffffffffffffffffffffffffffffffffffff\n              mul\n              not\n              and\n              swap1\n              dup4\n              0xffffffffffffffffffffffffffffffffffffffff\n              and\n              mul\n              or\n              swap1\n              sstore\n              pop\n                /* \"test.sol\":2278:2283  false */\n              0x00\n                /* \"test.sol\":2256:2266  newRequest */\n              dup2\n                /* \"test.sol\":2256:2275  newRequest.complete */\n              0x02\n              add\n              0x14\n                /* \"test.sol\":2256:2283  newRequest.complete = false */\n              0x0100\n              exp\n              dup2\n              sload\n              dup2\n              0xff\n              mul\n              not\n              and\n              swap1\n              dup4\n              iszero\n              iszero\n              mul\n              or\n              swap1\n              sstore\n              pop\n                /* \"test.sol\":2320:2321  0 */\n              0x00\n                /* \"test.sol\":2293:2303  newRequest */\n              dup2\n                /* \"test.sol\":2293:2317  newRequest.approvalCount */\n              0x03\n              add\n                /* \"test.sol\":2293:2321  newRequest.approvalCount = 0 */\n              dup2\n              swap1\n              sstore\n              pop\n                /* \"test.sol\":2331:2343  currentIndex */\n              0x01\n              0x00\n                /* \"test.sol\":2331:2345  currentIndex++ */\n              dup2\n              sload\n              dup1\n              swap3\n              swap2\n              swap1\n              tag_91\n              swap1\n              tag_92\n              jump\t// in\n            tag_91:\n              swap2\n              swap1\n              pop\n              sstore\n              pop\n                /* \"test.sol\":2061:2352  {... */\n              pop\n                /* \"test.sol\":1915:2352  function createRequest(... */\n              pop\n              pop\n              pop\n              pop\n              jump\t// out\n                /* \"test.sol\":1384:1418  uint256 public minimumContribution */\n            tag_58:\n              sload(0x03)\n              dup2\n              jump\t// out\n                /* \"test.sol\":1748:1909  function contribute() external payable {... */\n            tag_61:\n                /* \"test.sol\":1817:1836  minimumContribution */\n              sload(0x03)\n                /* \"test.sol\":1805:1814  msg.value */\n              callvalue\n                /* \"test.sol\":1805:1836  msg.value > minimumContribution */\n              gt\n                /* \"test.sol\":1797:1837  require(msg.value > minimumContribution) */\n              tag_94\n              jumpi\n              0x00\n              dup1\n              revert\n            tag_94:\n                /* \"test.sol\":1872:1876  true */\n              0x01\n                /* \"test.sol\":1848:1857  approvers */\n              0x04\n                /* \"test.sol\":1848:1869  approvers[msg.sender] */\n              0x00\n                /* \"test.sol\":1858:1868  msg.sender */\n              caller\n                /* \"test.sol\":1848:1869  approvers[msg.sender] */\n              0xffffffffffffffffffffffffffffffffffffffff\n              and\n              0xffffffffffffffffffffffffffffffffffffffff\n              and\n              dup2\n              mstore\n              0x20\n              add\n              swap1\n              dup2\n              mstore\n              0x20\n              add\n              0x00\n              keccak256\n              0x00\n                /* \"test.sol\":1848:1876  approvers[msg.sender] = true */\n              0x0100\n              exp\n              dup2\n              sload\n              dup2\n              0xff\n              mul\n              not\n              and\n              swap1\n              dup4\n              iszero\n              iszero\n              mul\n              or\n              swap1\n              sstore\n              pop\n                /* \"test.sol\":1886:1900  approversCount */\n              0x05\n              0x00\n                /* \"test.sol\":1886:1902  approversCount++ */\n              dup2\n              sload\n              dup1\n              swap3\n              swap2\n              swap1\n              tag_95\n              swap1\n              tag_92\n              jump\t// in\n            tag_95:\n              swap2\n              swap1\n              pop\n              sstore\n              pop\n                /* \"test.sol\":1748:1909  function contribute() external payable {... */\n              jump\t// out\n                /* \"test.sol\":2358:2743  function approveRequest(uint256 index) external {... */\n            tag_65:\n                /* \"test.sol\":2416:2439  Request storage request */\n              0x00\n                /* \"test.sol\":2442:2450  requests */\n              dup1\n                /* \"test.sol\":2442:2457  requests[index] */\n              0x00\n                /* \"test.sol\":2451:2456  index */\n              dup4\n                /* \"test.sol\":2442:2457  requests[index] */\n              dup2\n              mstore\n              0x20\n              add\n              swap1\n              dup2\n              mstore\n              0x20\n              add\n              0x00\n              keccak256\n                /* \"test.sol\":2416:2457  Request storage request = requests[index] */\n              swap1\n              pop\n                /* \"test.sol\":2476:2485  approvers */\n              0x04\n                /* \"test.sol\":2476:2497  approvers[msg.sender] */\n              0x00\n                /* \"test.sol\":2486:2496  msg.sender */\n              caller\n                /* \"test.sol\":2476:2497  approvers[msg.sender] */\n              0xffffffffffffffffffffffffffffffffffffffff\n              and\n              0xffffffffffffffffffffffffffffffffffffffff\n              and\n              dup2\n              mstore\n              0x20\n              add\n              swap1\n              dup2\n              mstore\n              0x20\n              add\n              0x00\n              keccak256\n              0x00\n              swap1\n              sload\n              swap1\n              0x0100\n              exp\n              swap1\n              div\n              0xff\n              and\n                /* \"test.sol\":2468:2534  require(approvers[msg.sender], \"Only a doner approve the request\") */\n              tag_97\n              jumpi\n              mload(0x40)\n              0x08c379a000000000000000000000000000000000000000000000000000000000\n              dup2\n              mstore\n              0x04\n              add\n              tag_98\n              swap1\n              tag_99\n              jump\t// in\n            tag_98:\n              mload(0x40)\n              dup1\n              swap2\n              sub\n              swap1\n              revert\n            tag_97:\n                /* \"test.sol\":2566:2573  request */\n              dup1\n                /* \"test.sol\":2566:2583  request.approvals */\n              0x04\n              add\n                /* \"test.sol\":2566:2595  request.approvals[msg.sender] */\n              0x00\n                /* \"test.sol\":2584:2594  msg.sender */\n              caller\n                /* \"test.sol\":2566:2595  request.approvals[msg.sender] */\n              0xffffffffffffffffffffffffffffffffffffffff\n              and\n              0xffffffffffffffffffffffffffffffffffffffff\n              and\n              dup2\n              mstore\n              0x20\n              add\n              swap1\n              dup2\n              mstore\n              0x20\n              add\n              0x00\n              keccak256\n              0x00\n              swap1\n              sload\n              swap1\n              0x0100\n              exp\n              swap1\n              div\n              0xff\n              and\n                /* \"test.sol\":2565:2595  !request.approvals[msg.sender] */\n              iszero\n                /* \"test.sol\":2544:2656  require(... */\n              tag_100\n              jumpi\n              mload(0x40)\n              0x08c379a000000000000000000000000000000000000000000000000000000000\n              dup2\n              mstore\n              0x04\n              add\n              tag_101\n              swap1\n              tag_102\n              jump\t// in\n            tag_101:\n              mload(0x40)\n              dup1\n              swap2\n              sub\n              swap1\n              revert\n            tag_100:\n                /* \"test.sol\":2699:2703  true */\n              0x01\n                /* \"test.sol\":2667:2674  request */\n              dup2\n                /* \"test.sol\":2667:2684  request.approvals */\n              0x04\n              add\n                /* \"test.sol\":2667:2696  request.approvals[msg.sender] */\n              0x00\n                /* \"test.sol\":2685:2695  msg.sender */\n              caller\n                /* \"test.sol\":2667:2696  request.approvals[msg.sender] */\n              0xffffffffffffffffffffffffffffffffffffffff\n              and\n              0xffffffffffffffffffffffffffffffffffffffff\n              and\n              dup2\n              mstore\n              0x20\n              add\n              swap1\n              dup2\n              mstore\n              0x20\n              add\n              0x00\n              keccak256\n              0x00\n                /* \"test.sol\":2667:2703  request.approvals[msg.sender] = true */\n              0x0100\n              exp\n              dup2\n              sload\n              dup2\n              0xff\n              mul\n              not\n              and\n              swap1\n              dup4\n              iszero\n              iszero\n              mul\n              or\n              swap1\n              sstore\n              pop\n                /* \"test.sol\":2713:2720  request */\n              dup1\n                /* \"test.sol\":2713:2734  request.approvalCount */\n              0x03\n              add\n              0x00\n                /* \"test.sol\":2713:2736  request.approvalCount++ */\n              dup2\n              sload\n              dup1\n              swap3\n              swap2\n              swap1\n              tag_103\n              swap1\n              tag_92\n              jump\t// in\n            tag_103:\n              swap2\n              swap1\n              pop\n              sstore\n              pop\n                /* \"test.sol\":2406:2743  {... */\n              pop\n                /* \"test.sol\":2358:2743  function approveRequest(uint256 index) external {... */\n              pop\n              jump\t// out\n            tag_90:\n              dup3\n              dup1\n              sload\n              tag_104\n              swap1\n              tag_80\n              jump\t// in\n            tag_104:\n              swap1\n              0x00\n              mstore\n              keccak256(0x00, 0x20)\n              swap1\n              0x1f\n              add\n              0x20\n              swap1\n              div\n              dup2\n              add\n              swap3\n              dup3\n              tag_106\n              jumpi\n              0x00\n              dup6\n              sstore\n              jump(tag_105)\n            tag_106:\n              dup3\n              0x1f\n              lt\n              tag_107\n              jumpi\n              dup1\n              calldataload\n              not(0xff)\n              and\n              dup4\n              dup1\n              add\n              or\n              dup6\n              sstore\n              jump(tag_105)\n            tag_107:\n              dup3\n              dup1\n              add\n              0x01\n              add\n              dup6\n              sstore\n              dup3\n              iszero\n              tag_105\n              jumpi\n              swap2\n              dup3\n              add\n            tag_108:\n              dup3\n              dup2\n              gt\n              iszero\n              tag_109\n              jumpi\n              dup3\n              calldataload\n              dup3\n              sstore\n              swap2\n              0x20\n              add\n              swap2\n              swap1\n              0x01\n              add\n              swap1\n              jump(tag_108)\n            tag_109:\n            tag_105:\n              pop\n              swap1\n              pop\n              tag_110\n              swap2\n              swap1\n              tag_111\n              jump\t// in\n            tag_110:\n              pop\n              swap1\n              jump\t// out\n            tag_111:\n            tag_112:\n              dup1\n              dup3\n              gt\n              iszero\n              tag_113\n              jumpi\n              0x00\n              dup2\n              0x00\n              swap1\n              sstore\n              pop\n              0x01\n              add\n              jump(tag_112)\n            tag_113:\n              pop\n              swap1\n              jump\t// out\n                /* \"#utility.yul\":7:146   */\n            tag_115:\n                /* \"#utility.yul\":53:58   */\n              0x00\n                /* \"#utility.yul\":91:97   */\n              dup2\n                /* \"#utility.yul\":78:98   */\n              calldataload\n                /* \"#utility.yul\":69:98   */\n              swap1\n              pop\n                /* \"#utility.yul\":107:140   */\n              tag_117\n                /* \"#utility.yul\":134:139   */\n              dup2\n                /* \"#utility.yul\":107:140   */\n              tag_118\n              jump\t// in\n            tag_117:\n                /* \"#utility.yul\":7:146   */\n              swap3\n              swap2\n              pop\n              pop\n              jump\t// out\n                /* \"#utility.yul\":152:307   */\n            tag_119:\n                /* \"#utility.yul\":206:211   */\n              0x00\n                /* \"#utility.yul\":244:250   */\n              dup2\n                /* \"#utility.yul\":231:251   */\n              calldataload\n                /* \"#utility.yul\":222:251   */\n              swap1\n              pop\n                /* \"#utility.yul\":260:301   */\n              tag_121\n                /* \"#utility.yul\":295:300   */\n              dup2\n                /* \"#utility.yul\":260:301   */\n              tag_122\n              jump\t// in\n            tag_121:\n                /* \"#utility.yul\":152:307   */\n              swap3\n              swap2\n              pop\n              pop\n              jump\t// out\n                /* \"#utility.yul\":327:880   */\n            tag_123:\n                /* \"#utility.yul\":385:393   */\n              0x00\n                /* \"#utility.yul\":395:401   */\n              dup1\n                /* \"#utility.yul\":445:448   */\n              dup4\n                /* \"#utility.yul\":438:442   */\n              0x1f\n                /* \"#utility.yul\":430:436   */\n              dup5\n                /* \"#utility.yul\":426:443   */\n              add\n                /* \"#utility.yul\":422:449   */\n              slt\n                /* \"#utility.yul\":412:534   */\n              tag_125\n              jumpi\n                /* \"#utility.yul\":453:532   */\n              tag_126\n              tag_127\n              jump\t// in\n            tag_126:\n                /* \"#utility.yul\":412:534   */\n            tag_125:\n                /* \"#utility.yul\":566:572   */\n              dup3\n                /* \"#utility.yul\":553:573   */\n              calldataload\n                /* \"#utility.yul\":543:573   */\n              swap1\n              pop\n                /* \"#utility.yul\":596:614   */\n              0xffffffffffffffff\n                /* \"#utility.yul\":588:594   */\n              dup2\n                /* \"#utility.yul\":585:615   */\n              gt\n                /* \"#utility.yul\":582:699   */\n              iszero\n              tag_128\n              jumpi\n                /* \"#utility.yul\":618:697   */\n              tag_129\n              tag_130\n              jump\t// in\n            tag_129:\n                /* \"#utility.yul\":582:699   */\n            tag_128:\n                /* \"#utility.yul\":732:736   */\n              0x20\n                /* \"#utility.yul\":724:730   */\n              dup4\n                /* \"#utility.yul\":720:737   */\n              add\n                /* \"#utility.yul\":708:737   */\n              swap2\n              pop\n                /* \"#utility.yul\":786:789   */\n              dup4\n                /* \"#utility.yul\":778:782   */\n              0x01\n                /* \"#utility.yul\":770:776   */\n              dup3\n                /* \"#utility.yul\":766:783   */\n              mul\n                /* \"#utility.yul\":756:764   */\n              dup4\n                /* \"#utility.yul\":752:784   */\n              add\n                /* \"#utility.yul\":749:790   */\n              gt\n                /* \"#utility.yul\":746:874   */\n              iszero\n              tag_131\n              jumpi\n                /* \"#utility.yul\":793:872   */\n              tag_132\n              tag_133\n              jump\t// in\n            tag_132:\n                /* \"#utility.yul\":746:874   */\n            tag_131:\n                /* \"#utility.yul\":327:880   */\n              swap3\n              pop\n              swap3\n              swap1\n              pop\n              jump\t// out\n                /* \"#utility.yul\":886:1025   */\n            tag_134:\n                /* \"#utility.yul\":932:937   */\n              0x00\n                /* \"#utility.yul\":970:976   */\n              dup2\n                /* \"#utility.yul\":957:977   */\n              calldataload\n                /* \"#utility.yul\":948:977   */\n              swap1\n              pop\n                /* \"#utility.yul\":986:1019   */\n              tag_136\n                /* \"#utility.yul\":1013:1018   */\n              dup2\n                /* \"#utility.yul\":986:1019   */\n              tag_137\n              jump\t// in\n            tag_136:\n                /* \"#utility.yul\":886:1025   */\n              swap3\n              swap2\n              pop\n              pop\n              jump\t// out\n                /* \"#utility.yul\":1031:1360   */\n            tag_22:\n                /* \"#utility.yul\":1090:1096   */\n              0x00\n                /* \"#utility.yul\":1139:1141   */\n              0x20\n                /* \"#utility.yul\":1127:1136   */\n              dup3\n                /* \"#utility.yul\":1118:1125   */\n              dup5\n                /* \"#utility.yul\":1114:1137   */\n              sub\n                /* \"#utility.yul\":1110:1142   */\n              slt\n                /* \"#utility.yul\":1107:1226   */\n              iszero\n              tag_139\n              jumpi\n                /* \"#utility.yul\":1145:1224   */\n              tag_140\n              tag_141\n              jump\t// in\n            tag_140:\n                /* \"#utility.yul\":1107:1226   */\n            tag_139:\n                /* \"#utility.yul\":1265:1266   */\n              0x00\n                /* \"#utility.yul\":1290:1343   */\n              tag_142\n                /* \"#utility.yul\":1335:1342   */\n              dup5\n                /* \"#utility.yul\":1326:1332   */\n              dup3\n                /* \"#utility.yul\":1315:1324   */\n              dup6\n                /* \"#utility.yul\":1311:1333   */\n              add\n                /* \"#utility.yul\":1290:1343   */\n              tag_115\n              jump\t// in\n            tag_142:\n                /* \"#utility.yul\":1280:1343   */\n              swap2\n              pop\n                /* \"#utility.yul\":1236:1353   */\n              pop\n                /* \"#utility.yul\":1031:1360   */\n              swap3\n              swap2\n              pop\n              pop\n              jump\t// out\n                /* \"#utility.yul\":1366:2201   */\n            tag_54:\n                /* \"#utility.yul\":1463:1469   */\n              0x00\n                /* \"#utility.yul\":1471:1477   */\n              dup1\n                /* \"#utility.yul\":1479:1485   */\n              0x00\n                /* \"#utility.yul\":1487:1493   */\n              dup1\n                /* \"#utility.yul\":1536:1538   */\n              0x60\n                /* \"#utility.yul\":1524:1533   */\n              dup6\n                /* \"#utility.yul\":1515:1522   */\n              dup8\n                /* \"#utility.yul\":1511:1534   */\n              sub\n                /* \"#utility.yul\":1507:1539   */\n              slt\n                /* \"#utility.yul\":1504:1623   */\n              iszero\n              tag_144\n              jumpi\n                /* \"#utility.yul\":1542:1621   */\n              tag_145\n              tag_141\n              jump\t// in\n            tag_145:\n                /* \"#utility.yul\":1504:1623   */\n            tag_144:\n                /* \"#utility.yul\":1690:1691   */\n              0x00\n                /* \"#utility.yul\":1679:1688   */\n              dup6\n                /* \"#utility.yul\":1675:1692   */\n              add\n                /* \"#utility.yul\":1662:1693   */\n              calldataload\n                /* \"#utility.yul\":1720:1738   */\n              0xffffffffffffffff\n                /* \"#utility.yul\":1712:1718   */\n              dup2\n                /* \"#utility.yul\":1709:1739   */\n              gt\n                /* \"#utility.yul\":1706:1823   */\n              iszero\n              tag_146\n              jumpi\n                /* \"#utility.yul\":1742:1821   */\n              tag_147\n              tag_148\n              jump\t// in\n            tag_147:\n                /* \"#utility.yul\":1706:1823   */\n            tag_146:\n                /* \"#utility.yul\":1855:1920   */\n              tag_149\n                /* \"#utility.yul\":1912:1919   */\n              dup8\n                /* \"#utility.yul\":1903:1909   */\n              dup3\n                /* \"#utility.yul\":1892:1901   */\n              dup9\n                /* \"#utility.yul\":1888:1910   */\n              add\n                /* \"#utility.yul\":1855:1920   */\n              tag_123\n              jump\t// in\n            tag_149:\n                /* \"#utility.yul\":1837:1920   */\n              swap5\n              pop\n              swap5\n              pop\n                /* \"#utility.yul\":1633:1930   */\n              pop\n                /* \"#utility.yul\":1969:1971   */\n              0x20\n                /* \"#utility.yul\":1995:2048   */\n              tag_150\n                /* \"#utility.yul\":2040:2047   */\n              dup8\n                /* \"#utility.yul\":2031:2037   */\n              dup3\n                /* \"#utility.yul\":2020:2029   */\n              dup9\n                /* \"#utility.yul\":2016:2038   */\n              add\n                /* \"#utility.yul\":1995:2048   */\n              tag_134\n              jump\t// in\n            tag_150:\n                /* \"#utility.yul\":1985:2048   */\n              swap3\n              pop\n                /* \"#utility.yul\":1940:2058   */\n              pop\n                /* \"#utility.yul\":2097:2099   */\n              0x40\n                /* \"#utility.yul\":2123:2184   */\n              tag_151\n                /* \"#utility.yul\":2176:2183   */\n              dup8\n                /* \"#utility.yul\":2167:2173   */\n              dup3\n                /* \"#utility.yul\":2156:2165   */\n              dup9\n                /* \"#utility.yul\":2152:2174   */\n              add\n                /* \"#utility.yul\":2123:2184   */\n              tag_119\n              jump\t// in\n            tag_151:\n                /* \"#utility.yul\":2113:2184   */\n              swap2\n              pop\n                /* \"#utility.yul\":2068:2194   */\n              pop\n                /* \"#utility.yul\":1366:2201   */\n              swap3\n              swap6\n              swap2\n              swap5\n              pop\n              swap3\n              pop\n              jump\t// out\n                /* \"#utility.yul\":2207:2536   */\n            tag_17:\n                /* \"#utility.yul\":2266:2272   */\n              0x00\n                /* \"#utility.yul\":2315:2317   */\n              0x20\n                /* \"#utility.yul\":2303:2312   */\n              dup3\n                /* \"#utility.yul\":2294:2301   */\n              dup5\n                /* \"#utility.yul\":2290:2313   */\n              sub\n                /* \"#utility.yul\":2286:2318   */\n              slt\n                /* \"#utility.yul\":2283:2402   */\n              iszero\n              tag_153\n              jumpi\n                /* \"#utility.yul\":2321:2400   */\n              tag_154\n              tag_141\n              jump\t// in\n            tag_154:\n                /* \"#utility.yul\":2283:2402   */\n            tag_153:\n                /* \"#utility.yul\":2441:2442   */\n              0x00\n                /* \"#utility.yul\":2466:2519   */\n              tag_155\n                /* \"#utility.yul\":2511:2518   */\n              dup5\n                /* \"#utility.yul\":2502:2508   */\n              dup3\n                /* \"#utility.yul\":2491:2500   */\n              dup6\n                /* \"#utility.yul\":2487:2509   */\n              add\n                /* \"#utility.yul\":2466:2519   */\n              tag_134\n              jump\t// in\n            tag_155:\n                /* \"#utility.yul\":2456:2519   */\n              swap2\n              pop\n                /* \"#utility.yul\":2412:2529   */\n              pop\n                /* \"#utility.yul\":2207:2536   */\n              swap3\n              swap2\n              pop\n              pop\n              jump\t// out\n                /* \"#utility.yul\":2542:2684   */\n            tag_156:\n                /* \"#utility.yul\":2645:2677   */\n              tag_158\n                /* \"#utility.yul\":2671:2676   */\n              dup2\n                /* \"#utility.yul\":2645:2677   */\n              tag_159\n              jump\t// in\n            tag_158:\n                /* \"#utility.yul\":2640:2643   */\n              dup3\n                /* \"#utility.yul\":2633:2678   */\n              mstore\n                /* \"#utility.yul\":2542:2684   */\n              pop\n              pop\n              jump\t// out\n                /* \"#utility.yul\":2690:2808   */\n            tag_160:\n                /* \"#utility.yul\":2777:2801   */\n              tag_162\n                /* \"#utility.yul\":2795:2800   */\n              dup2\n                /* \"#utility.yul\":2777:2801   */\n              tag_163\n              jump\t// in\n            tag_162:\n                /* \"#utility.yul\":2772:2775   */\n              dup3\n                /* \"#utility.yul\":2765:2802   */\n              mstore\n                /* \"#utility.yul\":2690:2808   */\n              pop\n              pop\n              jump\t// out\n                /* \"#utility.yul\":2814:2923   */\n            tag_164:\n                /* \"#utility.yul\":2895:2916   */\n              tag_166\n                /* \"#utility.yul\":2910:2915   */\n              dup2\n                /* \"#utility.yul\":2895:2916   */\n              tag_167\n              jump\t// in\n            tag_166:\n                /* \"#utility.yul\":2890:2893   */\n              dup3\n                /* \"#utility.yul\":2883:2917   */\n              mstore\n                /* \"#utility.yul\":2814:2923   */\n              pop\n              pop\n              jump\t// out\n                /* \"#utility.yul\":2929:3293   */\n            tag_168:\n                /* \"#utility.yul\":3017:3020   */\n              0x00\n                /* \"#utility.yul\":3045:3084   */\n              tag_170\n                /* \"#utility.yul\":3078:3083   */\n              dup3\n                /* \"#utility.yul\":3045:3084   */\n              tag_171\n              jump\t// in\n            tag_170:\n                /* \"#utility.yul\":3100:3171   */\n              tag_172\n                /* \"#utility.yul\":3164:3170   */\n              dup2\n                /* \"#utility.yul\":3159:3162   */\n              dup6\n                /* \"#utility.yul\":3100:3171   */\n              tag_173\n              jump\t// in\n            tag_172:\n                /* \"#utility.yul\":3093:3171   */\n              swap4\n              pop\n                /* \"#utility.yul\":3180:3232   */\n              tag_174\n                /* \"#utility.yul\":3225:3231   */\n              dup2\n                /* \"#utility.yul\":3220:3223   */\n              dup6\n                /* \"#utility.yul\":3213:3217   */\n              0x20\n                /* \"#utility.yul\":3206:3211   */\n              dup7\n                /* \"#utility.yul\":3202:3218   */\n              add\n                /* \"#utility.yul\":3180:3232   */\n              tag_175\n              jump\t// in\n            tag_174:\n                /* \"#utility.yul\":3257:3286   */\n              tag_176\n                /* \"#utility.yul\":3279:3285   */\n              dup2\n                /* \"#utility.yul\":3257:3286   */\n              tag_177\n              jump\t// in\n            tag_176:\n                /* \"#utility.yul\":3252:3255   */\n              dup5\n                /* \"#utility.yul\":3248:3287   */\n              add\n                /* \"#utility.yul\":3241:3287   */\n              swap2\n              pop\n                /* \"#utility.yul\":3021:3293   */\n              pop\n                /* \"#utility.yul\":2929:3293   */\n              swap3\n              swap2\n              pop\n              pop\n              jump\t// out\n                /* \"#utility.yul\":3299:3665   */\n            tag_178:\n                /* \"#utility.yul\":3441:3444   */\n              0x00\n                /* \"#utility.yul\":3462:3529   */\n              tag_180\n                /* \"#utility.yul\":3526:3528   */\n              0x1a\n                /* \"#utility.yul\":3521:3524   */\n              dup4\n                /* \"#utility.yul\":3462:3529   */\n              tag_173\n              jump\t// in\n            tag_180:\n                /* \"#utility.yul\":3455:3529   */\n              swap2\n              pop\n                /* \"#utility.yul\":3538:3631   */\n              tag_181\n                /* \"#utility.yul\":3627:3630   */\n              dup3\n                /* \"#utility.yul\":3538:3631   */\n              tag_182\n              jump\t// in\n            tag_181:\n                /* \"#utility.yul\":3656:3658   */\n              0x20\n                /* \"#utility.yul\":3651:3654   */\n              dup3\n                /* \"#utility.yul\":3647:3659   */\n              add\n                /* \"#utility.yul\":3640:3659   */\n              swap1\n              pop\n                /* \"#utility.yul\":3299:3665   */\n              swap2\n              swap1\n              pop\n              jump\t// out\n                /* \"#utility.yul\":3671:4037   */\n            tag_183:\n                /* \"#utility.yul\":3813:3816   */\n              0x00\n                /* \"#utility.yul\":3834:3901   */\n              tag_185\n                /* \"#utility.yul\":3898:3900   */\n              0x23\n                /* \"#utility.yul\":3893:3896   */\n              dup4\n                /* \"#utility.yul\":3834:3901   */\n              tag_173\n              jump\t// in\n            tag_185:\n                /* \"#utility.yul\":3827:3901   */\n              swap2\n              pop\n                /* \"#utility.yul\":3910:4003   */\n              tag_186\n                /* \"#utility.yul\":3999:4002   */\n              dup3\n                /* \"#utility.yul\":3910:4003   */\n              tag_187\n              jump\t// in\n            tag_186:\n                /* \"#utility.yul\":4028:4030   */\n              0x40\n                /* \"#utility.yul\":4023:4026   */\n              dup3\n                /* \"#utility.yul\":4019:4031   */\n              add\n                /* \"#utility.yul\":4012:4031   */\n              swap1\n              pop\n                /* \"#utility.yul\":3671:4037   */\n              swap2\n              swap1\n              pop\n              jump\t// out\n                /* \"#utility.yul\":4043:4409   */\n            tag_188:\n                /* \"#utility.yul\":4185:4188   */\n              0x00\n                /* \"#utility.yul\":4206:4273   */\n              tag_190\n                /* \"#utility.yul\":4270:4272   */\n              0x20\n                /* \"#utility.yul\":4265:4268   */\n              dup4\n                /* \"#utility.yul\":4206:4273   */\n              tag_173\n              jump\t// in\n            tag_190:\n                /* \"#utility.yul\":4199:4273   */\n              swap2\n              pop\n                /* \"#utility.yul\":4282:4375   */\n              tag_191\n                /* \"#utility.yul\":4371:4374   */\n              dup3\n                /* \"#utility.yul\":4282:4375   */\n              tag_192\n              jump\t// in\n            tag_191:\n                /* \"#utility.yul\":4400:4402   */\n              0x20\n                /* \"#utility.yul\":4395:4398   */\n              dup3\n                /* \"#utility.yul\":4391:4403   */\n              add\n                /* \"#utility.yul\":4384:4403   */\n              swap1\n              pop\n                /* \"#utility.yul\":4043:4409   */\n              swap2\n              swap1\n              pop\n              jump\t// out\n                /* \"#utility.yul\":4415:4533   */\n            tag_193:\n                /* \"#utility.yul\":4502:4526   */\n              tag_195\n                /* \"#utility.yul\":4520:4525   */\n              dup2\n                /* \"#utility.yul\":4502:4526   */\n              tag_196\n              jump\t// in\n            tag_195:\n                /* \"#utility.yul\":4497:4500   */\n              dup3\n                /* \"#utility.yul\":4490:4527   */\n              mstore\n                /* \"#utility.yul\":4415:4533   */\n              pop\n              pop\n              jump\t// out\n                /* \"#utility.yul\":4539:4761   */\n            tag_40:\n                /* \"#utility.yul\":4632:4636   */\n              0x00\n                /* \"#utility.yul\":4670:4672   */\n              0x20\n                /* \"#utility.yul\":4659:4668   */\n              dup3\n                /* \"#utility.yul\":4655:4673   */\n              add\n                /* \"#utility.yul\":4647:4673   */\n              swap1\n              pop\n                /* \"#utility.yul\":4683:4754   */\n              tag_198\n                /* \"#utility.yul\":4751:4752   */\n              0x00\n                /* \"#utility.yul\":4740:4749   */\n              dup4\n                /* \"#utility.yul\":4736:4753   */\n              add\n                /* \"#utility.yul\":4727:4733   */\n              dup5\n                /* \"#utility.yul\":4683:4754   */\n              tag_160\n              jump\t// in\n            tag_198:\n                /* \"#utility.yul\":4539:4761   */\n              swap3\n              swap2\n              pop\n              pop\n              jump\t// out\n                /* \"#utility.yul\":4767:4977   */\n            tag_25:\n                /* \"#utility.yul\":4854:4858   */\n              0x00\n                /* \"#utility.yul\":4892:4894   */\n              0x20\n                /* \"#utility.yul\":4881:4890   */\n              dup3\n                /* \"#utility.yul\":4877:4895   */\n              add\n                /* \"#utility.yul\":4869:4895   */\n              swap1\n              pop\n                /* \"#utility.yul\":4905:4970   */\n              tag_200\n                /* \"#utility.yul\":4967:4968   */\n              0x00\n                /* \"#utility.yul\":4956:4965   */\n              dup4\n                /* \"#utility.yul\":4952:4969   */\n              add\n                /* \"#utility.yul\":4943:4949   */\n              dup5\n                /* \"#utility.yul\":4905:4970   */\n              tag_164\n              jump\t// in\n            tag_200:\n                /* \"#utility.yul\":4767:4977   */\n              swap3\n              swap2\n              pop\n              pop\n              jump\t// out\n                /* \"#utility.yul\":4983:5758   */\n            tag_46:\n                /* \"#utility.yul\":5218:5222   */\n              0x00\n                /* \"#utility.yul\":5256:5259   */\n              0xa0\n                /* \"#utility.yul\":5245:5254   */\n              dup3\n                /* \"#utility.yul\":5241:5260   */\n              add\n                /* \"#utility.yul\":5233:5260   */\n              swap1\n              pop\n                /* \"#utility.yul\":5306:5315   */\n              dup2\n                /* \"#utility.yul\":5300:5304   */\n              dup2\n                /* \"#utility.yul\":5296:5316   */\n              sub\n                /* \"#utility.yul\":5292:5293   */\n              0x00\n                /* \"#utility.yul\":5281:5290   */\n              dup4\n                /* \"#utility.yul\":5277:5294   */\n              add\n                /* \"#utility.yul\":5270:5317   */\n              mstore\n                /* \"#utility.yul\":5334:5412   */\n              tag_202\n                /* \"#utility.yul\":5407:5411   */\n              dup2\n                /* \"#utility.yul\":5398:5404   */\n              dup9\n                /* \"#utility.yul\":5334:5412   */\n              tag_168\n              jump\t// in\n            tag_202:\n                /* \"#utility.yul\":5326:5412   */\n              swap1\n              pop\n                /* \"#utility.yul\":5422:5494   */\n              tag_203\n                /* \"#utility.yul\":5490:5492   */\n              0x20\n                /* \"#utility.yul\":5479:5488   */\n              dup4\n                /* \"#utility.yul\":5475:5493   */\n              add\n                /* \"#utility.yul\":5466:5472   */\n              dup8\n                /* \"#utility.yul\":5422:5494   */\n              tag_193\n              jump\t// in\n            tag_203:\n                /* \"#utility.yul\":5504:5592   */\n              tag_204\n                /* \"#utility.yul\":5588:5590   */\n              0x40\n                /* \"#utility.yul\":5577:5586   */\n              dup4\n                /* \"#utility.yul\":5573:5591   */\n              add\n                /* \"#utility.yul\":5564:5570   */\n              dup7\n                /* \"#utility.yul\":5504:5592   */\n              tag_156\n              jump\t// in\n            tag_204:\n                /* \"#utility.yul\":5602:5668   */\n              tag_205\n                /* \"#utility.yul\":5664:5666   */\n              0x60\n                /* \"#utility.yul\":5653:5662   */\n              dup4\n                /* \"#utility.yul\":5649:5667   */\n              add\n                /* \"#utility.yul\":5640:5646   */\n              dup6\n                /* \"#utility.yul\":5602:5668   */\n              tag_164\n              jump\t// in\n            tag_205:\n                /* \"#utility.yul\":5678:5751   */\n              tag_206\n                /* \"#utility.yul\":5746:5749   */\n              0x80\n                /* \"#utility.yul\":5735:5744   */\n              dup4\n                /* \"#utility.yul\":5731:5750   */\n              add\n                /* \"#utility.yul\":5722:5728   */\n              dup5\n                /* \"#utility.yul\":5678:5751   */\n              tag_193\n              jump\t// in\n            tag_206:\n                /* \"#utility.yul\":4983:5758   */\n              swap7\n              swap6\n              pop\n              pop\n              pop\n              pop\n              pop\n              pop\n              jump\t// out\n                /* \"#utility.yul\":5764:6183   */\n            tag_69:\n                /* \"#utility.yul\":5930:5934   */\n              0x00\n                /* \"#utility.yul\":5968:5970   */\n              0x20\n                /* \"#utility.yul\":5957:5966   */\n              dup3\n                /* \"#utility.yul\":5953:5971   */\n              add\n                /* \"#utility.yul\":5945:5971   */\n              swap1\n              pop\n                /* \"#utility.yul\":6017:6026   */\n              dup2\n                /* \"#utility.yul\":6011:6015   */\n              dup2\n                /* \"#utility.yul\":6007:6027   */\n              sub\n                /* \"#utility.yul\":6003:6004   */\n              0x00\n                /* \"#utility.yul\":5992:6001   */\n              dup4\n                /* \"#utility.yul\":5988:6005   */\n              add\n                /* \"#utility.yul\":5981:6028   */\n              mstore\n                /* \"#utility.yul\":6045:6176   */\n              tag_208\n                /* \"#utility.yul\":6171:6175   */\n              dup2\n                /* \"#utility.yul\":6045:6176   */\n              tag_178\n              jump\t// in\n            tag_208:\n                /* \"#utility.yul\":6037:6176   */\n              swap1\n              pop\n                /* \"#utility.yul\":5764:6183   */\n              swap2\n              swap1\n              pop\n              jump\t// out\n                /* \"#utility.yul\":6189:6608   */\n            tag_102:\n                /* \"#utility.yul\":6355:6359   */\n              0x00\n                /* \"#utility.yul\":6393:6395   */\n              0x20\n                /* \"#utility.yul\":6382:6391   */\n              dup3\n                /* \"#utility.yul\":6378:6396   */\n              add\n                /* \"#utility.yul\":6370:6396   */\n              swap1\n              pop\n                /* \"#utility.yul\":6442:6451   */\n              dup2\n                /* \"#utility.yul\":6436:6440   */\n              dup2\n                /* \"#utility.yul\":6432:6452   */\n              sub\n                /* \"#utility.yul\":6428:6429   */\n              0x00\n                /* \"#utility.yul\":6417:6426   */\n              dup4\n                /* \"#utility.yul\":6413:6430   */\n              add\n                /* \"#utility.yul\":6406:6453   */\n              mstore\n                /* \"#utility.yul\":6470:6601   */\n              tag_210\n                /* \"#utility.yul\":6596:6600   */\n              dup2\n                /* \"#utility.yul\":6470:6601   */\n              tag_183\n              jump\t// in\n            tag_210:\n                /* \"#utility.yul\":6462:6601   */\n              swap1\n              pop\n                /* \"#utility.yul\":6189:6608   */\n              swap2\n              swap1\n              pop\n              jump\t// out\n                /* \"#utility.yul\":6614:7033   */\n            tag_99:\n                /* \"#utility.yul\":6780:6784   */\n              0x00\n                /* \"#utility.yul\":6818:6820   */\n              0x20\n                /* \"#utility.yul\":6807:6816   */\n              dup3\n                /* \"#utility.yul\":6803:6821   */\n              add\n                /* \"#utility.yul\":6795:6821   */\n              swap1\n              pop\n                /* \"#utility.yul\":6867:6876   */\n              dup2\n                /* \"#utility.yul\":6861:6865   */\n              dup2\n                /* \"#utility.yul\":6857:6877   */\n              sub\n                /* \"#utility.yul\":6853:6854   */\n              0x00\n                /* \"#utility.yul\":6842:6851   */\n              dup4\n                /* \"#utility.yul\":6838:6855   */\n              add\n                /* \"#utility.yul\":6831:6878   */\n              mstore\n                /* \"#utility.yul\":6895:7026   */\n              tag_212\n                /* \"#utility.yul\":7021:7025   */\n              dup2\n                /* \"#utility.yul\":6895:7026   */\n              tag_188\n              jump\t// in\n            tag_212:\n                /* \"#utility.yul\":6887:7026   */\n              swap1\n              pop\n                /* \"#utility.yul\":6614:7033   */\n              swap2\n              swap1\n              pop\n              jump\t// out\n                /* \"#utility.yul\":7039:7261   */\n            tag_30:\n                /* \"#utility.yul\":7132:7136   */\n              0x00\n                /* \"#utility.yul\":7170:7172   */\n              0x20\n                /* \"#utility.yul\":7159:7168   */\n              dup3\n                /* \"#utility.yul\":7155:7173   */\n              add\n                /* \"#utility.yul\":7147:7173   */\n              swap1\n              pop\n                /* \"#utility.yul\":7183:7254   */\n              tag_214\n                /* \"#utility.yul\":7251:7252   */\n              0x00\n                /* \"#utility.yul\":7240:7249   */\n              dup4\n                /* \"#utility.yul\":7236:7253   */\n              add\n                /* \"#utility.yul\":7227:7233   */\n              dup5\n                /* \"#utility.yul\":7183:7254   */\n              tag_193\n              jump\t// in\n            tag_214:\n                /* \"#utility.yul\":7039:7261   */\n              swap3\n              swap2\n              pop\n              pop\n              jump\t// out\n                /* \"#utility.yul\":7267:7931   */\n            tag_35:\n                /* \"#utility.yul\":7472:7476   */\n              0x00\n                /* \"#utility.yul\":7510:7513   */\n              0xa0\n                /* \"#utility.yul\":7499:7508   */\n              dup3\n                /* \"#utility.yul\":7495:7514   */\n              add\n                /* \"#utility.yul\":7487:7514   */\n              swap1\n              pop\n                /* \"#utility.yul\":7524:7595   */\n              tag_216\n                /* \"#utility.yul\":7592:7593   */\n              0x00\n                /* \"#utility.yul\":7581:7590   */\n              dup4\n                /* \"#utility.yul\":7577:7594   */\n              add\n                /* \"#utility.yul\":7568:7574   */\n              dup9\n                /* \"#utility.yul\":7524:7595   */\n              tag_193\n              jump\t// in\n            tag_216:\n                /* \"#utility.yul\":7605:7677   */\n              tag_217\n                /* \"#utility.yul\":7673:7675   */\n              0x20\n                /* \"#utility.yul\":7662:7671   */\n              dup4\n                /* \"#utility.yul\":7658:7676   */\n              add\n                /* \"#utility.yul\":7649:7655   */\n              dup8\n                /* \"#utility.yul\":7605:7677   */\n              tag_193\n              jump\t// in\n            tag_217:\n                /* \"#utility.yul\":7687:7759   */\n              tag_218\n                /* \"#utility.yul\":7755:7757   */\n              0x40\n                /* \"#utility.yul\":7744:7753   */\n              dup4\n                /* \"#utility.yul\":7740:7758   */\n              add\n                /* \"#utility.yul\":7731:7737   */\n              dup7\n                /* \"#utility.yul\":7687:7759   */\n              tag_193\n              jump\t// in\n            tag_218:\n                /* \"#utility.yul\":7769:7841   */\n              tag_219\n                /* \"#utility.yul\":7837:7839   */\n              0x60\n                /* \"#utility.yul\":7826:7835   */\n              dup4\n                /* \"#utility.yul\":7822:7840   */\n              add\n                /* \"#utility.yul\":7813:7819   */\n              dup6\n                /* \"#utility.yul\":7769:7841   */\n              tag_193\n              jump\t// in\n            tag_219:\n                /* \"#utility.yul\":7851:7924   */\n              tag_220\n                /* \"#utility.yul\":7919:7922   */\n              0x80\n                /* \"#utility.yul\":7908:7917   */\n              dup4\n                /* \"#utility.yul\":7904:7923   */\n              add\n                /* \"#utility.yul\":7895:7901   */\n              dup5\n                /* \"#utility.yul\":7851:7924   */\n              tag_160\n              jump\t// in\n            tag_220:\n                /* \"#utility.yul\":7267:7931   */\n              swap7\n              swap6\n              pop\n              pop\n              pop\n              pop\n              pop\n              pop\n              jump\t// out\n                /* \"#utility.yul\":8018:8117   */\n            tag_171:\n                /* \"#utility.yul\":8070:8076   */\n              0x00\n                /* \"#utility.yul\":8104:8109   */\n              dup2\n                /* \"#utility.yul\":8098:8110   */\n              mload\n                /* \"#utility.yul\":8088:8110   */\n              swap1\n              pop\n                /* \"#utility.yul\":8018:8117   */\n              swap2\n              swap1\n              pop\n              jump\t// out\n                /* \"#utility.yul\":8123:8292   */\n            tag_173:\n                /* \"#utility.yul\":8207:8218   */\n              0x00\n                /* \"#utility.yul\":8241:8247   */\n              dup3\n                /* \"#utility.yul\":8236:8239   */\n              dup3\n                /* \"#utility.yul\":8229:8248   */\n              mstore\n                /* \"#utility.yul\":8281:8285   */\n              0x20\n                /* \"#utility.yul\":8276:8279   */\n              dup3\n                /* \"#utility.yul\":8272:8286   */\n              add\n                /* \"#utility.yul\":8257:8286   */\n              swap1\n              pop\n                /* \"#utility.yul\":8123:8292   */\n              swap3\n              swap2\n              pop\n              pop\n              jump\t// out\n                /* \"#utility.yul\":8298:8483   */\n            tag_72:\n                /* \"#utility.yul\":8338:8339   */\n              0x00\n                /* \"#utility.yul\":8355:8375   */\n              tag_226\n                /* \"#utility.yul\":8373:8374   */\n              dup3\n                /* \"#utility.yul\":8355:8375   */\n              tag_196\n              jump\t// in\n            tag_226:\n                /* \"#utility.yul\":8350:8375   */\n              swap2\n              pop\n                /* \"#utility.yul\":8389:8409   */\n              tag_227\n                /* \"#utility.yul\":8407:8408   */\n              dup4\n                /* \"#utility.yul\":8389:8409   */\n              tag_196\n              jump\t// in\n            tag_227:\n                /* \"#utility.yul\":8384:8409   */\n              swap3\n              pop\n                /* \"#utility.yul\":8428:8429   */\n              dup3\n                /* \"#utility.yul\":8418:8453   */\n              tag_228\n              jumpi\n                /* \"#utility.yul\":8433:8451   */\n              tag_229\n              tag_230\n              jump\t// in\n            tag_229:\n                /* \"#utility.yul\":8418:8453   */\n            tag_228:\n                /* \"#utility.yul\":8475:8476   */\n              dup3\n                /* \"#utility.yul\":8472:8473   */\n              dup3\n                /* \"#utility.yul\":8468:8477   */\n              div\n                /* \"#utility.yul\":8463:8477   */\n              swap1\n              pop\n                /* \"#utility.yul\":8298:8483   */\n              swap3\n              swap2\n              pop\n              pop\n              jump\t// out\n                /* \"#utility.yul\":8489:8585   */\n            tag_163:\n                /* \"#utility.yul\":8526:8533   */\n              0x00\n                /* \"#utility.yul\":8555:8579   */\n              tag_232\n                /* \"#utility.yul\":8573:8578   */\n              dup3\n                /* \"#utility.yul\":8555:8579   */\n              tag_233\n              jump\t// in\n            tag_232:\n                /* \"#utility.yul\":8544:8579   */\n              swap1\n              pop\n                /* \"#utility.yul\":8489:8585   */\n              swap2\n              swap1\n              pop\n              jump\t// out\n                /* \"#utility.yul\":8591:8695   */\n            tag_159:\n                /* \"#utility.yul\":8636:8643   */\n              0x00\n                /* \"#utility.yul\":8665:8689   */\n              tag_235\n                /* \"#utility.yul\":8683:8688   */\n              dup3\n                /* \"#utility.yul\":8665:8689   */\n              tag_233\n              jump\t// in\n            tag_235:\n                /* \"#utility.yul\":8654:8689   */\n              swap1\n              pop\n                /* \"#utility.yul\":8591:8695   */\n              swap2\n              swap1\n              pop\n              jump\t// out\n                /* \"#utility.yul\":8701:8791   */\n            tag_167:\n                /* \"#utility.yul\":8735:8742   */\n              0x00\n                /* \"#utility.yul\":8778:8783   */\n              dup2\n                /* \"#utility.yul\":8771:8784   */\n              iszero\n                /* \"#utility.yul\":8764:8785   */\n              iszero\n                /* \"#utility.yul\":8753:8785   */\n              swap1\n              pop\n                /* \"#utility.yul\":8701:8791   */\n              swap2\n              swap1\n              pop\n              jump\t// out\n                /* \"#utility.yul\":8797:8923   */\n            tag_233:\n                /* \"#utility.yul\":8834:8841   */\n              0x00\n                /* \"#utility.yul\":8874:8916   */\n              0xffffffffffffffffffffffffffffffffffffffff\n                /* \"#utility.yul\":8867:8872   */\n              dup3\n                /* \"#utility.yul\":8863:8917   */\n              and\n                /* \"#utility.yul\":8852:8917   */\n              swap1\n              pop\n                /* \"#utility.yul\":8797:8923   */\n              swap2\n              swap1\n              pop\n              jump\t// out\n                /* \"#utility.yul\":8929:9006   */\n            tag_196:\n                /* \"#utility.yul\":8966:8973   */\n              0x00\n                /* \"#utility.yul\":8995:9000   */\n              dup2\n                /* \"#utility.yul\":8984:9000   */\n              swap1\n              pop\n                /* \"#utility.yul\":8929:9006   */\n              swap2\n              swap1\n              pop\n              jump\t// out\n                /* \"#utility.yul\":9012:9319   */\n            tag_175:\n                /* \"#utility.yul\":9080:9081   */\n              0x00\n                /* \"#utility.yul\":9090:9203   */\n            tag_240:\n                /* \"#utility.yul\":9104:9110   */\n              dup4\n                /* \"#utility.yul\":9101:9102   */\n              dup2\n                /* \"#utility.yul\":9098:9111   */\n              lt\n                /* \"#utility.yul\":9090:9203   */\n              iszero\n              tag_242\n              jumpi\n                /* \"#utility.yul\":9189:9190   */\n              dup1\n                /* \"#utility.yul\":9184:9187   */\n              dup3\n                /* \"#utility.yul\":9180:9191   */\n              add\n                /* \"#utility.yul\":9174:9192   */\n              mload\n                /* \"#utility.yul\":9170:9171   */\n              dup2\n                /* \"#utility.yul\":9165:9168   */\n              dup5\n                /* \"#utility.yul\":9161:9172   */\n              add\n                /* \"#utility.yul\":9154:9193   */\n              mstore\n                /* \"#utility.yul\":9126:9128   */\n              0x20\n                /* \"#utility.yul\":9123:9124   */\n              dup2\n                /* \"#utility.yul\":9119:9129   */\n              add\n                /* \"#utility.yul\":9114:9129   */\n              swap1\n              pop\n                /* \"#utility.yul\":9090:9203   */\n              jump(tag_240)\n            tag_242:\n                /* \"#utility.yul\":9221:9227   */\n              dup4\n                /* \"#utility.yul\":9218:9219   */\n              dup2\n                /* \"#utility.yul\":9215:9228   */\n              gt\n                /* \"#utility.yul\":9212:9313   */\n              iszero\n              tag_243\n              jumpi\n                /* \"#utility.yul\":9301:9302   */\n              0x00\n                /* \"#utility.yul\":9292:9298   */\n              dup5\n                /* \"#utility.yul\":9287:9290   */\n              dup5\n                /* \"#utility.yul\":9283:9299   */\n              add\n                /* \"#utility.yul\":9276:9303   */\n              mstore\n                /* \"#utility.yul\":9212:9313   */\n            tag_243:\n                /* \"#utility.yul\":9061:9319   */\n              pop\n                /* \"#utility.yul\":9012:9319   */\n              pop\n              pop\n              pop\n              jump\t// out\n                /* \"#utility.yul\":9325:9645   */\n            tag_80:\n                /* \"#utility.yul\":9369:9375   */\n              0x00\n                /* \"#utility.yul\":9406:9407   */\n              0x02\n                /* \"#utility.yul\":9400:9404   */\n              dup3\n                /* \"#utility.yul\":9396:9408   */\n              div\n                /* \"#utility.yul\":9386:9408   */\n              swap1\n              pop\n                /* \"#utility.yul\":9453:9454   */\n              0x01\n                /* \"#utility.yul\":9447:9451   */\n              dup3\n                /* \"#utility.yul\":9443:9455   */\n              and\n                /* \"#utility.yul\":9474:9492   */\n              dup1\n                /* \"#utility.yul\":9464:9545   */\n              tag_245\n              jumpi\n                /* \"#utility.yul\":9530:9534   */\n              0x7f\n                /* \"#utility.yul\":9522:9528   */\n              dup3\n                /* \"#utility.yul\":9518:9535   */\n              and\n                /* \"#utility.yul\":9508:9535   */\n              swap2\n              pop\n                /* \"#utility.yul\":9464:9545   */\n            tag_245:\n                /* \"#utility.yul\":9592:9594   */\n              0x20\n                /* \"#utility.yul\":9584:9590   */\n              dup3\n                /* \"#utility.yul\":9581:9595   */\n              lt\n                /* \"#utility.yul\":9561:9579   */\n              dup2\n                /* \"#utility.yul\":9558:9596   */\n              eq\n                /* \"#utility.yul\":9555:9639   */\n              iszero\n              tag_246\n              jumpi\n                /* \"#utility.yul\":9611:9629   */\n              tag_247\n              tag_248\n              jump\t// in\n            tag_247:\n                /* \"#utility.yul\":9555:9639   */\n            tag_246:\n                /* \"#utility.yul\":9376:9645   */\n              pop\n                /* \"#utility.yul\":9325:9645   */\n              swap2\n              swap1\n              pop\n              jump\t// out\n                /* \"#utility.yul\":9651:9884   */\n            tag_92:\n                /* \"#utility.yul\":9690:9693   */\n              0x00\n                /* \"#utility.yul\":9713:9737   */\n              tag_250\n                /* \"#utility.yul\":9731:9736   */\n              dup3\n                /* \"#utility.yul\":9713:9737   */\n              tag_196\n              jump\t// in\n            tag_250:\n                /* \"#utility.yul\":9704:9737   */\n              swap2\n              pop\n                /* \"#utility.yul\":9759:9825   */\n              0xffffffffffffffffffffffffffffffffffffffffffffffffffffffffffffffff\n                /* \"#utility.yul\":9752:9757   */\n              dup3\n                /* \"#utility.yul\":9749:9826   */\n              eq\n                /* \"#utility.yul\":9746:9849   */\n              iszero\n              tag_251\n              jumpi\n                /* \"#utility.yul\":9829:9847   */\n              tag_252\n              tag_253\n              jump\t// in\n            tag_252:\n                /* \"#utility.yul\":9746:9849   */\n            tag_251:\n                /* \"#utility.yul\":9876:9877   */\n              0x01\n                /* \"#utility.yul\":9869:9874   */\n              dup3\n                /* \"#utility.yul\":9865:9878   */\n              add\n                /* \"#utility.yul\":9858:9878   */\n              swap1\n              pop\n                /* \"#utility.yul\":9651:9884   */\n              swap2\n              swap1\n              pop\n              jump\t// out\n                /* \"#utility.yul\":9890:10070   */\n            tag_253:\n                /* \"#utility.yul\":9938:10015   */\n              0x4e487b7100000000000000000000000000000000000000000000000000000000\n                /* \"#utility.yul\":9935:9936   */\n              0x00\n                /* \"#utility.yul\":9928:10016   */\n              mstore\n                /* \"#utility.yul\":10035:10039   */\n              0x11\n                /* \"#utility.yul\":10032:10033   */\n              0x04\n                /* \"#utility.yul\":10025:10040   */\n              mstore\n                /* \"#utility.yul\":10059:10063   */\n              0x24\n                /* \"#utility.yul\":10056:10057   */\n              0x00\n                /* \"#utility.yul\":10049:10064   */\n              revert\n                /* \"#utility.yul\":10076:10256   */\n            tag_230:\n                /* \"#utility.yul\":10124:10201   */\n              0x4e487b7100000000000000000000000000000000000000000000000000000000\n                /* \"#utility.yul\":10121:10122   */\n              0x00\n                /* \"#utility.yul\":10114:10202   */\n              mstore\n                /* \"#utility.yul\":10221:10225   */\n              0x12\n                /* \"#utility.yul\":10218:10219   */\n              0x04\n                /* \"#utility.yul\":10211:10226   */\n              mstore\n                /* \"#utility.yul\":10245:10249   */\n              0x24\n                /* \"#utility.yul\":10242:10243   */\n              0x00\n                /* \"#utility.yul\":10235:10250   */\n              revert\n                /* \"#utility.yul\":10262:10442   */\n            tag_248:\n                /* \"#utility.yul\":10310:10387   */\n              0x4e487b7100000000000000000000000000000000000000000000000000000000\n                /* \"#utility.yul\":10307:10308   */\n              0x00\n                /* \"#utility.yul\":10300:10388   */\n              mstore\n                /* \"#utility.yul\":10407:10411   */\n              0x22\n                /* \"#utility.yul\":10404:10405   */\n              0x04\n                /* \"#utility.yul\":10397:10412   */\n              mstore\n                /* \"#utility.yul\":10431:10435   */\n              0x24\n                /* \"#utility.yul\":10428:10429   */\n              0x00\n                /* \"#utility.yul\":10421:10436   */\n              revert\n                /* \"#utility.yul\":10448:10565   */\n            tag_130:\n                /* \"#utility.yul\":10557:10558   */\n              0x00\n                /* \"#utility.yul\":10554:10555   */\n              dup1\n                /* \"#utility.yul\":10547:10559   */\n              revert\n                /* \"#utility.yul\":10571:10688   */\n            tag_127:\n                /* \"#utility.yul\":10680:10681   */\n              0x00\n                /* \"#utility.yul\":10677:10678   */\n              dup1\n                /* \"#utility.yul\":10670:10682   */\n              revert\n                /* \"#utility.yul\":10694:10811   */\n            tag_133:\n                /* \"#utility.yul\":10803:10804   */\n              0x00\n                /* \"#utility.yul\":10800:10801   */\n              dup1\n                /* \"#utility.yul\":10793:10805   */\n              revert\n                /* \"#utility.yul\":10817:10934   */\n            tag_148:\n                /* \"#utility.yul\":10926:10927   */\n              0x00\n                /* \"#utility.yul\":10923:10924   */\n              dup1\n                /* \"#utility.yul\":10916:10928   */\n              revert\n                /* \"#utility.yul\":10940:11057   */\n            tag_141:\n                /* \"#utility.yul\":11049:11050   */\n              0x00\n                /* \"#utility.yul\":11046:11047   */\n              dup1\n                /* \"#utility.yul\":11039:11051   */\n              revert\n                /* \"#utility.yul\":11063:11165   */\n            tag_177:\n                /* \"#utility.yul\":11104:11110   */\n              0x00\n                /* \"#utility.yul\":11155:11157   */\n              0x1f\n                /* \"#utility.yul\":11151:11158   */\n              not\n                /* \"#utility.yul\":11146:11148   */\n              0x1f\n                /* \"#utility.yul\":11139:11144   */\n              dup4\n                /* \"#utility.yul\":11135:11149   */\n              add\n                /* \"#utility.yul\":11131:11159   */\n              and\n                /* \"#utility.yul\":11121:11159   */\n              swap1\n              pop\n                /* \"#utility.yul\":11063:11165   */\n              swap2\n              swap1\n              pop\n              jump\t// out\n                /* \"#utility.yul\":11171:11347   */\n            tag_182:\n                /* \"#utility.yul\":11311:11339   */\n              0x4f6e6c79206d616e616765722063616e2063616c6c2074686973000000000000\n                /* \"#utility.yul\":11307:11308   */\n              0x00\n                /* \"#utility.yul\":11299:11305   */\n              dup3\n                /* \"#utility.yul\":11295:11309   */\n              add\n                /* \"#utility.yul\":11288:11340   */\n              mstore\n                /* \"#utility.yul\":11171:11347   */\n              pop\n              jump\t// out\n                /* \"#utility.yul\":11353:11575   */\n            tag_187:\n                /* \"#utility.yul\":11493:11527   */\n              0x596f752061726520616c726561647920617070726f7665207468652072657175\n                /* \"#utility.yul\":11489:11490   */\n              0x00\n                /* \"#utility.yul\":11481:11487   */\n              dup3\n                /* \"#utility.yul\":11477:11491   */\n              add\n                /* \"#utility.yul\":11470:11528   */\n              mstore\n                /* \"#utility.yul\":11562:11567   */\n              0x6573740000000000000000000000000000000000000000000000000000000000\n                /* \"#utility.yul\":11557:11559   */\n              0x20\n                /* \"#utility.yul\":11549:11555   */\n              dup3\n                /* \"#utility.yul\":11545:11560   */\n              add\n                /* \"#utility.yul\":11538:11568   */\n              mstore\n                /* \"#utility.yul\":11353:11575   */\n              pop\n              jump\t// out\n                /* \"#utility.yul\":11581:11763   */\n            tag_192:\n                /* \"#utility.yul\":11721:11755   */\n              0x4f6e6c79206120646f6e657220617070726f7665207468652072657175657374\n                /* \"#utility.yul\":11717:11718   */\n              0x00\n                /* \"#utility.yul\":11709:11715   */\n              dup3\n                /* \"#utility.yul\":11705:11719   */\n              add\n                /* \"#utility.yul\":11698:11756   */\n              mstore\n                /* \"#utility.yul\":11581:11763   */\n              pop\n              jump\t// out\n                /* \"#utility.yul\":11769:11891   */\n            tag_118:\n                /* \"#utility.yul\":11842:11866   */\n              tag_267\n                /* \"#utility.yul\":11860:11865   */\n              dup2\n                /* \"#utility.yul\":11842:11866   */\n              tag_163\n              jump\t// in\n            tag_267:\n                /* \"#utility.yul\":11835:11840   */\n              dup2\n                /* \"#utility.yul\":11832:11867   */\n              eq\n                /* \"#utility.yul\":11822:11885   */\n              tag_268\n              jumpi\n                /* \"#utility.yul\":11881:11882   */\n              0x00\n                /* \"#utility.yul\":11878:11879   */\n              dup1\n                /* \"#utility.yul\":11871:11883   */\n              revert\n                /* \"#utility.yul\":11822:11885   */\n            tag_268:\n                /* \"#utility.yul\":11769:11891   */\n              pop\n              jump\t// out\n                /* \"#utility.yul\":11897:12035   */\n            tag_122:\n                /* \"#utility.yul\":11978:12010   */\n              tag_270\n                /* \"#utility.yul\":12004:12009   */\n              dup2\n                /* \"#utility.yul\":11978:12010   */\n              tag_159\n              jump\t// in\n            tag_270:\n                /* \"#utility.yul\":11971:11976   */\n              dup2\n                /* \"#utility.yul\":11968:12011   */\n              eq\n                /* \"#utility.yul\":11958:12029   */\n              tag_271\n              jumpi\n                /* \"#utility.yul\":12025:12026   */\n              0x00\n                /* \"#utility.yul\":12022:12023   */\n              dup1\n                /* \"#utility.yul\":12015:12027   */\n              revert\n                /* \"#utility.yul\":11958:12029   */\n            tag_271:\n                /* \"#utility.yul\":11897:12035   */\n              pop\n              jump\t// out\n                /* \"#utility.yul\":12041:12163   */\n            tag_137:\n                /* \"#utility.yul\":12114:12138   */\n              tag_273\n                /* \"#utility.yul\":12132:12137   */\n              dup2\n                /* \"#utility.yul\":12114:12138   */\n              tag_196\n              jump\t// in\n            tag_273:\n                /* \"#utility.yul\":12107:12112   */\n              dup2\n                /* \"#utility.yul\":12104:12139   */\n              eq\n                /* \"#utility.yul\":12094:12157   */\n              tag_274\n              jumpi\n                /* \"#utility.yul\":12153:12154   */\n              0x00\n                /* \"#utility.yul\":12150:12151   */\n              dup1\n                /* \"#utility.yul\":12143:12155   */\n              revert\n                /* \"#utility.yul\":12094:12157   */\n            tag_274:\n                /* \"#utility.yul\":12041:12163   */\n              pop\n              jump\t// out\n\n            auxdata: 0xa2646970667358221220aec326b20735c30c05ee14fc3aaae363e19b9f58194677a854b68b702d1bfb3564736f6c63430008070033\n        }\n    }\n\n    auxdata: 0xa264697066735822122096b1142905dec6c5e558d0387142db3e22c136ab92ca27a4398323873ba1360964736f6c63430008070033\n}\n","bytecode":{"linkReferences":{},"object":"608060405234801561001057600080fd5b50611f6d806100206000396000f3fe60806040523480156200001157600080fd5b5060043610620000465760003560e01c80631d921f62146200004b578063339d50a5146200006b5780634acb9d4f14620000a5575b600080fd5b62000069600480360381019062000063919062000830565b620000c7565b005b620000896004803603810190620000839190620008e8565b620002f3565b6040516200009c95949392919062000afe565b60405180910390f35b620000af6200049a565b604051620000be919062000b69565b60405180910390f35b60008133604051620000d990620006e5565b620000e692919062000b8d565b604051809103906000f08015801562000103573d6000803e3d6000fd5b50905060006040518060a001604052808373ffffffffffffffffffffffffffffffffffffffff16815260200189898080601f016020809104026020016040519081016040528093929190818152602001838380828437600081840152601f19601f82011690508083019250505050505050815260200187878080601f016020809104026020016040519081016040528093929190818152602001838380828437600081840152601f19601f8201169050808301925050505050505081526020018573ffffffffffffffffffffffffffffffffffffffff168152602001848152509050600081908060018154018082558091505060019003906000526020600020906005020160009091909190915060008201518160000160006101000a81548173ffffffffffffffffffffffffffffffffffffffff021916908373ffffffffffffffffffffffffffffffffffffffff160217905550602082015181600101908051906020019062000276929190620006f3565b50604082015181600201908051906020019062000295929190620006f3565b5060608201518160030160006101000a81548173ffffffffffffffffffffffffffffffffffffffff021916908373ffffffffffffffffffffffffffffffffffffffff1602179055506080820151816004015550505050505050505050565b600081815481106200030457600080fd5b90600052602060002090600502016000915090508060000160009054906101000a900473ffffffffffffffffffffffffffffffffffffffff16908060010180546200034f9062000c94565b80601f01602080910402602001604051908101604052809291908181526020018280546200037d9062000c94565b8015620003ce5780601f10620003a257610100808354040283529160200191620003ce565b820191906000526020600020905b815481529060010190602001808311620003b057829003601f168201915b505050505090806002018054620003e59062000c94565b80601f0160208091040260200160405190810160405280929190818152602001828054620004139062000c94565b8015620004645780601f10620004385761010080835404028352916020019162000464565b820191906000526020600020905b8154815290600101906020018083116200044657829003601f168201915b5050505050908060030160009054906101000a900473ffffffffffffffffffffffffffffffffffffffff16908060040154905085565b60606000805480602002602001604051908101604052809291908181526020016000905b82821015620006dc57838290600052602060002090600502016040518060a00160405290816000820160009054906101000a900473ffffffffffffffffffffffffffffffffffffffff1673ffffffffffffffffffffffffffffffffffffffff1673ffffffffffffffffffffffffffffffffffffffff1681526020016001820180546200054a9062000c94565b80601f0160208091040260200160405190810160405280929190818152602001828054620005789062000c94565b8015620005c95780601f106200059d57610100808354040283529160200191620005c9565b820191906000526020600020905b815481529060010190602001808311620005ab57829003601f168201915b50505050508152602001600282018054620005e49062000c94565b80601f0160208091040260200160405190810160405280929190818152602001828054620006129062000c94565b8015620006635780601f10620006375761010080835404028352916020019162000663565b820191906000526020600020905b8154815290600101906020018083116200064557829003601f168201915b505050505081526020016003820160009054906101000a900473ffffffffffffffffffffffffffffffffffffffff1673ffffffffffffffffffffffffffffffffffffffff1673ffffffffffffffffffffffffffffffffffffffff16815260200160048201548152505081526020019060010190620004be565b50505050905090565b6111e08062000d5883390190565b828054620007019062000c94565b90600052602060002090601f01602090048101928262000725576000855562000771565b82601f106200074057805160ff191683800117855562000771565b8280016001018555821562000771579182015b828111156200077057825182559160200191906001019062000753565b5b50905062000780919062000784565b5090565b5b808211156200079f57600081600090555060010162000785565b5090565b600081359050620007b48162000d23565b92915050565b60008083601f840112620007d357620007d262000cfe565b5b8235905067ffffffffffffffff811115620007f357620007f262000cf9565b5b60208301915083600182028301111562000812576200081162000d03565b5b9250929050565b6000813590506200082a8162000d3d565b92915050565b6000806000806000806080878903121562000850576200084f62000d0d565b5b600087013567ffffffffffffffff81111562000871576200087062000d08565b5b6200087f89828a01620007ba565b9650965050602087013567ffffffffffffffff811115620008a557620008a462000d08565b5b620008b389828a01620007ba565b94509450506040620008c889828a01620007a3565b9250506060620008db89828a0162000819565b9150509295509295509295565b60006020828403121562000901576200090062000d0d565b5b6000620009118482850162000819565b91505092915050565b600062000928838362000a55565b905092915050565b6200093b8162000c20565b82525050565b6200094c8162000c20565b82525050565b60006200095f8262000bca565b6200096b818562000bed565b9350836020820285016200097f8562000bba565b8060005b85811015620009c157848403895281516200099f85826200091a565b9450620009ac8362000be0565b925060208a0199505060018101905062000983565b50829750879550505050505092915050565b6000620009e08262000bd5565b620009ec818562000bfe565b9350620009fe81856020860162000c5e565b62000a098162000d12565b840191505092915050565b600062000a218262000bd5565b62000a2d818562000c0f565b935062000a3f81856020860162000c5e565b62000a4a8162000d12565b840191505092915050565b600060a08301600083015162000a6f600086018262000930565b506020830151848203602086015262000a898282620009d3565b9150506040830151848203604086015262000aa58282620009d3565b915050606083015162000abc606086018262000930565b50608083015162000ad1608086018262000adc565b508091505092915050565b62000ae78162000c54565b82525050565b62000af88162000c54565b82525050565b600060a08201905062000b15600083018862000941565b818103602083015262000b29818762000a14565b9050818103604083015262000b3f818662000a14565b905062000b50606083018562000941565b62000b5f608083018462000aed565b9695505050505050565b6000602082019050818103600083015262000b85818462000952565b905092915050565b600060408201905062000ba4600083018562000aed565b62000bb3602083018462000941565b9392505050565b6000819050602082019050919050565b600081519050919050565b600081519050919050565b6000602082019050919050565b600082825260208201905092915050565b600082825260208201905092915050565b600082825260208201905092915050565b600062000c2d8262000c34565b9050919050565b600073ffffffffffffffffffffffffffffffffffffffff82169050919050565b6000819050919050565b60005b8381101562000c7e57808201518184015260208101905062000c61565b8381111562000c8e576000848401525b50505050565b6000600282049050600182168062000cad57607f821691505b6020821081141562000cc45762000cc362000cca565b5b50919050565b7f4e487b7100000000000000000000000000000000000000000000000000000000600052602260045260246000fd5b600080fd5b600080fd5b600080fd5b600080fd5b600080fd5b6000601f19601f8301169050919050565b62000d2e8162000c20565b811462000d3a57600080fd5b50565b62000d488162000c54565b811462000d5457600080fd5b5056fe60806040523480156200001157600080fd5b50604051620011e0380380620011e08339818101604052810190620000379190620000b5565b80600260006101000a81548173ffffffffffffffffffffffffffffffffffffffff021916908373ffffffffffffffffffffffffffffffffffffffff16021790555081600381905550505062000173565b60008151905062000098816200013f565b92915050565b600081519050620000af8162000159565b92915050565b60008060408385031215620000cf57620000ce6200013a565b5b6000620000df858286016200009e565b9250506020620000f28582860162000087565b9150509250929050565b6000620001098262000110565b9050919050565b600073ffffffffffffffffffffffffffffffffffffffff82169050919050565b6000819050919050565b600080fd5b6200014a81620000fc565b81146200015657600080fd5b50565b620001648162000130565b81146200017057600080fd5b50565b61105d80620001836000396000f3fe60806040526004361061009c5760003560e01c806381d12c581161006457806381d12c581461018c57806382fde093146101cd5780638a9cfd55146101f8578063937e09b114610221578063d7bb99ba1461024c578063d7d1bbdb146102565761009c565b806303441006146100a15780630a144391146100ca5780633410452a146101075780634051ddac14610132578063481c6a7514610161575b600080fd5b3480156100ad57600080fd5b506100c860048036038101906100c39190610acc565b61027f565b005b3480156100d657600080fd5b506100f160048036038101906100ec9190610a2b565b6103ef565b6040516100fe9190610bf2565b60405180910390f35b34801561011357600080fd5b5061011c61040f565b6040516101299190610cc7565b60405180910390f35b34801561013e57600080fd5b50610147610419565b604051610158959493929190610ce2565b60405180910390f35b34801561016d57600080fd5b5061017661045f565b6040516101839190610bd7565b60405180910390f35b34801561019857600080fd5b506101b360048036038101906101ae9190610acc565b610485565b6040516101c4959493929190610c0d565b60405180910390f35b3480156101d957600080fd5b506101e2610570565b6040516101ef9190610cc7565b60405180910390f35b34801561020457600080fd5b5061021f600480360381019061021a9190610a58565b610576565b005b34801561022d57600080fd5b506102366106c4565b6040516102439190610cc7565b60405180910390f35b6102546106ca565b005b34801561026257600080fd5b5061027d60048036038101906102789190610acc565b61074a565b005b600260009054906101000a900473ffffffffffffffffffffffffffffffffffffffff1673ffffffffffffffffffffffffffffffffffffffff163373ffffffffffffffffffffffffffffffffffffffff161461030f576040517f08c379a000000000000000000000000000000000000000000000000000000000815260040161030690610c67565b60405180910390fd5b6000806000838152602001908152602001600020905060026005546103349190610d51565b81600301541161034357600080fd5b8060020160149054906101000a900460ff161561035f57600080fd5b8060020160009054906101000a900473ffffffffffffffffffffffffffffffffffffffff1673ffffffffffffffffffffffffffffffffffffffff166108fc82600101549081150290604051600060405180830381858888f193505050501580156103cd573d6000803e3d6000fd5b5060018160020160146101000a81548160ff0219169083151502179055505050565b60046020528060005260406000206000915054906101000a900460ff1681565b6000600154905090565b600080600080600060035447600154600554600260009054906101000a900473ffffffffffffffffffffffffffffffffffffffff16945094509450945094509091929394565b600260009054906101000a900473ffffffffffffffffffffffffffffffffffffffff1681565b60006020528060005260406000206000915090508060000180546104a890610e0f565b80601f01602080910402602001604051908101604052809291908181526020018280546104d490610e0f565b80156105215780601f106104f657610100808354040283529160200191610521565b820191906000526020600020905b81548152906001019060200180831161050457829003601f168201915b5050505050908060010154908060020160009054906101000a900473ffffffffffffffffffffffffffffffffffffffff16908060020160149054906101000a900460ff16908060030154905085565b60055481565b600260009054906101000a900473ffffffffffffffffffffffffffffffffffffffff1673ffffffffffffffffffffffffffffffffffffffff163373ffffffffffffffffffffffffffffffffffffffff1614610606576040517f08c379a00000000000000000000000000000000000000000000000000000000081526004016105fd90610c67565b60405180910390fd5b60008060006001548152602001908152602001600020905084848260000191906106319291906108f3565b50828160010181905550818160020160006101000a81548173ffffffffffffffffffffffffffffffffffffffff021916908373ffffffffffffffffffffffffffffffffffffffff16021790555060008160020160146101000a81548160ff02191690831515021790555060008160030181905550600160008154809291906106b890610e41565b91905055505050505050565b60035481565b60035434116106d857600080fd5b6001600460003373ffffffffffffffffffffffffffffffffffffffff1673ffffffffffffffffffffffffffffffffffffffff16815260200190815260200160002060006101000a81548160ff0219169083151502179055506005600081548092919061074390610e41565b9190505550565b60008060008381526020019081526020016000209050600460003373ffffffffffffffffffffffffffffffffffffffff1673ffffffffffffffffffffffffffffffffffffffff16815260200190815260200160002060009054906101000a900460ff166107ec576040517f08c379a00000000000000000000000000000000000000000000000000000000081526004016107e390610ca7565b60405180910390fd5b8060040160003373ffffffffffffffffffffffffffffffffffffffff1673ffffffffffffffffffffffffffffffffffffffff16815260200190815260200160002060009054906101000a900460ff161561087b576040517f08c379a000000000000000000000000000000000000000000000000000000000815260040161087290610c87565b60405180910390fd5b60018160040160003373ffffffffffffffffffffffffffffffffffffffff1673ffffffffffffffffffffffffffffffffffffffff16815260200190815260200160002060006101000a81548160ff0219169083151502179055508060030160008154809291906108ea90610e41565b91905055505050565b8280546108ff90610e0f565b90600052602060002090601f0160209004810192826109215760008555610968565b82601f1061093a57803560ff1916838001178555610968565b82800160010185558215610968579182015b8281111561096757823582559160200191906001019061094c565b5b5090506109759190610979565b5090565b5b8082111561099257600081600090555060010161097a565b5090565b6000813590506109a581610fe2565b92915050565b6000813590506109ba81610ff9565b92915050565b60008083601f8401126109d6576109d5610f1c565b5b8235905067ffffffffffffffff8111156109f3576109f2610f17565b5b602083019150836001820283011115610a0f57610a0e610f21565b5b9250929050565b600081359050610a2581611010565b92915050565b600060208284031215610a4157610a40610f2b565b5b6000610a4f84828501610996565b91505092915050565b60008060008060608587031215610a7257610a71610f2b565b5b600085013567ffffffffffffffff811115610a9057610a8f610f26565b5b610a9c878288016109c0565b94509450506020610aaf87828801610a16565b9250506040610ac0878288016109ab565b91505092959194509250565b600060208284031215610ae257610ae1610f2b565b5b6000610af084828501610a16565b91505092915050565b610b0281610d94565b82525050565b610b1181610d82565b82525050565b610b2081610da6565b82525050565b6000610b3182610d35565b610b3b8185610d40565b9350610b4b818560208601610ddc565b610b5481610f30565b840191505092915050565b6000610b6c601a83610d40565b9150610b7782610f41565b602082019050919050565b6000610b8f602383610d40565b9150610b9a82610f6a565b604082019050919050565b6000610bb2602083610d40565b9150610bbd82610fb9565b602082019050919050565b610bd181610dd2565b82525050565b6000602082019050610bec6000830184610b08565b92915050565b6000602082019050610c076000830184610b17565b92915050565b600060a0820190508181036000830152610c278188610b26565b9050610c366020830187610bc8565b610c436040830186610af9565b610c506060830185610b17565b610c5d6080830184610bc8565b9695505050505050565b60006020820190508181036000830152610c8081610b5f565b9050919050565b60006020820190508181036000830152610ca081610b82565b9050919050565b60006020820190508181036000830152610cc081610ba5565b9050919050565b6000602082019050610cdc6000830184610bc8565b92915050565b600060a082019050610cf76000830188610bc8565b610d046020830187610bc8565b610d116040830186610bc8565b610d1e6060830185610bc8565b610d2b6080830184610b08565b9695505050505050565b600081519050919050565b600082825260208201905092915050565b6000610d5c82610dd2565b9150610d6783610dd2565b925082610d7757610d76610eb9565b5b828204905092915050565b6000610d8d82610db2565b9050919050565b6000610d9f82610db2565b9050919050565b60008115159050919050565b600073ffffffffffffffffffffffffffffffffffffffff82169050919050565b6000819050919050565b60005b83811015610dfa578082015181840152602081019050610ddf565b83811115610e09576000848401525b50505050565b60006002820490506001821680610e2757607f821691505b60208210811415610e3b57610e3a610ee8565b5b50919050565b6000610e4c82610dd2565b91507fffffffffffffffffffffffffffffffffffffffffffffffffffffffffffffffff821415610e7f57610e7e610e8a565b5b600182019050919050565b7f4e487b7100000000000000000000000000000000000000000000000000000000600052601160045260246000fd5b7f4e487b7100000000000000000000000000000000000000000000000000000000600052601260045260246000fd5b7f4e487b7100000000000000000000000000000000000000000000000000000000600052602260045260246000fd5b600080fd5b600080fd5b600080fd5b600080fd5b600080fd5b6000601f19601f8301169050919050565b7f4f6e6c79206d616e616765722063616e2063616c6c2074686973000000000000600082015250565b7f596f752061726520616c726561647920617070726f766520746865207265717560008201527f6573740000000000000000000000000000000000000000000000000000000000602082015250565b7f4f6e6c79206120646f6e657220617070726f7665207468652072657175657374600082015250565b610feb81610d82565b8114610ff657600080fd5b50565b61100281610d94565b811461100d57600080fd5b50565b61101981610dd2565b811461102457600080fd5b5056fea2646970667358221220aec326b20735c30c05ee14fc3aaae363e19b9f58194677a854b68b702d1bfb3564736f6c63430008070033a264697066735822122096b1142905dec6c5e558d0387142db3e22c136ab92ca27a4398323873ba1360964736f6c63430008070033","opcodes":"PUSH1 0x80 PUSH1 0x40 MSTORE CALLVALUE DUP1 ISZERO PUSH2 0x10 JUMPI PUSH1 0x0 DUP1 REVERT JUMPDEST POP PUSH2 0x1F6D DUP1 PUSH2 0x20 PUSH1 0x0 CODECOPY PUSH1 0x0 RETURN INVALID PUSH1 0x80 PUSH1 0x40 MSTORE CALLVALUE DUP1 ISZERO PUSH3 0x11 JUMPI PUSH1 0x0 DUP1 REVERT JUMPDEST POP PUSH1 0x4 CALLDATASIZE LT PUSH3 0x46 JUMPI PUSH1 0x0 CALLDATALOAD PUSH1 0xE0 SHR DUP1 PUSH4 0x1D921F62 EQ PUSH3 0x4B JUMPI DUP1 PUSH4 0x339D50A5 EQ PUSH3 0x6B JUMPI DUP1 PUSH4 0x4ACB9D4F EQ PUSH3 0xA5 JUMPI JUMPDEST PUSH1 0x0 DUP1 REVERT JUMPDEST PUSH3 0x69 PUSH1 0x4 DUP1 CALLDATASIZE SUB DUP2 ADD SWAP1 PUSH3 0x63 SWAP2 SWAP1 PUSH3 0x830 JUMP JUMPDEST PUSH3 0xC7 JUMP JUMPDEST STOP JUMPDEST PUSH3 0x89 PUSH1 0x4 DUP1 CALLDATASIZE SUB DUP2 ADD SWAP1 PUSH3 0x83 SWAP2 SWAP1 PUSH3 0x8E8 JUMP JUMPDEST PUSH3 0x2F3 JUMP JUMPDEST PUSH1 0x40 MLOAD PUSH3 0x9C SWAP6 SWAP5 SWAP4 SWAP3 SWAP2 SWAP1 PUSH3 0xAFE JUMP JUMPDEST PUSH1 0x40 MLOAD DUP1 SWAP2 SUB SWAP1 RETURN JUMPDEST PUSH3 0xAF PUSH3 0x49A JUMP JUMPDEST PUSH1 0x40 MLOAD PUSH3 0xBE SWAP2 SWAP1 PUSH3 0xB69 JUMP JUMPDEST PUSH1 0x40 MLOAD DUP1 SWAP2 SUB SWAP1 RETURN JUMPDEST PUSH1 0x0 DUP2 CALLER PUSH1 0x40 MLOAD PUSH3 0xD9 SWAP1 PUSH3 0x6E5 JUMP JUMPDEST PUSH3 0xE6 SWAP3 SWAP2 SWAP1 PUSH3 0xB8D JUMP JUMPDEST PUSH1 0x40 MLOAD DUP1 SWAP2 SUB SWAP1 PUSH1 0x0 CREATE DUP1 ISZERO DUP1 ISZERO PUSH3 0x103 JUMPI RETURNDATASIZE PUSH1 0x0 DUP1 RETURNDATACOPY RETURNDATASIZE PUSH1 0x0 REVERT JUMPDEST POP SWAP1 POP PUSH1 0x0 PUSH1 0x40 MLOAD DUP1 PUSH1 0xA0 ADD PUSH1 0x40 MSTORE DUP1 DUP4 PUSH20 0xFFFFFFFFFFFFFFFFFFFFFFFFFFFFFFFFFFFFFFFF AND DUP2 MSTORE PUSH1 0x20 ADD DUP10 DUP10 DUP1 DUP1 PUSH1 0x1F ADD PUSH1 0x20 DUP1 SWAP2 DIV MUL PUSH1 0x20 ADD PUSH1 0x40 MLOAD SWAP1 DUP2 ADD PUSH1 0x40 MSTORE DUP1 SWAP4 SWAP3 SWAP2 SWAP1 DUP2 DUP2 MSTORE PUSH1 0x20 ADD DUP4 DUP4 DUP1 DUP3 DUP5 CALLDATACOPY PUSH1 0x0 DUP2 DUP5 ADD MSTORE PUSH1 0x1F NOT PUSH1 0x1F DUP3 ADD AND SWAP1 POP DUP1 DUP4 ADD SWAP3 POP POP POP POP POP POP POP DUP2 MSTORE PUSH1 0x20 ADD DUP8 DUP8 DUP1 DUP1 PUSH1 0x1F ADD PUSH1 0x20 DUP1 SWAP2 DIV MUL PUSH1 0x20 ADD PUSH1 0x40 MLOAD SWAP1 DUP2 ADD PUSH1 0x40 MSTORE DUP1 SWAP4 SWAP3 SWAP2 SWAP1 DUP2 DUP2 MSTORE PUSH1 0x20 ADD DUP4 DUP4 DUP1 DUP3 DUP5 CALLDATACOPY PUSH1 0x0 DUP2 DUP5 ADD MSTORE PUSH1 0x1F NOT PUSH1 0x1F DUP3 ADD AND SWAP1 POP DUP1 DUP4 ADD SWAP3 POP POP POP POP POP POP POP DUP2 MSTORE PUSH1 0x20 ADD DUP6 PUSH20 0xFFFFFFFFFFFFFFFFFFFFFFFFFFFFFFFFFFFFFFFF AND DUP2 MSTORE PUSH1 0x20 ADD DUP5 DUP2 MSTORE POP SWAP1 POP PUSH1 0x0 DUP2 SWAP1 DUP1 PUSH1 0x1 DUP2 SLOAD ADD DUP1 DUP3 SSTORE DUP1 SWAP2 POP POP PUSH1 0x1 SWAP1 SUB SWAP1 PUSH1 0x0 MSTORE PUSH1 0x20 PUSH1 0x0 KECCAK256 SWAP1 PUSH1 0x5 MUL ADD PUSH1 0x0 SWAP1 SWAP2 SWAP1 SWAP2 SWAP1 SWAP2 POP PUSH1 0x0 DUP3 ADD MLOAD DUP2 PUSH1 0x0 ADD PUSH1 0x0 PUSH2 0x100 EXP DUP2 SLOAD DUP2 PUSH20 0xFFFFFFFFFFFFFFFFFFFFFFFFFFFFFFFFFFFFFFFF MUL NOT AND SWAP1 DUP4 PUSH20 0xFFFFFFFFFFFFFFFFFFFFFFFFFFFFFFFFFFFFFFFF AND MUL OR SWAP1 SSTORE POP PUSH1 0x20 DUP3 ADD MLOAD DUP2 PUSH1 0x1 ADD SWAP1 DUP1 MLOAD SWAP1 PUSH1 0x20 ADD SWAP1 PUSH3 0x276 SWAP3 SWAP2 SWAP1 PUSH3 0x6F3 JUMP JUMPDEST POP PUSH1 0x40 DUP3 ADD MLOAD DUP2 PUSH1 0x2 ADD SWAP1 DUP1 MLOAD SWAP1 PUSH1 0x20 ADD SWAP1 PUSH3 0x295 SWAP3 SWAP2 SWAP1 PUSH3 0x6F3 JUMP JUMPDEST POP PUSH1 0x60 DUP3 ADD MLOAD DUP2 PUSH1 0x3 ADD PUSH1 0x0 PUSH2 0x100 EXP DUP2 SLOAD DUP2 PUSH20 0xFFFFFFFFFFFFFFFFFFFFFFFFFFFFFFFFFFFFFFFF MUL NOT AND SWAP1 DUP4 PUSH20 0xFFFFFFFFFFFFFFFFFFFFFFFFFFFFFFFFFFFFFFFF AND MUL OR SWAP1 SSTORE POP PUSH1 0x80 DUP3 ADD MLOAD DUP2 PUSH1 0x4 ADD SSTORE POP POP POP POP POP POP POP POP POP POP JUMP JUMPDEST PUSH1 0x0 DUP2 DUP2 SLOAD DUP2 LT PUSH3 0x304 JUMPI PUSH1 0x0 DUP1 REVERT JUMPDEST SWAP1 PUSH1 0x0 MSTORE PUSH1 0x20 PUSH1 0x0 KECCAK256 SWAP1 PUSH1 0x5 MUL ADD PUSH1 0x0 SWAP2 POP SWAP1 POP DUP1 PUSH1 0x0 ADD PUSH1 0x0 SWAP1 SLOAD SWAP1 PUSH2 0x100 EXP SWAP1 DIV PUSH20 0xFFFFFFFFFFFFFFFFFFFFFFFFFFFFFFFFFFFFFFFF AND SWAP1 DUP1 PUSH1 0x1 ADD DUP1 SLOAD PUSH3 0x34F SWAP1 PUSH3 0xC94 JUMP JUMPDEST DUP1 PUSH1 0x1F ADD PUSH1 0x20 DUP1 SWAP2 DIV MUL PUSH1 0x20 ADD PUSH1 0x40 MLOAD SWAP1 DUP2 ADD PUSH1 0x40 MSTORE DUP1 SWAP3 SWAP2 SWAP1 DUP2 DUP2 MSTORE PUSH1 0x20 ADD DUP3 DUP1 SLOAD PUSH3 0x37D SWAP1 PUSH3 0xC94 JUMP JUMPDEST DUP1 ISZERO PUSH3 0x3CE JUMPI DUP1 PUSH1 0x1F LT PUSH3 0x3A2 JUMPI PUSH2 0x100 DUP1 DUP4 SLOAD DIV MUL DUP4 MSTORE SWAP2 PUSH1 0x20 ADD SWAP2 PUSH3 0x3CE JUMP JUMPDEST DUP3 ADD SWAP2 SWAP1 PUSH1 0x0 MSTORE PUSH1 0x20 PUSH1 0x0 KECCAK256 SWAP1 JUMPDEST DUP2 SLOAD DUP2 MSTORE SWAP1 PUSH1 0x1 ADD SWAP1 PUSH1 0x20 ADD DUP1 DUP4 GT PUSH3 0x3B0 JUMPI DUP3 SWAP1 SUB PUSH1 0x1F AND DUP3 ADD SWAP2 JUMPDEST POP POP POP POP POP SWAP1 DUP1 PUSH1 0x2 ADD DUP1 SLOAD PUSH3 0x3E5 SWAP1 PUSH3 0xC94 JUMP JUMPDEST DUP1 PUSH1 0x1F ADD PUSH1 0x20 DUP1 SWAP2 DIV MUL PUSH1 0x20 ADD PUSH1 0x40 MLOAD SWAP1 DUP2 ADD PUSH1 0x40 MSTORE DUP1 SWAP3 SWAP2 SWAP1 DUP2 DUP2 MSTORE PUSH1 0x20 ADD DUP3 DUP1 SLOAD PUSH3 0x413 SWAP1 PUSH3 0xC94 JUMP JUMPDEST DUP1 ISZERO PUSH3 0x464 JUMPI DUP1 PUSH1 0x1F LT PUSH3 0x438 JUMPI PUSH2 0x100 DUP1 DUP4 SLOAD DIV MUL DUP4 MSTORE SWAP2 PUSH1 0x20 ADD SWAP2 PUSH3 0x464 JUMP JUMPDEST DUP3 ADD SWAP2 SWAP1 PUSH1 0x0 MSTORE PUSH1 0x20 PUSH1 0x0 KECCAK256 SWAP1 JUMPDEST DUP2 SLOAD DUP2 MSTORE SWAP1 PUSH1 0x1 ADD SWAP1 PUSH1 0x20 ADD DUP1 DUP4 GT PUSH3 0x446 JUMPI DUP3 SWAP1 SUB PUSH1 0x1F AND DUP3 ADD SWAP2 JUMPDEST POP POP POP POP POP SWAP1 DUP1 PUSH1 0x3 ADD PUSH1 0x0 SWAP1 SLOAD SWAP1 PUSH2 0x100 EXP SWAP1 DIV PUSH20 0xFFFFFFFFFFFFFFFFFFFFFFFFFFFFFFFFFFFFFFFF AND SWAP1 DUP1 PUSH1 0x4 ADD SLOAD SWAP1 POP DUP6 JUMP JUMPDEST PUSH1 0x60 PUSH1 0x0 DUP1 SLOAD DUP1 PUSH1 0x20 MUL PUSH1 0x20 ADD PUSH1 0x40 MLOAD SWAP1 DUP2 ADD PUSH1 0x40 MSTORE DUP1 SWAP3 SWAP2 SWAP1 DUP2 DUP2 MSTORE PUSH1 0x20 ADD PUSH1 0x0 SWAP1 JUMPDEST DUP3 DUP3 LT ISZERO PUSH3 0x6DC JUMPI DUP4 DUP3 SWAP1 PUSH1 0x0 MSTORE PUSH1 0x20 PUSH1 0x0 KECCAK256 SWAP1 PUSH1 0x5 MUL ADD PUSH1 0x40 MLOAD DUP1 PUSH1 0xA0 ADD PUSH1 0x40 MSTORE SWAP1 DUP2 PUSH1 0x0 DUP3 ADD PUSH1 0x0 SWAP1 SLOAD SWAP1 PUSH2 0x100 EXP SWAP1 DIV PUSH20 0xFFFFFFFFFFFFFFFFFFFFFFFFFFFFFFFFFFFFFFFF AND PUSH20 0xFFFFFFFFFFFFFFFFFFFFFFFFFFFFFFFFFFFFFFFF AND PUSH20 0xFFFFFFFFFFFFFFFFFFFFFFFFFFFFFFFFFFFFFFFF AND DUP2 MSTORE PUSH1 0x20 ADD PUSH1 0x1 DUP3 ADD DUP1 SLOAD PUSH3 0x54A SWAP1 PUSH3 0xC94 JUMP JUMPDEST DUP1 PUSH1 0x1F ADD PUSH1 0x20 DUP1 SWAP2 DIV MUL PUSH1 0x20 ADD PUSH1 0x40 MLOAD SWAP1 DUP2 ADD PUSH1 0x40 MSTORE DUP1 SWAP3 SWAP2 SWAP1 DUP2 DUP2 MSTORE PUSH1 0x20 ADD DUP3 DUP1 SLOAD PUSH3 0x578 SWAP1 PUSH3 0xC94 JUMP JUMPDEST DUP1 ISZERO PUSH3 0x5C9 JUMPI DUP1 PUSH1 0x1F LT PUSH3 0x59D JUMPI PUSH2 0x100 DUP1 DUP4 SLOAD DIV MUL DUP4 MSTORE SWAP2 PUSH1 0x20 ADD SWAP2 PUSH3 0x5C9 JUMP JUMPDEST DUP3 ADD SWAP2 SWAP1 PUSH1 0x0 MSTORE PUSH1 0x20 PUSH1 0x0 KECCAK256 SWAP1 JUMPDEST DUP2 SLOAD DUP2 MSTORE SWAP1 PUSH1 0x1 ADD SWAP1 PUSH1 0x20 ADD DUP1 DUP4 GT PUSH3 0x5AB JUMPI DUP3 SWAP1 SUB PUSH1 0x1F AND DUP3 ADD SWAP2 JUMPDEST POP POP POP POP POP DUP2 MSTORE PUSH1 0x20 ADD PUSH1 0x2 DUP3 ADD DUP1 SLOAD PUSH3 0x5E4 SWAP1 PUSH3 0xC94 JUMP JUMPDEST DUP1 PUSH1 0x1F ADD PUSH1 0x20 DUP1 SWAP2 DIV MUL PUSH1 0x20 ADD PUSH1 0x40 MLOAD SWAP1 DUP2 ADD PUSH1 0x40 MSTORE DUP1 SWAP3 SWAP2 SWAP1 DUP2 DUP2 MSTORE PUSH1 0x20 ADD DUP3 DUP1 SLOAD PUSH3 0x612 SWAP1 PUSH3 0xC94 JUMP JUMPDEST DUP1 ISZERO PUSH3 0x663 JUMPI DUP1 PUSH1 0x1F LT PUSH3 0x637 JUMPI PUSH2 0x100 DUP1 DUP4 SLOAD DIV MUL DUP4 MSTORE SWAP2 PUSH1 0x20 ADD SWAP2 PUSH3 0x663 JUMP JUMPDEST DUP3 ADD SWAP2 SWAP1 PUSH1 0x0 MSTORE PUSH1 0x20 PUSH1 0x0 KECCAK256 SWAP1 JUMPDEST DUP2 SLOAD DUP2 MSTORE SWAP1 PUSH1 0x1 ADD SWAP1 PUSH1 0x20 ADD DUP1 DUP4 GT PUSH3 0x645 JUMPI DUP3 SWAP1 SUB PUSH1 0x1F AND DUP3 ADD SWAP2 JUMPDEST POP POP POP POP POP DUP2 MSTORE PUSH1 0x20 ADD PUSH1 0x3 DUP3 ADD PUSH1 0x0 SWAP1 SLOAD SWAP1 PUSH2 0x100 EXP SWAP1 DIV PUSH20 0xFFFFFFFFFFFFFFFFFFFFFFFFFFFFFFFFFFFFFFFF AND PUSH20 0xFFFFFFFFFFFFFFFFFFFFFFFFFFFFFFFFFFFFFFFF AND PUSH20 0xFFFFFFFFFFFFFFFFFFFFFFFFFFFFFFFFFFFFFFFF AND DUP2 MSTORE PUSH1 0x20 ADD PUSH1 0x4 DUP3 ADD SLOAD DUP2 MSTORE POP POP DUP2 MSTORE PUSH1 0x20 ADD SWAP1 PUSH1 0x1 ADD SWAP1 PUSH3 0x4BE JUMP JUMPDEST POP POP POP POP SWAP1 POP SWAP1 JUMP JUMPDEST PUSH2 0x11E0 DUP1 PUSH3 0xD58 DUP4 CODECOPY ADD SWAP1 JUMP JUMPDEST DUP3 DUP1 SLOAD PUSH3 0x701 SWAP1 PUSH3 0xC94 JUMP JUMPDEST SWAP1 PUSH1 0x0 MSTORE PUSH1 0x20 PUSH1 0x0 KECCAK256 SWAP1 PUSH1 0x1F ADD PUSH1 0x20 SWAP1 DIV DUP2 ADD SWAP3 DUP3 PUSH3 0x725 JUMPI PUSH1 0x0 DUP6 SSTORE PUSH3 0x771 JUMP JUMPDEST DUP3 PUSH1 0x1F LT PUSH3 0x740 JUMPI DUP1 MLOAD PUSH1 0xFF NOT AND DUP4 DUP1 ADD OR DUP6 SSTORE PUSH3 0x771 JUMP JUMPDEST DUP3 DUP1 ADD PUSH1 0x1 ADD DUP6 SSTORE DUP3 ISZERO PUSH3 0x771 JUMPI SWAP2 DUP3 ADD JUMPDEST DUP3 DUP2 GT ISZERO PUSH3 0x770 JUMPI DUP3 MLOAD DUP3 SSTORE SWAP2 PUSH1 0x20 ADD SWAP2 SWAP1 PUSH1 0x1 ADD SWAP1 PUSH3 0x753 JUMP JUMPDEST JUMPDEST POP SWAP1 POP PUSH3 0x780 SWAP2 SWAP1 PUSH3 0x784 JUMP JUMPDEST POP SWAP1 JUMP JUMPDEST JUMPDEST DUP1 DUP3 GT ISZERO PUSH3 0x79F JUMPI PUSH1 0x0 DUP2 PUSH1 0x0 SWAP1 SSTORE POP PUSH1 0x1 ADD PUSH3 0x785 JUMP JUMPDEST POP SWAP1 JUMP JUMPDEST PUSH1 0x0 DUP2 CALLDATALOAD SWAP1 POP PUSH3 0x7B4 DUP2 PUSH3 0xD23 JUMP JUMPDEST SWAP3 SWAP2 POP POP JUMP JUMPDEST PUSH1 0x0 DUP1 DUP4 PUSH1 0x1F DUP5 ADD SLT PUSH3 0x7D3 JUMPI PUSH3 0x7D2 PUSH3 0xCFE JUMP JUMPDEST JUMPDEST DUP3 CALLDATALOAD SWAP1 POP PUSH8 0xFFFFFFFFFFFFFFFF DUP2 GT ISZERO PUSH3 0x7F3 JUMPI PUSH3 0x7F2 PUSH3 0xCF9 JUMP JUMPDEST JUMPDEST PUSH1 0x20 DUP4 ADD SWAP2 POP DUP4 PUSH1 0x1 DUP3 MUL DUP4 ADD GT ISZERO PUSH3 0x812 JUMPI PUSH3 0x811 PUSH3 0xD03 JUMP JUMPDEST JUMPDEST SWAP3 POP SWAP3 SWAP1 POP JUMP JUMPDEST PUSH1 0x0 DUP2 CALLDATALOAD SWAP1 POP PUSH3 0x82A DUP2 PUSH3 0xD3D JUMP JUMPDEST SWAP3 SWAP2 POP POP JUMP JUMPDEST PUSH1 0x0 DUP1 PUSH1 0x0 DUP1 PUSH1 0x0 DUP1 PUSH1 0x80 DUP8 DUP10 SUB SLT ISZERO PUSH3 0x850 JUMPI PUSH3 0x84F PUSH3 0xD0D JUMP JUMPDEST JUMPDEST PUSH1 0x0 DUP8 ADD CALLDATALOAD PUSH8 0xFFFFFFFFFFFFFFFF DUP2 GT ISZERO PUSH3 0x871 JUMPI PUSH3 0x870 PUSH3 0xD08 JUMP JUMPDEST JUMPDEST PUSH3 0x87F DUP10 DUP3 DUP11 ADD PUSH3 0x7BA JUMP JUMPDEST SWAP7 POP SWAP7 POP POP PUSH1 0x20 DUP8 ADD CALLDATALOAD PUSH8 0xFFFFFFFFFFFFFFFF DUP2 GT ISZERO PUSH3 0x8A5 JUMPI PUSH3 0x8A4 PUSH3 0xD08 JUMP JUMPDEST JUMPDEST PUSH3 0x8B3 DUP10 DUP3 DUP11 ADD PUSH3 0x7BA JUMP JUMPDEST SWAP5 POP SWAP5 POP POP PUSH1 0x40 PUSH3 0x8C8 DUP10 DUP3 DUP11 ADD PUSH3 0x7A3 JUMP JUMPDEST SWAP3 POP POP PUSH1 0x60 PUSH3 0x8DB DUP10 DUP3 DUP11 ADD PUSH3 0x819 JUMP JUMPDEST SWAP2 POP POP SWAP3 SWAP6 POP SWAP3 SWAP6 POP SWAP3 SWAP6 JUMP JUMPDEST PUSH1 0x0 PUSH1 0x20 DUP3 DUP5 SUB SLT ISZERO PUSH3 0x901 JUMPI PUSH3 0x900 PUSH3 0xD0D JUMP JUMPDEST JUMPDEST PUSH1 0x0 PUSH3 0x911 DUP5 DUP3 DUP6 ADD PUSH3 0x819 JUMP JUMPDEST SWAP2 POP POP SWAP3 SWAP2 POP POP JUMP JUMPDEST PUSH1 0x0 PUSH3 0x928 DUP4 DUP4 PUSH3 0xA55 JUMP JUMPDEST SWAP1 POP SWAP3 SWAP2 POP POP JUMP JUMPDEST PUSH3 0x93B DUP2 PUSH3 0xC20 JUMP JUMPDEST DUP3 MSTORE POP POP JUMP JUMPDEST PUSH3 0x94C DUP2 PUSH3 0xC20 JUMP JUMPDEST DUP3 MSTORE POP POP JUMP JUMPDEST PUSH1 0x0 PUSH3 0x95F DUP3 PUSH3 0xBCA JUMP JUMPDEST PUSH3 0x96B DUP2 DUP6 PUSH3 0xBED JUMP JUMPDEST SWAP4 POP DUP4 PUSH1 0x20 DUP3 MUL DUP6 ADD PUSH3 0x97F DUP6 PUSH3 0xBBA JUMP JUMPDEST DUP1 PUSH1 0x0 JUMPDEST DUP6 DUP2 LT ISZERO PUSH3 0x9C1 JUMPI DUP5 DUP5 SUB DUP10 MSTORE DUP2 MLOAD PUSH3 0x99F DUP6 DUP3 PUSH3 0x91A JUMP JUMPDEST SWAP5 POP PUSH3 0x9AC DUP4 PUSH3 0xBE0 JUMP JUMPDEST SWAP3 POP PUSH1 0x20 DUP11 ADD SWAP10 POP POP PUSH1 0x1 DUP2 ADD SWAP1 POP PUSH3 0x983 JUMP JUMPDEST POP DUP3 SWAP8 POP DUP8 SWAP6 POP POP POP POP POP POP SWAP3 SWAP2 POP POP JUMP JUMPDEST PUSH1 0x0 PUSH3 0x9E0 DUP3 PUSH3 0xBD5 JUMP JUMPDEST PUSH3 0x9EC DUP2 DUP6 PUSH3 0xBFE JUMP JUMPDEST SWAP4 POP PUSH3 0x9FE DUP2 DUP6 PUSH1 0x20 DUP7 ADD PUSH3 0xC5E JUMP JUMPDEST PUSH3 0xA09 DUP2 PUSH3 0xD12 JUMP JUMPDEST DUP5 ADD SWAP2 POP POP SWAP3 SWAP2 POP POP JUMP JUMPDEST PUSH1 0x0 PUSH3 0xA21 DUP3 PUSH3 0xBD5 JUMP JUMPDEST PUSH3 0xA2D DUP2 DUP6 PUSH3 0xC0F JUMP JUMPDEST SWAP4 POP PUSH3 0xA3F DUP2 DUP6 PUSH1 0x20 DUP7 ADD PUSH3 0xC5E JUMP JUMPDEST PUSH3 0xA4A DUP2 PUSH3 0xD12 JUMP JUMPDEST DUP5 ADD SWAP2 POP POP SWAP3 SWAP2 POP POP JUMP JUMPDEST PUSH1 0x0 PUSH1 0xA0 DUP4 ADD PUSH1 0x0 DUP4 ADD MLOAD PUSH3 0xA6F PUSH1 0x0 DUP7 ADD DUP3 PUSH3 0x930 JUMP JUMPDEST POP PUSH1 0x20 DUP4 ADD MLOAD DUP5 DUP3 SUB PUSH1 0x20 DUP7 ADD MSTORE PUSH3 0xA89 DUP3 DUP3 PUSH3 0x9D3 JUMP JUMPDEST SWAP2 POP POP PUSH1 0x40 DUP4 ADD MLOAD DUP5 DUP3 SUB PUSH1 0x40 DUP7 ADD MSTORE PUSH3 0xAA5 DUP3 DUP3 PUSH3 0x9D3 JUMP JUMPDEST SWAP2 POP POP PUSH1 0x60 DUP4 ADD MLOAD PUSH3 0xABC PUSH1 0x60 DUP7 ADD DUP3 PUSH3 0x930 JUMP JUMPDEST POP PUSH1 0x80 DUP4 ADD MLOAD PUSH3 0xAD1 PUSH1 0x80 DUP7 ADD DUP3 PUSH3 0xADC JUMP JUMPDEST POP DUP1 SWAP2 POP POP SWAP3 SWAP2 POP POP JUMP JUMPDEST PUSH3 0xAE7 DUP2 PUSH3 0xC54 JUMP JUMPDEST DUP3 MSTORE POP POP JUMP JUMPDEST PUSH3 0xAF8 DUP2 PUSH3 0xC54 JUMP JUMPDEST DUP3 MSTORE POP POP JUMP JUMPDEST PUSH1 0x0 PUSH1 0xA0 DUP3 ADD SWAP1 POP PUSH3 0xB15 PUSH1 0x0 DUP4 ADD DUP9 PUSH3 0x941 JUMP JUMPDEST DUP2 DUP2 SUB PUSH1 0x20 DUP4 ADD MSTORE PUSH3 0xB29 DUP2 DUP8 PUSH3 0xA14 JUMP JUMPDEST SWAP1 POP DUP2 DUP2 SUB PUSH1 0x40 DUP4 ADD MSTORE PUSH3 0xB3F DUP2 DUP7 PUSH3 0xA14 JUMP JUMPDEST SWAP1 POP PUSH3 0xB50 PUSH1 0x60 DUP4 ADD DUP6 PUSH3 0x941 JUMP JUMPDEST PUSH3 0xB5F PUSH1 0x80 DUP4 ADD DUP5 PUSH3 0xAED JUMP JUMPDEST SWAP7 SWAP6 POP POP POP POP POP POP JUMP JUMPDEST PUSH1 0x0 PUSH1 0x20 DUP3 ADD SWAP1 POP DUP2 DUP2 SUB PUSH1 0x0 DUP4 ADD MSTORE PUSH3 0xB85 DUP2 DUP5 PUSH3 0x952 JUMP JUMPDEST SWAP1 POP SWAP3 SWAP2 POP POP JUMP JUMPDEST PUSH1 0x0 PUSH1 0x40 DUP3 ADD SWAP1 POP PUSH3 0xBA4 PUSH1 0x0 DUP4 ADD DUP6 PUSH3 0xAED JUMP JUMPDEST PUSH3 0xBB3 PUSH1 0x20 DUP4 ADD DUP5 PUSH3 0x941 JUMP JUMPDEST SWAP4 SWAP3 POP POP POP JUMP JUMPDEST PUSH1 0x0 DUP2 SWAP1 POP PUSH1 0x20 DUP3 ADD SWAP1 POP SWAP2 SWAP1 POP JUMP JUMPDEST PUSH1 0x0 DUP2 MLOAD SWAP1 POP SWAP2 SWAP1 POP JUMP JUMPDEST PUSH1 0x0 DUP2 MLOAD SWAP1 POP SWAP2 SWAP1 POP JUMP JUMPDEST PUSH1 0x0 PUSH1 0x20 DUP3 ADD SWAP1 POP SWAP2 SWAP1 POP JUMP JUMPDEST PUSH1 0x0 DUP3 DUP3 MSTORE PUSH1 0x20 DUP3 ADD SWAP1 POP SWAP3 SWAP2 POP POP JUMP JUMPDEST PUSH1 0x0 DUP3 DUP3 MSTORE PUSH1 0x20 DUP3 ADD SWAP1 POP SWAP3 SWAP2 POP POP JUMP JUMPDEST PUSH1 0x0 DUP3 DUP3 MSTORE PUSH1 0x20 DUP3 ADD SWAP1 POP SWAP3 SWAP2 POP POP JUMP JUMPDEST PUSH1 0x0 PUSH3 0xC2D DUP3 PUSH3 0xC34 JUMP JUMPDEST SWAP1 POP SWAP2 SWAP1 POP JUMP JUMPDEST PUSH1 0x0 PUSH20 0xFFFFFFFFFFFFFFFFFFFFFFFFFFFFFFFFFFFFFFFF DUP3 AND SWAP1 POP SWAP2 SWAP1 POP JUMP JUMPDEST PUSH1 0x0 DUP2 SWAP1 POP SWAP2 SWAP1 POP JUMP JUMPDEST PUSH1 0x0 JUMPDEST DUP4 DUP2 LT ISZERO PUSH3 0xC7E JUMPI DUP1 DUP3 ADD MLOAD DUP2 DUP5 ADD MSTORE PUSH1 0x20 DUP2 ADD SWAP1 POP PUSH3 0xC61 JUMP JUMPDEST DUP4 DUP2 GT ISZERO PUSH3 0xC8E JUMPI PUSH1 0x0 DUP5 DUP5 ADD MSTORE JUMPDEST POP POP POP POP JUMP JUMPDEST PUSH1 0x0 PUSH1 0x2 DUP3 DIV SWAP1 POP PUSH1 0x1 DUP3 AND DUP1 PUSH3 0xCAD JUMPI PUSH1 0x7F DUP3 AND SWAP2 POP JUMPDEST PUSH1 0x20 DUP3 LT DUP2 EQ ISZERO PUSH3 0xCC4 JUMPI PUSH3 0xCC3 PUSH3 0xCCA JUMP JUMPDEST JUMPDEST POP SWAP2 SWAP1 POP JUMP JUMPDEST PUSH32 0x4E487B7100000000000000000000000000000000000000000000000000000000 PUSH1 0x0 MSTORE PUSH1 0x22 PUSH1 0x4 MSTORE PUSH1 0x24 PUSH1 0x0 REVERT JUMPDEST PUSH1 0x0 DUP1 REVERT JUMPDEST PUSH1 0x0 DUP1 REVERT JUMPDEST PUSH1 0x0 DUP1 REVERT JUMPDEST PUSH1 0x0 DUP1 REVERT JUMPDEST PUSH1 0x0 DUP1 REVERT JUMPDEST PUSH1 0x0 PUSH1 0x1F NOT PUSH1 0x1F DUP4 ADD AND SWAP1 POP SWAP2 SWAP1 POP JUMP JUMPDEST PUSH3 0xD2E DUP2 PUSH3 0xC20 JUMP JUMPDEST DUP2 EQ PUSH3 0xD3A JUMPI PUSH1 0x0 DUP1 REVERT JUMPDEST POP JUMP JUMPDEST PUSH3 0xD48 DUP2 PUSH3 0xC54 JUMP JUMPDEST DUP2 EQ PUSH3 0xD54 JUMPI PUSH1 0x0 DUP1 REVERT JUMPDEST POP JUMP INVALID PUSH1 0x80 PUSH1 0x40 MSTORE CALLVALUE DUP1 ISZERO PUSH3 0x11 JUMPI PUSH1 0x0 DUP1 REVERT JUMPDEST POP PUSH1 0x40 MLOAD PUSH3 0x11E0 CODESIZE SUB DUP1 PUSH3 0x11E0 DUP4 CODECOPY DUP2 DUP2 ADD PUSH1 0x40 MSTORE DUP2 ADD SWAP1 PUSH3 0x37 SWAP2 SWAP1 PUSH3 0xB5 JUMP JUMPDEST DUP1 PUSH1 0x2 PUSH1 0x0 PUSH2 0x100 EXP DUP2 SLOAD DUP2 PUSH20 0xFFFFFFFFFFFFFFFFFFFFFFFFFFFFFFFFFFFFFFFF MUL NOT AND SWAP1 DUP4 PUSH20 0xFFFFFFFFFFFFFFFFFFFFFFFFFFFFFFFFFFFFFFFF AND MUL OR SWAP1 SSTORE POP DUP2 PUSH1 0x3 DUP2 SWAP1 SSTORE POP POP POP PUSH3 0x173 JUMP JUMPDEST PUSH1 0x0 DUP2 MLOAD SWAP1 POP PUSH3 0x98 DUP2 PUSH3 0x13F JUMP JUMPDEST SWAP3 SWAP2 POP POP JUMP JUMPDEST PUSH1 0x0 DUP2 MLOAD SWAP1 POP PUSH3 0xAF DUP2 PUSH3 0x159 JUMP JUMPDEST SWAP3 SWAP2 POP POP JUMP JUMPDEST PUSH1 0x0 DUP1 PUSH1 0x40 DUP4 DUP6 SUB SLT ISZERO PUSH3 0xCF JUMPI PUSH3 0xCE PUSH3 0x13A JUMP JUMPDEST JUMPDEST PUSH1 0x0 PUSH3 0xDF DUP6 DUP3 DUP7 ADD PUSH3 0x9E JUMP JUMPDEST SWAP3 POP POP PUSH1 0x20 PUSH3 0xF2 DUP6 DUP3 DUP7 ADD PUSH3 0x87 JUMP JUMPDEST SWAP2 POP POP SWAP3 POP SWAP3 SWAP1 POP JUMP JUMPDEST PUSH1 0x0 PUSH3 0x109 DUP3 PUSH3 0x110 JUMP JUMPDEST SWAP1 POP SWAP2 SWAP1 POP JUMP JUMPDEST PUSH1 0x0 PUSH20 0xFFFFFFFFFFFFFFFFFFFFFFFFFFFFFFFFFFFFFFFF DUP3 AND SWAP1 POP SWAP2 SWAP1 POP JUMP JUMPDEST PUSH1 0x0 DUP2 SWAP1 POP SWAP2 SWAP1 POP JUMP JUMPDEST PUSH1 0x0 DUP1 REVERT JUMPDEST PUSH3 0x14A DUP2 PUSH3 0xFC JUMP JUMPDEST DUP2 EQ PUSH3 0x156 JUMPI PUSH1 0x0 DUP1 REVERT JUMPDEST POP JUMP JUMPDEST PUSH3 0x164 DUP2 PUSH3 0x130 JUMP JUMPDEST DUP2 EQ PUSH3 0x170 JUMPI PUSH1 0x0 DUP1 REVERT JUMPDEST POP JUMP JUMPDEST PUSH2 0x105D DUP1 PUSH3 0x183 PUSH1 0x0 CODECOPY PUSH1 0x0 RETURN INVALID PUSH1 0x80 PUSH1 0x40 MSTORE PUSH1 0x4 CALLDATASIZE LT PUSH2 0x9C JUMPI PUSH1 0x0 CALLDATALOAD PUSH1 0xE0 SHR DUP1 PUSH4 0x81D12C58 GT PUSH2 0x64 JUMPI DUP1 PUSH4 0x81D12C58 EQ PUSH2 0x18C JUMPI DUP1 PUSH4 0x82FDE093 EQ PUSH2 0x1CD JUMPI DUP1 PUSH4 0x8A9CFD55 EQ PUSH2 0x1F8 JUMPI DUP1 PUSH4 0x937E09B1 EQ PUSH2 0x221 JUMPI DUP1 PUSH4 0xD7BB99BA EQ PUSH2 0x24C JUMPI DUP1 PUSH4 0xD7D1BBDB EQ PUSH2 0x256 JUMPI PUSH2 0x9C JUMP JUMPDEST DUP1 PUSH4 0x3441006 EQ PUSH2 0xA1 JUMPI DUP1 PUSH4 0xA144391 EQ PUSH2 0xCA JUMPI DUP1 PUSH4 0x3410452A EQ PUSH2 0x107 JUMPI DUP1 PUSH4 0x4051DDAC EQ PUSH2 0x132 JUMPI DUP1 PUSH4 0x481C6A75 EQ PUSH2 0x161 JUMPI JUMPDEST PUSH1 0x0 DUP1 REVERT JUMPDEST CALLVALUE DUP1 ISZERO PUSH2 0xAD JUMPI PUSH1 0x0 DUP1 REVERT JUMPDEST POP PUSH2 0xC8 PUSH1 0x4 DUP1 CALLDATASIZE SUB DUP2 ADD SWAP1 PUSH2 0xC3 SWAP2 SWAP1 PUSH2 0xACC JUMP JUMPDEST PUSH2 0x27F JUMP JUMPDEST STOP JUMPDEST CALLVALUE DUP1 ISZERO PUSH2 0xD6 JUMPI PUSH1 0x0 DUP1 REVERT JUMPDEST POP PUSH2 0xF1 PUSH1 0x4 DUP1 CALLDATASIZE SUB DUP2 ADD SWAP1 PUSH2 0xEC SWAP2 SWAP1 PUSH2 0xA2B JUMP JUMPDEST PUSH2 0x3EF JUMP JUMPDEST PUSH1 0x40 MLOAD PUSH2 0xFE SWAP2 SWAP1 PUSH2 0xBF2 JUMP JUMPDEST PUSH1 0x40 MLOAD DUP1 SWAP2 SUB SWAP1 RETURN JUMPDEST CALLVALUE DUP1 ISZERO PUSH2 0x113 JUMPI PUSH1 0x0 DUP1 REVERT JUMPDEST POP PUSH2 0x11C PUSH2 0x40F JUMP JUMPDEST PUSH1 0x40 MLOAD PUSH2 0x129 SWAP2 SWAP1 PUSH2 0xCC7 JUMP JUMPDEST PUSH1 0x40 MLOAD DUP1 SWAP2 SUB SWAP1 RETURN JUMPDEST CALLVALUE DUP1 ISZERO PUSH2 0x13E JUMPI PUSH1 0x0 DUP1 REVERT JUMPDEST POP PUSH2 0x147 PUSH2 0x419 JUMP JUMPDEST PUSH1 0x40 MLOAD PUSH2 0x158 SWAP6 SWAP5 SWAP4 SWAP3 SWAP2 SWAP1 PUSH2 0xCE2 JUMP JUMPDEST PUSH1 0x40 MLOAD DUP1 SWAP2 SUB SWAP1 RETURN JUMPDEST CALLVALUE DUP1 ISZERO PUSH2 0x16D JUMPI PUSH1 0x0 DUP1 REVERT JUMPDEST POP PUSH2 0x176 PUSH2 0x45F JUMP JUMPDEST PUSH1 0x40 MLOAD PUSH2 0x183 SWAP2 SWAP1 PUSH2 0xBD7 JUMP JUMPDEST PUSH1 0x40 MLOAD DUP1 SWAP2 SUB SWAP1 RETURN JUMPDEST CALLVALUE DUP1 ISZERO PUSH2 0x198 JUMPI PUSH1 0x0 DUP1 REVERT JUMPDEST POP PUSH2 0x1B3 PUSH1 0x4 DUP1 CALLDATASIZE SUB DUP2 ADD SWAP1 PUSH2 0x1AE SWAP2 SWAP1 PUSH2 0xACC JUMP JUMPDEST PUSH2 0x485 JUMP JUMPDEST PUSH1 0x40 MLOAD PUSH2 0x1C4 SWAP6 SWAP5 SWAP4 SWAP3 SWAP2 SWAP1 PUSH2 0xC0D JUMP JUMPDEST PUSH1 0x40 MLOAD DUP1 SWAP2 SUB SWAP1 RETURN JUMPDEST CALLVALUE DUP1 ISZERO PUSH2 0x1D9 JUMPI PUSH1 0x0 DUP1 REVERT JUMPDEST POP PUSH2 0x1E2 PUSH2 0x570 JUMP JUMPDEST PUSH1 0x40 MLOAD PUSH2 0x1EF SWAP2 SWAP1 PUSH2 0xCC7 JUMP JUMPDEST PUSH1 0x40 MLOAD DUP1 SWAP2 SUB SWAP1 RETURN JUMPDEST CALLVALUE DUP1 ISZERO PUSH2 0x204 JUMPI PUSH1 0x0 DUP1 REVERT JUMPDEST POP PUSH2 0x21F PUSH1 0x4 DUP1 CALLDATASIZE SUB DUP2 ADD SWAP1 PUSH2 0x21A SWAP2 SWAP1 PUSH2 0xA58 JUMP JUMPDEST PUSH2 0x576 JUMP JUMPDEST STOP JUMPDEST CALLVALUE DUP1 ISZERO PUSH2 0x22D JUMPI PUSH1 0x0 DUP1 REVERT JUMPDEST POP PUSH2 0x236 PUSH2 0x6C4 JUMP JUMPDEST PUSH1 0x40 MLOAD PUSH2 0x243 SWAP2 SWAP1 PUSH2 0xCC7 JUMP JUMPDEST PUSH1 0x40 MLOAD DUP1 SWAP2 SUB SWAP1 RETURN JUMPDEST PUSH2 0x254 PUSH2 0x6CA JUMP JUMPDEST STOP JUMPDEST CALLVALUE DUP1 ISZERO PUSH2 0x262 JUMPI PUSH1 0x0 DUP1 REVERT JUMPDEST POP PUSH2 0x27D PUSH1 0x4 DUP1 CALLDATASIZE SUB DUP2 ADD SWAP1 PUSH2 0x278 SWAP2 SWAP1 PUSH2 0xACC JUMP JUMPDEST PUSH2 0x74A JUMP JUMPDEST STOP JUMPDEST PUSH1 0x2 PUSH1 0x0 SWAP1 SLOAD SWAP1 PUSH2 0x100 EXP SWAP1 DIV PUSH20 0xFFFFFFFFFFFFFFFFFFFFFFFFFFFFFFFFFFFFFFFF AND PUSH20 0xFFFFFFFFFFFFFFFFFFFFFFFFFFFFFFFFFFFFFFFF AND CALLER PUSH20 0xFFFFFFFFFFFFFFFFFFFFFFFFFFFFFFFFFFFFFFFF AND EQ PUSH2 0x30F JUMPI PUSH1 0x40 MLOAD PUSH32 0x8C379A000000000000000000000000000000000000000000000000000000000 DUP2 MSTORE PUSH1 0x4 ADD PUSH2 0x306 SWAP1 PUSH2 0xC67 JUMP JUMPDEST PUSH1 0x40 MLOAD DUP1 SWAP2 SUB SWAP1 REVERT JUMPDEST PUSH1 0x0 DUP1 PUSH1 0x0 DUP4 DUP2 MSTORE PUSH1 0x20 ADD SWAP1 DUP2 MSTORE PUSH1 0x20 ADD PUSH1 0x0 KECCAK256 SWAP1 POP PUSH1 0x2 PUSH1 0x5 SLOAD PUSH2 0x334 SWAP2 SWAP1 PUSH2 0xD51 JUMP JUMPDEST DUP2 PUSH1 0x3 ADD SLOAD GT PUSH2 0x343 JUMPI PUSH1 0x0 DUP1 REVERT JUMPDEST DUP1 PUSH1 0x2 ADD PUSH1 0x14 SWAP1 SLOAD SWAP1 PUSH2 0x100 EXP SWAP1 DIV PUSH1 0xFF AND ISZERO PUSH2 0x35F JUMPI PUSH1 0x0 DUP1 REVERT JUMPDEST DUP1 PUSH1 0x2 ADD PUSH1 0x0 SWAP1 SLOAD SWAP1 PUSH2 0x100 EXP SWAP1 DIV PUSH20 0xFFFFFFFFFFFFFFFFFFFFFFFFFFFFFFFFFFFFFFFF AND PUSH20 0xFFFFFFFFFFFFFFFFFFFFFFFFFFFFFFFFFFFFFFFF AND PUSH2 0x8FC DUP3 PUSH1 0x1 ADD SLOAD SWAP1 DUP2 ISZERO MUL SWAP1 PUSH1 0x40 MLOAD PUSH1 0x0 PUSH1 0x40 MLOAD DUP1 DUP4 SUB DUP2 DUP6 DUP9 DUP9 CALL SWAP4 POP POP POP POP ISZERO DUP1 ISZERO PUSH2 0x3CD JUMPI RETURNDATASIZE PUSH1 0x0 DUP1 RETURNDATACOPY RETURNDATASIZE PUSH1 0x0 REVERT JUMPDEST POP PUSH1 0x1 DUP2 PUSH1 0x2 ADD PUSH1 0x14 PUSH2 0x100 EXP DUP2 SLOAD DUP2 PUSH1 0xFF MUL NOT AND SWAP1 DUP4 ISZERO ISZERO MUL OR SWAP1 SSTORE POP POP POP JUMP JUMPDEST PUSH1 0x4 PUSH1 0x20 MSTORE DUP1 PUSH1 0x0 MSTORE PUSH1 0x40 PUSH1 0x0 KECCAK256 PUSH1 0x0 SWAP2 POP SLOAD SWAP1 PUSH2 0x100 EXP SWAP1 DIV PUSH1 0xFF AND DUP2 JUMP JUMPDEST PUSH1 0x0 PUSH1 0x1 SLOAD SWAP1 POP SWAP1 JUMP JUMPDEST PUSH1 0x0 DUP1 PUSH1 0x0 DUP1 PUSH1 0x0 PUSH1 0x3 SLOAD SELFBALANCE PUSH1 0x1 SLOAD PUSH1 0x5 SLOAD PUSH1 0x2 PUSH1 0x0 SWAP1 SLOAD SWAP1 PUSH2 0x100 EXP SWAP1 DIV PUSH20 0xFFFFFFFFFFFFFFFFFFFFFFFFFFFFFFFFFFFFFFFF AND SWAP5 POP SWAP5 POP SWAP5 POP SWAP5 POP SWAP5 POP SWAP1 SWAP2 SWAP3 SWAP4 SWAP5 JUMP JUMPDEST PUSH1 0x2 PUSH1 0x0 SWAP1 SLOAD SWAP1 PUSH2 0x100 EXP SWAP1 DIV PUSH20 0xFFFFFFFFFFFFFFFFFFFFFFFFFFFFFFFFFFFFFFFF AND DUP2 JUMP JUMPDEST PUSH1 0x0 PUSH1 0x20 MSTORE DUP1 PUSH1 0x0 MSTORE PUSH1 0x40 PUSH1 0x0 KECCAK256 PUSH1 0x0 SWAP2 POP SWAP1 POP DUP1 PUSH1 0x0 ADD DUP1 SLOAD PUSH2 0x4A8 SWAP1 PUSH2 0xE0F JUMP JUMPDEST DUP1 PUSH1 0x1F ADD PUSH1 0x20 DUP1 SWAP2 DIV MUL PUSH1 0x20 ADD PUSH1 0x40 MLOAD SWAP1 DUP2 ADD PUSH1 0x40 MSTORE DUP1 SWAP3 SWAP2 SWAP1 DUP2 DUP2 MSTORE PUSH1 0x20 ADD DUP3 DUP1 SLOAD PUSH2 0x4D4 SWAP1 PUSH2 0xE0F JUMP JUMPDEST DUP1 ISZERO PUSH2 0x521 JUMPI DUP1 PUSH1 0x1F LT PUSH2 0x4F6 JUMPI PUSH2 0x100 DUP1 DUP4 SLOAD DIV MUL DUP4 MSTORE SWAP2 PUSH1 0x20 ADD SWAP2 PUSH2 0x521 JUMP JUMPDEST DUP3 ADD SWAP2 SWAP1 PUSH1 0x0 MSTORE PUSH1 0x20 PUSH1 0x0 KECCAK256 SWAP1 JUMPDEST DUP2 SLOAD DUP2 MSTORE SWAP1 PUSH1 0x1 ADD SWAP1 PUSH1 0x20 ADD DUP1 DUP4 GT PUSH2 0x504 JUMPI DUP3 SWAP1 SUB PUSH1 0x1F AND DUP3 ADD SWAP2 JUMPDEST POP POP POP POP POP SWAP1 DUP1 PUSH1 0x1 ADD SLOAD SWAP1 DUP1 PUSH1 0x2 ADD PUSH1 0x0 SWAP1 SLOAD SWAP1 PUSH2 0x100 EXP SWAP1 DIV PUSH20 0xFFFFFFFFFFFFFFFFFFFFFFFFFFFFFFFFFFFFFFFF AND SWAP1 DUP1 PUSH1 0x2 ADD PUSH1 0x14 SWAP1 SLOAD SWAP1 PUSH2 0x100 EXP SWAP1 DIV PUSH1 0xFF AND SWAP1 DUP1 PUSH1 0x3 ADD SLOAD SWAP1 POP DUP6 JUMP JUMPDEST PUSH1 0x5 SLOAD DUP2 JUMP JUMPDEST PUSH1 0x2 PUSH1 0x0 SWAP1 SLOAD SWAP1 PUSH2 0x100 EXP SWAP1 DIV PUSH20 0xFFFFFFFFFFFFFFFFFFFFFFFFFFFFFFFFFFFFFFFF AND PUSH20 0xFFFFFFFFFFFFFFFFFFFFFFFFFFFFFFFFFFFFFFFF AND CALLER PUSH20 0xFFFFFFFFFFFFFFFFFFFFFFFFFFFFFFFFFFFFFFFF AND EQ PUSH2 0x606 JUMPI PUSH1 0x40 MLOAD PUSH32 0x8C379A000000000000000000000000000000000000000000000000000000000 DUP2 MSTORE PUSH1 0x4 ADD PUSH2 0x5FD SWAP1 PUSH2 0xC67 JUMP JUMPDEST PUSH1 0x40 MLOAD DUP1 SWAP2 SUB SWAP1 REVERT JUMPDEST PUSH1 0x0 DUP1 PUSH1 0x0 PUSH1 0x1 SLOAD DUP2 MSTORE PUSH1 0x20 ADD SWAP1 DUP2 MSTORE PUSH1 0x20 ADD PUSH1 0x0 KECCAK256 SWAP1 POP DUP5 DUP5 DUP3 PUSH1 0x0 ADD SWAP2 SWAP1 PUSH2 0x631 SWAP3 SWAP2 SWAP1 PUSH2 0x8F3 JUMP JUMPDEST POP DUP3 DUP2 PUSH1 0x1 ADD DUP2 SWAP1 SSTORE POP DUP2 DUP2 PUSH1 0x2 ADD PUSH1 0x0 PUSH2 0x100 EXP DUP2 SLOAD DUP2 PUSH20 0xFFFFFFFFFFFFFFFFFFFFFFFFFFFFFFFFFFFFFFFF MUL NOT AND SWAP1 DUP4 PUSH20 0xFFFFFFFFFFFFFFFFFFFFFFFFFFFFFFFFFFFFFFFF AND MUL OR SWAP1 SSTORE POP PUSH1 0x0 DUP2 PUSH1 0x2 ADD PUSH1 0x14 PUSH2 0x100 EXP DUP2 SLOAD DUP2 PUSH1 0xFF MUL NOT AND SWAP1 DUP4 ISZERO ISZERO MUL OR SWAP1 SSTORE POP PUSH1 0x0 DUP2 PUSH1 0x3 ADD DUP2 SWAP1 SSTORE POP PUSH1 0x1 PUSH1 0x0 DUP2 SLOAD DUP1 SWAP3 SWAP2 SWAP1 PUSH2 0x6B8 SWAP1 PUSH2 0xE41 JUMP JUMPDEST SWAP2 SWAP1 POP SSTORE POP POP POP POP POP POP JUMP JUMPDEST PUSH1 0x3 SLOAD DUP2 JUMP JUMPDEST PUSH1 0x3 SLOAD CALLVALUE GT PUSH2 0x6D8 JUMPI PUSH1 0x0 DUP1 REVERT JUMPDEST PUSH1 0x1 PUSH1 0x4 PUSH1 0x0 CALLER PUSH20 0xFFFFFFFFFFFFFFFFFFFFFFFFFFFFFFFFFFFFFFFF AND PUSH20 0xFFFFFFFFFFFFFFFFFFFFFFFFFFFFFFFFFFFFFFFF AND DUP2 MSTORE PUSH1 0x20 ADD SWAP1 DUP2 MSTORE PUSH1 0x20 ADD PUSH1 0x0 KECCAK256 PUSH1 0x0 PUSH2 0x100 EXP DUP2 SLOAD DUP2 PUSH1 0xFF MUL NOT AND SWAP1 DUP4 ISZERO ISZERO MUL OR SWAP1 SSTORE POP PUSH1 0x5 PUSH1 0x0 DUP2 SLOAD DUP1 SWAP3 SWAP2 SWAP1 PUSH2 0x743 SWAP1 PUSH2 0xE41 JUMP JUMPDEST SWAP2 SWAP1 POP SSTORE POP JUMP JUMPDEST PUSH1 0x0 DUP1 PUSH1 0x0 DUP4 DUP2 MSTORE PUSH1 0x20 ADD SWAP1 DUP2 MSTORE PUSH1 0x20 ADD PUSH1 0x0 KECCAK256 SWAP1 POP PUSH1 0x4 PUSH1 0x0 CALLER PUSH20 0xFFFFFFFFFFFFFFFFFFFFFFFFFFFFFFFFFFFFFFFF AND PUSH20 0xFFFFFFFFFFFFFFFFFFFFFFFFFFFFFFFFFFFFFFFF AND DUP2 MSTORE PUSH1 0x20 ADD SWAP1 DUP2 MSTORE PUSH1 0x20 ADD PUSH1 0x0 KECCAK256 PUSH1 0x0 SWAP1 SLOAD SWAP1 PUSH2 0x100 EXP SWAP1 DIV PUSH1 0xFF AND PUSH2 0x7EC JUMPI PUSH1 0x40 MLOAD PUSH32 0x8C379A000000000000000000000000000000000000000000000000000000000 DUP2 MSTORE PUSH1 0x4 ADD PUSH2 0x7E3 SWAP1 PUSH2 0xCA7 JUMP JUMPDEST PUSH1 0x40 MLOAD DUP1 SWAP2 SUB SWAP1 REVERT JUMPDEST DUP1 PUSH1 0x4 ADD PUSH1 0x0 CALLER PUSH20 0xFFFFFFFFFFFFFFFFFFFFFFFFFFFFFFFFFFFFFFFF AND PUSH20 0xFFFFFFFFFFFFFFFFFFFFFFFFFFFFFFFFFFFFFFFF AND DUP2 MSTORE PUSH1 0x20 ADD SWAP1 DUP2 MSTORE PUSH1 0x20 ADD PUSH1 0x0 KECCAK256 PUSH1 0x0 SWAP1 SLOAD SWAP1 PUSH2 0x100 EXP SWAP1 DIV PUSH1 0xFF AND ISZERO PUSH2 0x87B JUMPI PUSH1 0x40 MLOAD PUSH32 0x8C379A000000000000000000000000000000000000000000000000000000000 DUP2 MSTORE PUSH1 0x4 ADD PUSH2 0x872 SWAP1 PUSH2 0xC87 JUMP JUMPDEST PUSH1 0x40 MLOAD DUP1 SWAP2 SUB SWAP1 REVERT JUMPDEST PUSH1 0x1 DUP2 PUSH1 0x4 ADD PUSH1 0x0 CALLER PUSH20 0xFFFFFFFFFFFFFFFFFFFFFFFFFFFFFFFFFFFFFFFF AND PUSH20 0xFFFFFFFFFFFFFFFFFFFFFFFFFFFFFFFFFFFFFFFF AND DUP2 MSTORE PUSH1 0x20 ADD SWAP1 DUP2 MSTORE PUSH1 0x20 ADD PUSH1 0x0 KECCAK256 PUSH1 0x0 PUSH2 0x100 EXP DUP2 SLOAD DUP2 PUSH1 0xFF MUL NOT AND SWAP1 DUP4 ISZERO ISZERO MUL OR SWAP1 SSTORE POP DUP1 PUSH1 0x3 ADD PUSH1 0x0 DUP2 SLOAD DUP1 SWAP3 SWAP2 SWAP1 PUSH2 0x8EA SWAP1 PUSH2 0xE41 JUMP JUMPDEST SWAP2 SWAP1 POP SSTORE POP POP POP JUMP JUMPDEST DUP3 DUP1 SLOAD PUSH2 0x8FF SWAP1 PUSH2 0xE0F JUMP JUMPDEST SWAP1 PUSH1 0x0 MSTORE PUSH1 0x20 PUSH1 0x0 KECCAK256 SWAP1 PUSH1 0x1F ADD PUSH1 0x20 SWAP1 DIV DUP2 ADD SWAP3 DUP3 PUSH2 0x921 JUMPI PUSH1 0x0 DUP6 SSTORE PUSH2 0x968 JUMP JUMPDEST DUP3 PUSH1 0x1F LT PUSH2 0x93A JUMPI DUP1 CALLDATALOAD PUSH1 0xFF NOT AND DUP4 DUP1 ADD OR DUP6 SSTORE PUSH2 0x968 JUMP JUMPDEST DUP3 DUP1 ADD PUSH1 0x1 ADD DUP6 SSTORE DUP3 ISZERO PUSH2 0x968 JUMPI SWAP2 DUP3 ADD JUMPDEST DUP3 DUP2 GT ISZERO PUSH2 0x967 JUMPI DUP3 CALLDATALOAD DUP3 SSTORE SWAP2 PUSH1 0x20 ADD SWAP2 SWAP1 PUSH1 0x1 ADD SWAP1 PUSH2 0x94C JUMP JUMPDEST JUMPDEST POP SWAP1 POP PUSH2 0x975 SWAP2 SWAP1 PUSH2 0x979 JUMP JUMPDEST POP SWAP1 JUMP JUMPDEST JUMPDEST DUP1 DUP3 GT ISZERO PUSH2 0x992 JUMPI PUSH1 0x0 DUP2 PUSH1 0x0 SWAP1 SSTORE POP PUSH1 0x1 ADD PUSH2 0x97A JUMP JUMPDEST POP SWAP1 JUMP JUMPDEST PUSH1 0x0 DUP2 CALLDATALOAD SWAP1 POP PUSH2 0x9A5 DUP2 PUSH2 0xFE2 JUMP JUMPDEST SWAP3 SWAP2 POP POP JUMP JUMPDEST PUSH1 0x0 DUP2 CALLDATALOAD SWAP1 POP PUSH2 0x9BA DUP2 PUSH2 0xFF9 JUMP JUMPDEST SWAP3 SWAP2 POP POP JUMP JUMPDEST PUSH1 0x0 DUP1 DUP4 PUSH1 0x1F DUP5 ADD SLT PUSH2 0x9D6 JUMPI PUSH2 0x9D5 PUSH2 0xF1C JUMP JUMPDEST JUMPDEST DUP3 CALLDATALOAD SWAP1 POP PUSH8 0xFFFFFFFFFFFFFFFF DUP2 GT ISZERO PUSH2 0x9F3 JUMPI PUSH2 0x9F2 PUSH2 0xF17 JUMP JUMPDEST JUMPDEST PUSH1 0x20 DUP4 ADD SWAP2 POP DUP4 PUSH1 0x1 DUP3 MUL DUP4 ADD GT ISZERO PUSH2 0xA0F JUMPI PUSH2 0xA0E PUSH2 0xF21 JUMP JUMPDEST JUMPDEST SWAP3 POP SWAP3 SWAP1 POP JUMP JUMPDEST PUSH1 0x0 DUP2 CALLDATALOAD SWAP1 POP PUSH2 0xA25 DUP2 PUSH2 0x1010 JUMP JUMPDEST SWAP3 SWAP2 POP POP JUMP JUMPDEST PUSH1 0x0 PUSH1 0x20 DUP3 DUP5 SUB SLT ISZERO PUSH2 0xA41 JUMPI PUSH2 0xA40 PUSH2 0xF2B JUMP JUMPDEST JUMPDEST PUSH1 0x0 PUSH2 0xA4F DUP5 DUP3 DUP6 ADD PUSH2 0x996 JUMP JUMPDEST SWAP2 POP POP SWAP3 SWAP2 POP POP JUMP JUMPDEST PUSH1 0x0 DUP1 PUSH1 0x0 DUP1 PUSH1 0x60 DUP6 DUP8 SUB SLT ISZERO PUSH2 0xA72 JUMPI PUSH2 0xA71 PUSH2 0xF2B JUMP JUMPDEST JUMPDEST PUSH1 0x0 DUP6 ADD CALLDATALOAD PUSH8 0xFFFFFFFFFFFFFFFF DUP2 GT ISZERO PUSH2 0xA90 JUMPI PUSH2 0xA8F PUSH2 0xF26 JUMP JUMPDEST JUMPDEST PUSH2 0xA9C DUP8 DUP3 DUP9 ADD PUSH2 0x9C0 JUMP JUMPDEST SWAP5 POP SWAP5 POP POP PUSH1 0x20 PUSH2 0xAAF DUP8 DUP3 DUP9 ADD PUSH2 0xA16 JUMP JUMPDEST SWAP3 POP POP PUSH1 0x40 PUSH2 0xAC0 DUP8 DUP3 DUP9 ADD PUSH2 0x9AB JUMP JUMPDEST SWAP2 POP POP SWAP3 SWAP6 SWAP2 SWAP5 POP SWAP3 POP JUMP JUMPDEST PUSH1 0x0 PUSH1 0x20 DUP3 DUP5 SUB SLT ISZERO PUSH2 0xAE2 JUMPI PUSH2 0xAE1 PUSH2 0xF2B JUMP JUMPDEST JUMPDEST PUSH1 0x0 PUSH2 0xAF0 DUP5 DUP3 DUP6 ADD PUSH2 0xA16 JUMP JUMPDEST SWAP2 POP POP SWAP3 SWAP2 POP POP JUMP JUMPDEST PUSH2 0xB02 DUP2 PUSH2 0xD94 JUMP JUMPDEST DUP3 MSTORE POP POP JUMP JUMPDEST PUSH2 0xB11 DUP2 PUSH2 0xD82 JUMP JUMPDEST DUP3 MSTORE POP POP JUMP JUMPDEST PUSH2 0xB20 DUP2 PUSH2 0xDA6 JUMP JUMPDEST DUP3 MSTORE POP POP JUMP JUMPDEST PUSH1 0x0 PUSH2 0xB31 DUP3 PUSH2 0xD35 JUMP JUMPDEST PUSH2 0xB3B DUP2 DUP6 PUSH2 0xD40 JUMP JUMPDEST SWAP4 POP PUSH2 0xB4B DUP2 DUP6 PUSH1 0x20 DUP7 ADD PUSH2 0xDDC JUMP JUMPDEST PUSH2 0xB54 DUP2 PUSH2 0xF30 JUMP JUMPDEST DUP5 ADD SWAP2 POP POP SWAP3 SWAP2 POP POP JUMP JUMPDEST PUSH1 0x0 PUSH2 0xB6C PUSH1 0x1A DUP4 PUSH2 0xD40 JUMP JUMPDEST SWAP2 POP PUSH2 0xB77 DUP3 PUSH2 0xF41 JUMP JUMPDEST PUSH1 0x20 DUP3 ADD SWAP1 POP SWAP2 SWAP1 POP JUMP JUMPDEST PUSH1 0x0 PUSH2 0xB8F PUSH1 0x23 DUP4 PUSH2 0xD40 JUMP JUMPDEST SWAP2 POP PUSH2 0xB9A DUP3 PUSH2 0xF6A JUMP JUMPDEST PUSH1 0x40 DUP3 ADD SWAP1 POP SWAP2 SWAP1 POP JUMP JUMPDEST PUSH1 0x0 PUSH2 0xBB2 PUSH1 0x20 DUP4 PUSH2 0xD40 JUMP JUMPDEST SWAP2 POP PUSH2 0xBBD DUP3 PUSH2 0xFB9 JUMP JUMPDEST PUSH1 0x20 DUP3 ADD SWAP1 POP SWAP2 SWAP1 POP JUMP JUMPDEST PUSH2 0xBD1 DUP2 PUSH2 0xDD2 JUMP JUMPDEST DUP3 MSTORE POP POP JUMP JUMPDEST PUSH1 0x0 PUSH1 0x20 DUP3 ADD SWAP1 POP PUSH2 0xBEC PUSH1 0x0 DUP4 ADD DUP5 PUSH2 0xB08 JUMP JUMPDEST SWAP3 SWAP2 POP POP JUMP JUMPDEST PUSH1 0x0 PUSH1 0x20 DUP3 ADD SWAP1 POP PUSH2 0xC07 PUSH1 0x0 DUP4 ADD DUP5 PUSH2 0xB17 JUMP JUMPDEST SWAP3 SWAP2 POP POP JUMP JUMPDEST PUSH1 0x0 PUSH1 0xA0 DUP3 ADD SWAP1 POP DUP2 DUP2 SUB PUSH1 0x0 DUP4 ADD MSTORE PUSH2 0xC27 DUP2 DUP9 PUSH2 0xB26 JUMP JUMPDEST SWAP1 POP PUSH2 0xC36 PUSH1 0x20 DUP4 ADD DUP8 PUSH2 0xBC8 JUMP JUMPDEST PUSH2 0xC43 PUSH1 0x40 DUP4 ADD DUP7 PUSH2 0xAF9 JUMP JUMPDEST PUSH2 0xC50 PUSH1 0x60 DUP4 ADD DUP6 PUSH2 0xB17 JUMP JUMPDEST PUSH2 0xC5D PUSH1 0x80 DUP4 ADD DUP5 PUSH2 0xBC8 JUMP JUMPDEST SWAP7 SWAP6 POP POP POP POP POP POP JUMP JUMPDEST PUSH1 0x0 PUSH1 0x20 DUP3 ADD SWAP1 POP DUP2 DUP2 SUB PUSH1 0x0 DUP4 ADD MSTORE PUSH2 0xC80 DUP2 PUSH2 0xB5F JUMP JUMPDEST SWAP1 POP SWAP2 SWAP1 POP JUMP JUMPDEST PUSH1 0x0 PUSH1 0x20 DUP3 ADD SWAP1 POP DUP2 DUP2 SUB PUSH1 0x0 DUP4 ADD MSTORE PUSH2 0xCA0 DUP2 PUSH2 0xB82 JUMP JUMPDEST SWAP1 POP SWAP2 SWAP1 POP JUMP JUMPDEST PUSH1 0x0 PUSH1 0x20 DUP3 ADD SWAP1 POP DUP2 DUP2 SUB PUSH1 0x0 DUP4 ADD MSTORE PUSH2 0xCC0 DUP2 PUSH2 0xBA5 JUMP JUMPDEST SWAP1 POP SWAP2 SWAP1 POP JUMP JUMPDEST PUSH1 0x0 PUSH1 0x20 DUP3 ADD SWAP1 POP PUSH2 0xCDC PUSH1 0x0 DUP4 ADD DUP5 PUSH2 0xBC8 JUMP JUMPDEST SWAP3 SWAP2 POP POP JUMP JUMPDEST PUSH1 0x0 PUSH1 0xA0 DUP3 ADD SWAP1 POP PUSH2 0xCF7 PUSH1 0x0 DUP4 ADD DUP9 PUSH2 0xBC8 JUMP JUMPDEST PUSH2 0xD04 PUSH1 0x20 DUP4 ADD DUP8 PUSH2 0xBC8 JUMP JUMPDEST PUSH2 0xD11 PUSH1 0x40 DUP4 ADD DUP7 PUSH2 0xBC8 JUMP JUMPDEST PUSH2 0xD1E PUSH1 0x60 DUP4 ADD DUP6 PUSH2 0xBC8 JUMP JUMPDEST PUSH2 0xD2B PUSH1 0x80 DUP4 ADD DUP5 PUSH2 0xB08 JUMP JUMPDEST SWAP7 SWAP6 POP POP POP POP POP POP JUMP JUMPDEST PUSH1 0x0 DUP2 MLOAD SWAP1 POP SWAP2 SWAP1 POP JUMP JUMPDEST PUSH1 0x0 DUP3 DUP3 MSTORE PUSH1 0x20 DUP3 ADD SWAP1 POP SWAP3 SWAP2 POP POP JUMP JUMPDEST PUSH1 0x0 PUSH2 0xD5C DUP3 PUSH2 0xDD2 JUMP JUMPDEST SWAP2 POP PUSH2 0xD67 DUP4 PUSH2 0xDD2 JUMP JUMPDEST SWAP3 POP DUP3 PUSH2 0xD77 JUMPI PUSH2 0xD76 PUSH2 0xEB9 JUMP JUMPDEST JUMPDEST DUP3 DUP3 DIV SWAP1 POP SWAP3 SWAP2 POP POP JUMP JUMPDEST PUSH1 0x0 PUSH2 0xD8D DUP3 PUSH2 0xDB2 JUMP JUMPDEST SWAP1 POP SWAP2 SWAP1 POP JUMP JUMPDEST PUSH1 0x0 PUSH2 0xD9F DUP3 PUSH2 0xDB2 JUMP JUMPDEST SWAP1 POP SWAP2 SWAP1 POP JUMP JUMPDEST PUSH1 0x0 DUP2 ISZERO ISZERO SWAP1 POP SWAP2 SWAP1 POP JUMP JUMPDEST PUSH1 0x0 PUSH20 0xFFFFFFFFFFFFFFFFFFFFFFFFFFFFFFFFFFFFFFFF DUP3 AND SWAP1 POP SWAP2 SWAP1 POP JUMP JUMPDEST PUSH1 0x0 DUP2 SWAP1 POP SWAP2 SWAP1 POP JUMP JUMPDEST PUSH1 0x0 JUMPDEST DUP4 DUP2 LT ISZERO PUSH2 0xDFA JUMPI DUP1 DUP3 ADD MLOAD DUP2 DUP5 ADD MSTORE PUSH1 0x20 DUP2 ADD SWAP1 POP PUSH2 0xDDF JUMP JUMPDEST DUP4 DUP2 GT ISZERO PUSH2 0xE09 JUMPI PUSH1 0x0 DUP5 DUP5 ADD MSTORE JUMPDEST POP POP POP POP JUMP JUMPDEST PUSH1 0x0 PUSH1 0x2 DUP3 DIV SWAP1 POP PUSH1 0x1 DUP3 AND DUP1 PUSH2 0xE27 JUMPI PUSH1 0x7F DUP3 AND SWAP2 POP JUMPDEST PUSH1 0x20 DUP3 LT DUP2 EQ ISZERO PUSH2 0xE3B JUMPI PUSH2 0xE3A PUSH2 0xEE8 JUMP JUMPDEST JUMPDEST POP SWAP2 SWAP1 POP JUMP JUMPDEST PUSH1 0x0 PUSH2 0xE4C DUP3 PUSH2 0xDD2 JUMP JUMPDEST SWAP2 POP PUSH32 0xFFFFFFFFFFFFFFFFFFFFFFFFFFFFFFFFFFFFFFFFFFFFFFFFFFFFFFFFFFFFFFFF DUP3 EQ ISZERO PUSH2 0xE7F JUMPI PUSH2 0xE7E PUSH2 0xE8A JUMP JUMPDEST JUMPDEST PUSH1 0x1 DUP3 ADD SWAP1 POP SWAP2 SWAP1 POP JUMP JUMPDEST PUSH32 0x4E487B7100000000000000000000000000000000000000000000000000000000 PUSH1 0x0 MSTORE PUSH1 0x11 PUSH1 0x4 MSTORE PUSH1 0x24 PUSH1 0x0 REVERT JUMPDEST PUSH32 0x4E487B7100000000000000000000000000000000000000000000000000000000 PUSH1 0x0 MSTORE PUSH1 0x12 PUSH1 0x4 MSTORE PUSH1 0x24 PUSH1 0x0 REVERT JUMPDEST PUSH32 0x4E487B7100000000000000000000000000000000000000000000000000000000 PUSH1 0x0 MSTORE PUSH1 0x22 PUSH1 0x4 MSTORE PUSH1 0x24 PUSH1 0x0 REVERT JUMPDEST PUSH1 0x0 DUP1 REVERT JUMPDEST PUSH1 0x0 DUP1 REVERT JUMPDEST PUSH1 0x0 DUP1 REVERT JUMPDEST PUSH1 0x0 DUP1 REVERT JUMPDEST PUSH1 0x0 DUP1 REVERT JUMPDEST PUSH1 0x0 PUSH1 0x1F NOT PUSH1 0x1F DUP4 ADD AND SWAP1 POP SWAP2 SWAP1 POP JUMP JUMPDEST PUSH32 0x4F6E6C79206D616E616765722063616E2063616C6C2074686973000000000000 PUSH1 0x0 DUP3 ADD MSTORE POP JUMP JUMPDEST PUSH32 0x596F752061726520616C726561647920617070726F7665207468652072657175 PUSH1 0x0 DUP3 ADD MSTORE PUSH32 0x6573740000000000000000000000000000000000000000000000000000000000 PUSH1 0x20 DUP3 ADD MSTORE POP JUMP JUMPDEST PUSH32 0x4F6E6C79206120646F6E657220617070726F7665207468652072657175657374 PUSH1 0x0 DUP3 ADD MSTORE POP JUMP JUMPDEST PUSH2 0xFEB DUP2 PUSH2 0xD82 JUMP JUMPDEST DUP2 EQ PUSH2 0xFF6 JUMPI PUSH1 0x0 DUP1 REVERT JUMPDEST POP JUMP JUMPDEST PUSH2 0x1002 DUP2 PUSH2 0xD94 JUMP JUMPDEST DUP2 EQ PUSH2 0x100D JUMPI PUSH1 0x0 DUP1 REVERT JUMPDEST POP JUMP JUMPDEST PUSH2 0x1019 DUP2 PUSH2 0xDD2 JUMP JUMPDEST DUP2 EQ PUSH2 0x1024 JUMPI PUSH1 0x0 DUP1 REVERT JUMPDEST POP JUMP INVALID LOG2 PUSH5 0x6970667358 0x22 SLT KECCAK256 0xAE 0xC3 0x26 0xB2 SMOD CALLDATALOAD 0xC3 0xC SDIV 0xEE EQ 0xFC GASPRICE 0xAA 0xE3 PUSH4 0xE19B9F58 NOT CHAINID PUSH24 0xA854B68B702D1BFB3564736F6C63430008070033A2646970 PUSH7 0x735822122096B1 EQ 0x29 SDIV 0xDE 0xC6 0xC5 0xE5 PC 0xD0 CODESIZE PUSH18 0x42DB3E22C136AB92CA27A4398323873BA136 MULMOD PUSH5 0x736F6C6343 STOP ADDMOD SMOD STOP CALLER "},"gasEstimates":{"creation":{"codeDepositCost":"1609000","executionCost":"1687","totalCost":"1610687"},"external":{"createCampaign(string,string,address,uint256)":"infinite","deployedCampaigns(uint256)":"infinite","getDeployedCampaigns()":"infinite"}},"methodIdentifiers":{"createCampaign(string,string,address,uint256)":"1d921f62","deployedCampaigns(uint256)":"339d50a5","getDeployedCampaigns()":"4acb9d4f"}},"storageLayout":{"storage":[{"astId":31,"contract":"test.sol:CampaignFactory","label":"deployedCampaigns","offset":0,"slot":"0","type":"t_array(t_struct(CampaignSummary)27_storage)dyn_storage"}],"types":{"t_address":{"encoding":"inplace","label":"address","numberOfBytes":"20"},"t_array(t_struct(CampaignSummary)27_storage)dyn_storage":{"base":"t_struct(CampaignSummary)27_storage","encoding":"dynamic_array","label":"struct CampaignSummary[]","numberOfBytes":"32"},"t_string_storage":{"encoding":"bytes","label":"string","numberOfBytes":"32"},"t_struct(CampaignSummary)27_storage":{"encoding":"inplace","label":"struct CampaignSummary","members":[{"astId":18,"contract":"test.sol:CampaignFactory","label":"contractAddress","offset":0,"slot":"0","type":"t_address"},{"astId":20,"contract":"test.sol:CampaignFactory","label":"title","offset":0,"slot":"1","type":"t_string_storage"},{"astId":22,"contract":"test.sol:CampaignFactory","label":"description","offset":0,"slot":"2","type":"t_string_storage"},{"astId":24,"contract":"test.sol:CampaignFactory","label":"manager","offset":0,"slot":"3","type":"t_address"},{"astId":26,"contract":"test.sol:CampaignFactory","label":"minimumContribution","offset":0,"slot":"4","type":"t_uint256"}],"numberOfBytes":"160"},"t_uint256":{"encoding":"inplace","label":"uint256","numberOfBytes":"32"}}},"userdoc":{"kind":"user","methods":{},"version":1}}